:020000040048B2
:10000000A55AA55A010000000000000000084800A1
:100010000000000000084800000000000008480040
:1000200000000000000000000000000000000000D0
:10003000FFFFFFFFFFFFFFFFFFFFFFFFFFFFFFFFD0
:10004000FFFFFFFFFFFFFFFFFFFFFFFFFFFFFFFFC0
:10005000FFFFFFFFFFFFFFFFFFFFFFFFFFFFFFFFB0
:1008000000000120B10C480093CD490065A14800CB
:100810008B164A0067314A00236D4A000000000031
:10082000000000000000000000000000D76D4A003A
:10083000E3734A0000000000DF854A00C36E4800F1
:10084000E1854A00E1854A00E1854A00E1854A00E8
:10085000E1854A00E1854A00E1854A00E1854A00D8
:10086000E1854A00E1854A00E1854A00E1854A00C8
:10087000E1854A00E1854A00E1854A00E1854A00B8
:100C0000E1854A00E1854A00000000000000000084
:100C100009000000F02B4020B03F4B0000484B0083
:100C20004034402000484B00EC484B002C3540201D
:100C3000F8484B00F8484B0000404020EC484B007F
:100C4000F8484B007A464020F8484B00F8484B00E3
:100C5000007C4020F8484B00F8484B000000002082
:100C600000084800080C480008040020C02A4B0077
:100C7000B03F4B0000000000F8484B00F8484B0024
:100C8000040000000000402035244020382440208B
:100C9000EE2B4020404040207A46402000000000DB
:100CA0000000000000BF00BF00BF00BFFAE7000067
:100CB00072B6002100220023002400250026002710
:100CC000B846B946BA46BB46BC464FF06400013848
:100CD0000028FCDC49480168494A01EA0201002970
:100CE00017D148480168464A41EA02010160464876
:100CF0000168012241EA020101604448444901605F
:100D0000444901603D4801683D4A01EA0201002969
:100D1000F8D04148414901604149086820F0040089
:100D200040F0010008603F49086820F0040040F0EE
:100D3000010008603C4880F308883C4801680020B6
:100D4000814200D028E03A483A4901603A490160BE
:100D50003A483B49016008E03A4836490160364963
:100D60000160394836490160FFE73848002813D050
:100D700037480168012201EA0201002902D0354901
:100D8000354A01E03549344A521A013A04DD00205F
:100D9000002309C1083AFCDA3148002809D031495A
:100DA000314A521A013A04DD0020002309C1083AF1
:100DB000FCDA2E48002809D02D492E4A521A013A51
:100DC00004DD0020002309C1083AFCDA2A48006843
:100DD0002A498842FAD0154801680020814202D091
:100DE00027F0C5F901E027F077F91AF043FF62B662
:100DF0001AF038FF09F095F900BFFEE710C32D4047
:100E00000000000130C32D4004C32D4000C02D4020
:100E1000F05A00000FA5000008ED00E000000020DF
:100E200094EF00E090EF00E0000001200400264075
:100E30001000274020C5000028D9000000002740EE
:100E4000400000FF10C0464000C0464001000000C6
:100E500000C02840000040200080402000004020CA
:100E6000010000000000002000000120010000003F
:100E70000000000000800000E42B40205A5A5A5A1B
:100E80002DE9F84F00256321DFF88C2A904200D924
:100E900010460446DFF8847A00E0114657F8210036
:100EA000A0420BD36A185208AA4207D08A4205D042
:100EB00057F82200A042F0D21546EFE757F8252058
:100EC000DFF85C6A944209D13573DFF8580A00EB09
:100ED000C50096F8F01030F8110040E0844209D1C6
:100EE0003173DFF8400A00EBC10096F8F01030F8DB
:100EF000110034E0801A02D14FF0000912E096F898
:100F0000F030DFF820CA0CEBC10131F813E00CEB34
:100F1000C50131F81310AEEB010EA21A02FB0EF25E
:100F2000B2FBF0F9DFF8008A307B00281DD0834641
:100F300098F800A05046ABEB000000F097FD0228A7
:100F400013DC57F82B000146327BAA4209D210EB82
:100F50001110844209D286F80CA0B8F80200BDE84E
:100F6000F28FB0EB11108442F5D2DFF8B80900EB34
:100F7000C50096F8F01030F8110048443573317B05
:100F800088F80010A8F8020080B2E8E7F0B585B054
:100F900004460D4617461E4601A8102100F06AFDC2
:100FA00000220421684600F075FD8DF8007030467F
:100FB0008DF80200360A8DF80160ADF80450032068
:100FC000ADF80A0000208DF80C006846049001A9D5
:100FD000204620F07FFA05B0F0BDF0B585B004469C
:100FE0000D4617461E4601A8102100F043FD0022C1
:100FF0000421684600F04EFD8DF80070ADF80450F5
:101000000120ADF80A0000208DF80C0001208DF8B9
:1010100009006846049001A9204620F05BFAADF86B
:1010200004500220ADF80A0001208DF80C000020C9
:101030008DF809006846049001A9204620F04AFA7C
:1010400030709DF801009DF8001040EA012005B0C5
:10105000F0BDF8B5DFF8C86806F18A07388800EBFC
:101060008001880000F034FD0022DFF8C03800F075
:1010700041FD04460D46788800EB4001480000F031
:1010800027FD0022DFF8A83800F034FD22462B4669
:1010900000F006FE00F034FFC6F8B00006F1F001E3
:1010A00040F21552904201D300220A7040F24C42A5
:1010B000904201D2012008700878DFF87828137870
:1010C000834230D01070F27A022A2CD1CA790028DB
:1010D00014D0282010FB02F20A2392FBF3F2CA81FB
:1010E000317BC90342F2107291FBF2F111FB00F166
:1010F00089B20420BDE8F44026F088BE532010FBDE
:1011000002F20A2392FBF3F2CA81317BC90342F255
:10111000107291FBF2F111FB00F189B20420BDE8DD
:10112000F44026F073BEF1BD10B5DFF8F4474CF67D
:101130001063012244210020FFF728FF0028D4F883
:10114000E80004D120F08000C4F8E80003E040F09B
:101150008000C4F8E800D4F8E800C0F3C01000280C
:1011600002D00FF6240300E08FA30FF608028FA130
:10117000082001F007FD04F18A00C82101804180A8
:1011800010BD7CB500208DF800006B46024644215E
:10119000FFF723FF0446DFF8A0579DF80000002862
:1011A00003D02868401C286015E000202860DFF884
:1011B0007067D6F8E800C0F3C01000280BD00FF21B
:1011C000D0727AA1082001F0DDFCD6F8E80020F00A
:1011D0008000C6F8E8002868042813D3DFF84057D9
:1011E000D5F8E800C0F3C010002805D10FF2B8729E
:1011F0006EA1042001F0C6FCD5F8E80040F08000A4
:10120000C5F8E800FFF725FF0121204600138140C3
:10121000C4F30B044C4300EE104AB8EE400A73BD11
:101220002DE9F0412DED028BDFF8F44604F178054D
:10123000A86A002810D1FFF7A4FFBCEEC00A10EE88
:10124000100A01F0C5FD4FF03332DFF8F03600F040
:1012500051FC00F055FEA862A86AFFF711FE074690
:10126000DFF8DC663088411C3180652814DB002003
:101270003080FFF786FFBCEEC00A10EE100A01F0C6
:10128000A7FD4FF03332DFF8B43600F033FC00F046
:1012900037FEA8620120287004F1F008E07A0128E6
:1012A00057D198ED0B0A00EE907AB8EE608ADFF81D
:1012B0009476B5EE400AF1EE10FA31D500F0F0FA6E
:1012C000D8F82000C8F81C00A96AC8F82010D8F87F
:1012D0001400091A98F8040011FB00F0A8F8100097
:1012E00098ED0B0AF7EE000A30EE200A28EE000A0D
:1012F000BDEEC00A10EE101A00B210FA81F098F894
:10130000001037F811100A4603469BB29A4201D2E8
:10131000718000E07080B6F90200A8F80E0018E0B5
:10132000F7EE000A30EE200A28EE000ABDEEC00AF1
:1013300098F8000037F81000014610EE102A92B21B
:10134000914202D2A8F80E0003E010EE100AA8F8AD
:101350000E00B8F90E1098F8080010FB01F10A20F1
:10136000B1FBF0F0A17B022903D094F829110129E7
:1013700016D12178032913D1C0034FF47A71B0FB41
:10138000F1F189B2042026F041FDD4F83401C0F314
:101390004020002802D0A07CE07001E00020E07036
:1013A000BDEC028BBDE8F0814F4B000073797300F8
:1013B0002DE9F84185B00446DFF86465F07900282E
:1013C00040F0CB8020467F2800F0C780307803288B
:1013D00008D0DFF874259AA1082006B0BDE8F041D6
:1013E00001F0D0BB2046642801DD642402E0200027
:1013F00000D1012453207073034640222C21012088
:1014000001F057FE06F59270016921F0400101617B
:1014100006F1A001DFF8342512688A61DFF804754F
:1014200007F5487806F1F005F27A012A54D10868E8
:101430006861FFF725FD297838F8111000EE101AC1
:10144000F8EE400A00EE100AB8EE400A80EE201ACC
:10145000DFED7C1A21EE211ABDEEC11A11EE101A31
:101460002983214601EE101AB8EE411A81EE211AA5
:1014700061EE200AFCEEE00A10EE906A311A00EEEE
:10148000901A002802D1B7EE000A03E0B8EEE01A85
:1014900081EE000A85ED0B0AEE81298B0491CDEDDA
:1014A000030A02960190BDEEC00A10EE100A80B247
:1014B0000090234607F5557261A1102001F062FBF0
:1014C000F6034FF47A70B6FBF0F189B2042006B04F
:1014D000BDE8F04126F09ABC3473EC71214601EB73
:1014E00081025100698104702878014638F8111092
:1014F0004C43642194FBF1F1E981E979002813D090
:10150000282010FB01F10A2291FBF2F1E981317BE5
:10151000C90342F2107291FBF2F111FB00F189B2A2
:10152000042026F073FC12E0532010FB01F10A2284
:1015300091FBF2F1E981317BC90342F2107291FB18
:10154000F2F111FB00F189B2042026F05FFCE8798A
:1015500006B0BDE8F04102F047BD06B0BDE8F0813D
:101560007CB50646DFF8B8432078032808D0DFF8BA
:10157000E02333A1082002B0BDE8704001F002BBB7
:1015800030004ED02EA533460FF2344229461020AB
:1015900001F0F8FAE6723046012805D004F1F000B7
:1015A0000021C162018301823046022834D104F156
:1015B000F006B6F90E000190F0790090B3790FF2C1
:1015C0001C422946102001F0DDFAB6F90E00642114
:1015D00010FB01F000EE100AB8EEC00ADFF8440379
:1015E000317800EB4100B0F8200300EE900AF8EEED
:1015F000600A80EE200A10EE100A02F04DFE41EC67
:10160000100B02F06DFE51EC100B02F09DFEB0715C
:10161000F071C0B202F0E8FCE07ABDE8764002F07A
:101620000EBD73BDBE4981F8F5007047BC49A1F8F5
:101630008C007047BA49A1F88A007047000000008A
:10164000737973000000C842FEB50D46B44C94F89F
:1016500029110246914200F0A580014602291DD1C0
:1016600094F83401C00740F19D8033206073034635
:1016700040222C21012001F01CFD0120E0710220FC
:1016800084F8290100950123B24AA1A1102001F09C
:1016900079FA0220BDE8FE4002F008BF012879D1A6
:1016A000002026F057FB0020E0702074022108463D
:1016B00026F0E1FB04F1B806A44F38687060002002
:1016C000E071012084F82901332060730346402231
:1016D0002C21012001F0EDFCD4F8340120F0400071
:1016E000C4F834013868306094F8F000002802D063
:1016F0000FF2083000E087A085A601900095E379FD
:10170000954A3146082001F03DFAE07A02283CD1A2
:10171000217894F8F00000281CD0032935D1282521
:10172000207BC00342F2107190FBF1F36B430FF288
:10173000D4223146102001F025FA207BC00342F26A
:10174000107190FBF1F010FB05F189B2042026F036
:101750005DFB1AE0032918D15325207BC00342F218
:10176000107190FBF1F36B43AEA23146102001F0F3
:1017700009FA207BC00342F2107190FBF1F010FBDC
:1017800005F189B2042026F041FB0120BDE8FE40AE
:1017900002F08CBEAAA25EA1022003B0BDE8F04018
:1017A00001F0F0B9F7BD70477CB56C4D287B2B7903
:1017B0006B4E5B4CA17E994202D1E17E814209D001
:1017C000A376E076717A01910090664A50A10820D4
:1017D00001F0D8F9B07A012824D13068002821D04E
:1017E000707A00281ED160490878002802D0487815
:1017F00001280BD104F1BC00022181620121217476
:101800000021E18151490968016003E0012004F1F0
:10181000BC01886240F22B410220FFF715FF002037
:10182000306073BD707A002839D04F48A17E0170B6
:10183000E17E4170297B012902D02879002812D14C
:1018400004F1BC0002218162012121740021A173F5
:101850003E49096801600020E07340F242410220E5
:10186000BDE87C40F0E6002919D1012801D002280A
:1018700015D1012004F1BC018862E07B00280ED163
:10188000607F022805D140F253410220BDE87C4030
:10189000DAE640F255410120BDE87C40D4E673BD54
:1018A0001F48D0F8A01000F1F4023048814220D344
:1018B000938A1069091A4FF4FA60B1FBF0F0C0186E
:1018C00080B2642802DA0420107014E0962802DA4C
:1018D000082010700FE0C82802DA0A2010700AE011
:1018E000B0F5967F02DA0D20107004E00F20107022
:1018F00001E00020107013781D480178994206D04D
:10190000037000BF55A202A1082001F03BB9704747
:10191000737973004461790000710200588A4A00AB
:10192000E416002024864A00042440200000E83FFA
:101930000000D03F18244020000040203333F33F04
:101940000824402044894A004C894A00BC1E40209B
:10195000AC894A00D8894A00008A4A00D00B00208E
:10196000B8040020308A4A00192440200171020086
:101970001B244020496E6974204F7074333030311D
:101980003A2025730D0A00004661696C00000000D2
:101990004F707433303031204F7074333030312019
:1019A0004F6B0D0A000000004F707433303031204F
:1019B0004F707433303031206661696C0D0A00005D
:1019C0004C696768745F56616C75654D6F64656CD2
:1019D000436D64203A2025640D0A00006175746F20
:1019E0007065723A25642C6D616E757065723A256A
:1019F000642C50574D3A25640D0A00004E69676803
:101A00007400000050776D5F5365744475747943BA
:101A100079636C65204E494748543A2025640D0A85
:101A20000000000050776D5F53657444757479430E
:101A300079636C65204441593A2025640D0A000001
:101A4000554E4B4E4F574E2053545245414D494EE3
:101A500047204D4F44450D0A000000004D2076619F
:101A60006C75652025640D0A00000000002848BF41
:101A700040427047002200F011B88268521C826018
:101A8000426832B10268531C036011704168491EFC
:101A90004160704762F30F2262F31F4200B500BF3E
:101AA000130096469446103928BFA0E80C50FAD887
:101AB0005FEA417C28BF0CC048BF40F8042BC9072F
:101AC00028BF20F8022B48BF00F8012B00BD000002
:101AD00010F0004160B148BF4042B0FA80F290403F
:101AE000D21CC2F5846241EA025202EBD0214005C9
:101AF0007047000030B540F2FF7C1CEA11541DBF56
:101B00001CEA1355644565453FE0641981EA030CFE
:101B10006FF35F530CF0004C43F48013C90241F0A3
:101B2000004141EA505EC5021100A5FB02020028F7
:101B30004FF00000EEFB01204FF00001E3FB052118
:101B400018BF42F00102401800214941E3FB0E0199
:101B5000A4F580640D0302D292184041494154F12A
:101B6000010470DD450872F1004250F1000051EBB4
:101B70000451A1F5801102D441EA0C0130BD40F2BC
:101B8000FF7E4CEA0E51002030BD0CEA135564452F
:101B900018BF654581EA030C0CF0004C41D050EAB7
:101BA000410E1CBF52EA430E02E06146002030BDE8
:101BB00024422C441BD15FEA050EF6D0090302BF74
:101BC00001460020AEF1140EB1FA81F5AEEB05042A
:101BD00001FA05FE0C35C5F1200100FA05F5C840F3
:101BE0004EEA000E6FF35F5343F480139CE733F02B
:101BF0000043B3FA83F504BFB2FA82FE75440B3D8D
:101C0000641BB5F1200E2FBF02FA0EF3AB40C5F1F5
:101C1000200E22FA0EFE38BF43EA0E03AA40641CCF
:101C20007CE750EA410E14BF52EA430E6FF0000108
:101C30004FF4001515EB430F8EBF194615EB410FFE
:101C40009DE7B4D830BDD4F10104B4F120050FDA1A
:101C5000C4F12005520828BF42F0010210FA05FE27
:101C600001FA05F57244E2BFE0402843E1400FE08D
:101C7000352C9ADCC5F1200452EA400220FA05F224
:101C800018BF42F0010231FA05F0A1400A430021D9
:101C900072F1004250F1000051EB0C0130BD000028
:101CA00070B491EA030F4FF0004540F1BF806B40E4
:101CB000841A71EB030604D26E40001BB141121965
:101CC00073414FF4001C1CEB410F34BF7CEB430607
:101CD00083E00C0DA4EB1356362E00F37C80012E0E
:101CE00045EAC32341DC43EA525312BFD2029202B7
:101CF0005B08240545EAC12141EA5051D2EBC020DE
:101D0000994125D407D1B0FA80F610FA06F162D0D5
:101D10000020203608E0B1FA81F6B140C6F1200279
:101D200020FA02F21143B0404FEAF474B4EB465487
:101D300034F001064FEA74040AD8D6F50016760D81
:101D400004F00044F04061FA06F25040F14048408F
:101D5000C00A40EA415021F0004128BF5FEA500527
:101D600050F1000044EBD12135E0DB0A45EAC12106
:101D7000C90AB6F120050EDD42EA0242120CC5F195
:101D8000200603FA06F6EB4042EA06056D4298414A
:101D900061F100010DE062FA06F5F240554063FA88
:101DA00006FC82EA0C02F3405A406D42904161EB1E
:101DB000030111F4801F05D1641E620502D06D007D
:101DC0004041494121F48011430875F1004350F12D
:101DD000000041EB045170BC70471CEB410F15D261
:101DE00023F0004352EA43060BD04FEA4C0CBCEB05
:101DF000410F04D80C0D661E342EB7DDEBE7801AB8
:101E0000994150EA410608BF0021E4E708BF1CEBF6
:101E1000430F28BF6FF00001DDE7000070B491EAC6
:101E2000030F4FF000457FF543AF6B40841A71EB11
:101E3000030603D2001BB141121973414FF4001C79
:101E40001CEB410F34BF7CEB430442E00C0DA4EBD0
:101E50001356352E4FDC45EAC323DB0A45EAC12180
:101E6000C912B6F120050DDD63FA05F6EB4086EAEE
:101E70000305124218BF45F00105C01851F10001D9
:101E80000CD213E062FA06F5F2405540F3415A4095
:101E9000B340F3405A408018594107D349085FEADC
:101EA00030005FEA350528BF45F0010501F58011D6
:101EB000420875F1004250F1000041EB04514E0020
:101EC00016F5001F70BC38BF70470020090D0905CA
:101ED00070471CEB410F10D252EA43060BD0BCEB0B
:101EE000410F05D80C0DAB43661E342EB6DD02E063
:101EF000AB438018594170BC704770BC70470000FC
:101F0000400D40F21E4C40EAC120BCEB115C40F099
:101F1000004003D48CF30701C84070476FEAE170BA
:101F2000704700003EB504460D460020ADF80000A5
:101F30006A460DF1010102F027FC681C019095F83A
:101F400041000290002C36D12878092804D00E28B0
:101F50000FD00F2819D024E0002002F00EFC012839
:101F600029D101A9002002F060FC022003F080F8D2
:101F700037BD9DF8000003281DD1082003F078F834
:101F800001A9002004F0C2FB37BD9DF80000032822
:101F900011D1082003F06CF801A9012004F0B6FB70
:101FA00037BD04F0EAFD012805D195F84120691CF0
:101FB000287800F001F837BD2DE9F84304460D46B6
:101FC000174611284AD23E46402E47D8DFF8941BC8
:101FD00022466820424301EB020808F14409D9F87F
:101FE000040010F10F0F02D2401CC9F8040000F0E9
:101FF0002DFD01280BD199F80D00002807D199F883
:102000000E00012803D104F09AFFC9F82000012036
:1020100089F80D0004F093FFC9F81C0089F80070DE
:102020003246294608F1040004F0C6FF002801D119
:10203000012C13D13246294608F1040004F0F0FFC8
:10204000402E08D20022C6F14006314608EB0700B8
:10205000001D05F039F8012089F80C00BDE8F18376
:1020600038B500240FE0DFF8000B54216143451818
:1020700000224021681C05F027F8483504F05FFF76
:102080002860EC80641C0C2CEDD331BD38B50024E5
:1020900011E068216143451800224021281D05F008
:1020A00013F848350020A87268722872286004F07E
:1020B00046FFA861641CDFF8AC0A112CE9D300F6D6
:1020C0002C01DFF8A82A0A60DFF8A42A8A60DFF86A
:1020D000A42A0A6100F5FA62DFF89C3AD364DFF8BB
:1020E0009C3A5364DFF8983A5365DFF8A03B4B62A3
:1020F000DFF89C3B5363DFF89C3BCB63DFF8983BF6
:102100004B64DFF8983BCB62DFF8941B9160DFF8FB
:10211000941B11607F2180F8291831BD70B500260D
:1021200079E0687B012867D1A869002864D004F0B1
:1021300006FFA969EA69801A81425DD200206873AE
:1021400002464021201D04F0BFFF0120287353E008
:10215000DFF8100A68217143441804F1440500F0C7
:1021600075FC0128DDD1A87B012816D1687B0128E8
:1021700013D104F0E4FE69692A6A801A81420CD204
:102180000020A873DFF8200B50F826300FF68832B5
:102190000FF67C31082000F0F5FCA87B002815D153
:1021A00004F0CDFE2969EA69801A81420ED200202E
:1021B00068730120A873DFF8F00A50F826300FF694
:1021C00068320FF64C31022000F0DCFCA87B0128BD
:1021D00012D1A86900280FD004F0B1FEA969EA69FC
:1021E000801A814208D20020687302464021201DD7
:1021F00004F06AFF01202873287B01280AD10020FF
:10220000287304F0BAFC012804D12A78211D304635
:1022100000F004F8761C112E9AD370BDF0B585B08D
:102220000C461546102800F2D280DFE800F0090EB7
:1022300013181D22273439D042BDC2C7D0D0CC00DC
:10224000DFF8680A04F073FFC1E0DFF8640A04F005
:10225000A6FFBCE0DFF85C0A05F036F8B7E0DFF86F
:10226000580A04F070FFB2E0DFF8500A05F0A8F851
:10227000ADE0DFF84C0A05F09CF8A8E0DFF8E408D0
:1022800090F8C112012940F0A280214600F60C000E
:1022900005F0BCF89BE0DFF82C0A05F0A2F896E008
:1022A0002946204600F003FC2946204602F068F843
:1022B0008DE0DFF8140A05F08CFCA578DFF80C0A35
:1022C000290001D1461C01E00125861CE078012887
:1022D00014D1627921794908284600F0AEFD0390B7
:1022E0003078029060790190207900902B46DFF8D9
:1022F000E0290FF61C21082000F044FCE0780328B8
:102300001AD1E0798DF8100004A8009001236279B9
:1023100021794908284600F069FD03903078029041
:1023200060790190207900902B46DFF8A8290FF6FC
:10233000E011082000F026FCE078052817D160792C
:10234000A77947EA00273A4621794908284600F04C
:1023500060FF0390307802900197207900902B461F
:10236000DFF86C290FF6A811082000F00BFCE078CC
:1023700007282CD16079A77947EA0027E3793A4604
:1023800021794908284600F01DFF0390307802901B
:102390000197207900902B46DFF838290FF670114D
:1023A000082000F0EFFB12E0DFF82C0904F076FFC4
:1023B0000DE0DFF8280904F0EEFE08E0DFF8200960
:1023C00004F002FF03E02946204605F043FC05B077
:1023D000F0BD00002DE9F0418CB0044620780028C3
:1023E00000F0E2800A2800F0DF800C2880F0DC801A
:1023F000601C0190DFF86C572078401E0A2800F21C
:10240000D380DFE810F0CD000B00D400DA00F40038
:102410000E01280132023602D10055024FF00008A9
:1024200005F2EA6642461021304604F04DFEDFF820
:10243000B4783878002802D0012874D0AAE005F6D4
:10244000780007F066FA404678701AE005EB8101E3
:1024500001F678010A88521EB281897801F00101E3
:10246000B1730AE005EB810101F678010A88521E7A
:102470003281897801F00101B172401C787008F155
:10248000010878780146D5F8082991422BD24346B5
:10249000DBB2042B27DA0A46521001EB927222F0CB
:1024A00003028A1A032AE8D8DFE802F005110403C0
:1024B000E3E7CBE7D6E705EB810101F678010A886F
:1024C000521E3280897801F00101B170D5E705EB29
:1024D000810101F678010A88521EB280897801F0E4
:1024E0000101B171C9E7914256D20120387053E021
:1024F00005EB810101F678010A88521EB2818978C4
:1025000001F00101B1730AE005EB810101F67801E8
:102510000A88521E3281897801F00101B172401C93
:10252000787008F1010878780146D5F808299142B9
:102530002BD24346DBB2042B27DA0A46521001EBBA
:10254000927222F003028A1A032AE8D8DFE802F026
:1025500005110403E3E7CBE7D6E705EB810101F6BC
:1025600078010A88521E3280897801F00101B17029
:10257000D5E705EB810101F678010A88521EB28089
:10258000897801F00101B171C9E7914204D30020BB
:10259000387001E04046387001A9304605F073FA02
:1025A0009DF80C0084F841000CB0BDE8F08101A951
:1025B00005F2FA6005F003F8F2E70FF2EC70D0E9EB
:1025C0000023CDE9042305F2FC6504AA03210120C0
:1025D00007F090FDC0B2002804D10C2205992846CE
:1025E00004F01EFD01A9284604F081FED8E70FF291
:1025F000C070D0E90023CDE9042305F5E16504AA04
:102600000321012007F076FDC0B2002804D10C227E
:102610000599284604F004FD01A9284604F07AFF34
:10262000BEE70FF29470D0E90023CDE9042305F250
:10263000147504AA0321012007F05CFDC0B2002834
:1026400004D10C220599284604F0EAFC01A9284689
:1026500004F0E4FDA4E700208DF800000DF1010274
:10266000694602F091F805F5E36604F068FC306015
:1026700007F0AAFDB080DFF870064178007840EAE4
:102680000120F080DFF864064178007840EA0120FC
:10269000308102F012FE401E8041C00FB07205F280
:1026A000BA70807C012801D0022801D1012000E00D
:1026B0000020F07202F07BFD400800F00100307352
:1026C0000020707302F073FDC00800F00100B073C9
:1026D0000020F07308F05CFA308202F0ADFDB074B7
:1026E0009DF800003076DFF80806017871764078B2
:1026F000B07600207061DFF8D415C87F8A7F42EA87
:102700000022F28391F8210091F8202042EA002271
:10271000B28301F1F00291F82901012808D1B2F940
:102720000E30107A10FB03F30A2093FBF0F000E068
:10273000002005F23C77B8831078B877C878F8772E
:1027400005F25C704A7902700A79427084314A6EEF
:1027500042608A6E82608A69C2600A8813464CF2BF
:10276000010C634509DBA3F540431A46D21103EB84
:1027700012631B125B42837001E0120A8270C96906
:10278000DFF87025914200D2016100210FE068203E
:102790004843284452300278012A07D14078002863
:1027A00004D1706901228A4010437061491C1029CC
:1027B000EDD995F82201387095F85A02787095F89D
:1027C000F201B87095F82A03F87095F8C2023871D2
:1027D00095F85200787195F88A01B87195F832052C
:1027E000F87195F8BA00387295F89A05787295F8EC
:1027F000CA04B87208F06BFAB87302F089FDF87277
:1028000002F091FDB88108F0C9F978820AF09CFACB
:1028100038750AF0C7FA787509F09EFAF87309F06E
:102820009EFA387408F0B7F9787402F0B3FEB87500
:1028300002F0ACFFF875012038760AF017FB01288A
:1028400002D10120787608E00AF014FB012802D1B9
:102850000220787601E0002078760AF0EBFAB8766C
:1028600001A9304604F0D2FE9AE640208DF80C0013
:1028700096E605F2BA75DFF874044178007840EA0C
:102880000120E88007F0A0FC6880DFF86C04417844
:10289000007840EA01202880DFF84C044178007875
:1028A00040EA0120A88001A9284605F04AF977E608
:1028B00068460FF284410A68026004A80FF20051D2
:1028C0000E2204F0ADFB002508208DF80C0008A8AE
:1028D00001F01BFB684601F042FB04A801F024FB59
:1028E0000C220FF2584108A804F066FB002801D121
:1028F000012512E00C220FF2544108A804F05CFB01
:10290000002801D1022508E00C220FF2504108A84E
:1029100004F052FB002800D10325019805709DF8B2
:1029200000000AF0D5FE019948706D4668780AF0FB
:10293000CFFE01998870A8780AF0CAFE0199C87084
:1029400004A8302101710021817205AA0321019898
:10295000001D0AF065FE00200199C87120E62DE9EE
:10296000F041002430E0396881420CDA4FF0010870
:1029700009E0397B0129F6D139898142F3DA002057
:1029800038734FF00108B8F1000F1CD004F0D7FAEB
:10299000786004F0E2F8012807D12846FFF71AFD15
:1029A0000122294600200BF0B5F8DFF85013087813
:1029B000002808D1012008700FF2B0320FF2503118
:1029C000082000F0DFF8641C0C2C3DD24FF000080A
:1029D000002CF8D00A2CF6D06348542161434518E6
:1029E00005F1420630780028EDD005F144077078F3
:1029F000012805D1787B002802D140463873E2E7F0
:102A00007889002806D0401E788180B20028DAD16B
:102A10004FF0010804F093FA7968401A71780029A0
:102A200003D00229A5D006D3ADE739688142AADADE
:102A30004FF00108A7E739688142A4DA787B401E8D
:102A400078734FF001089EE7BDE8F08170B502F0A1
:102A50005FFC01280AD108F03AF9002806D10020CD
:102A60000BF085FB012801D1012000E00020401E71
:102A70008041C043C00F0146A14C22780B469A42C8
:102A800013D02170002810D000250CE035486821B3
:102A90006943084400F150060020B070307004F023
:102AA0004EFA30616D1C112DF0D3207870BD7CB5CD
:102AB000064600220121684604F006FB30783128E2
:102AC00035D17078012832D1B078B0282FD1F07884
:102AD00002282CD1244C04F155050022402128461F
:102AE00004F0F2FA0DF101026946301D0BF021FEEF
:102AF0009DF8011008430BD17120287001206870E7
:102B0000B020A8700220E8709DF80000287105E050
:102B10007F202870312068701020A870402084F831
:102B20009500012204F1540100200AF0F3FF73BD67
:102B300038B5014614460C4D402085F8E1020246A6
:102B400005F2A12004F06CFAB4F5807F01D10120D8
:102B500000E00020024605F528710020BDE838405D
:102B60000AF0D8BF080400209C0D0020B1134800D3
:102B70000B404900B93F4900833E49007942490072
:102B80006115480008B42DE9F043C2B006468946F5
:102B9000154600224FF4807102A8FEF77BFF6846BD
:102BA0005849062204F03CFA002001F01BFE0128DF
:102BB00007D13046022804D0042802D0B0F5807F27
:102BC0005FD13046022806D1072422466DA102A813
:102BD00004F036FA12E0042802D0B0F5807F06D166
:102BE0000724224669A102A804F02AFA06E0042478
:102BF0004FEA040267A102A804F022FA2746102235
:102C0000414902A8384404F00BFAC4F1F008103727
:102C1000B8F1000F35DD304680B20BF0A1FE03465F
:102C2000CDF800905DA2414602A838440BF0F8FEB2
:102C3000A8EB0008C719B8F1000F22DD2A4649ABFE
:102C4000414602A838440BF00DFFC71930468028D2
:102C500013D0002001F0B9FD054603F07EFF0128E6
:102C60000BD1032D09D129480078012805D132461E
:102C7000391B02A82044FFF75BFF394602A80BF07E
:102C8000B3FE42B0BDE8F0035DF808FB159F4900B4
:102C900025164800351648002D164800277F4800A5
:102CA000A9174800A7174800042C4020D00B00208B
:102CB000D40B0020E40B0020F00B0020080C0020B7
:102CC000100C0020500C0020540C0020E4160020B2
:102CD000A48E4A00D48E4A005C0C0020680C0020B0
:102CE0006C0C00201F244020FABF4B00F8BF4B00A3
:102CF0003C02402040420F00FABF44002124402003
:102D000022244020B01E40202717002023244020EA
:102D100043616E5478527800257320727820726572
:102D2000636F7665720D0A002573207278206C6FD0
:102D300073740D0A00000000180C1F004C41432D55
:102D40003730303330303331000000004C41542DE7
:102D50003730303330303135000000004C414E2DDB
:102D600037303033303031380000000073656E6426
:102D70002066697273742063616E206D73670D0A3B
:102D8000000000001B5B303B33316D001B5B303BB0
:102D900033336D001B5B306D000000005B25735DFD
:102DA0005B25735D000000000000000000000000D3
:102DB0000100000000000000020000000000000010
:102DC0003234433331313233343520202020000077
:102DD00050B1B0FA80F18840C91CC1F58461090581
:102DE00001EBD0214005704701467047F8B588B027
:102DF00004460E4617461D4668461021FEF73AFE69
:102E00000022102104A8FEF745FE8DF810702A4616
:102E10000E990DF1110004F003F9ADF800606D1C7E
:102E2000ADF8065000208DF8080004A8039069460C
:102E300020461EF04FFB09B0F0BD78B585B00446C2
:102E40000D46164601A81021FEF714FE00220421AB
:102E50006846FEF71FFE8DF80060ADF804500120B3
:102E6000ADF80A0000208DF80C0001208DF8090053
:102E70006846049001A920461EF02CFBADF80450D2
:102E80000120ADF80A008DF80C0000208DF8090033
:102E90006846049001A920461EF01CFB04980078A7
:102EA00006B070BD78B587B004460D46164603A837
:102EB0001021FEF7DFFD0022042102A8FEF7EAFD43
:102EC0008DF808508DF809602046ADF80C000220FE
:102ED000ADF8120000208DF8140002A8069003A996
:102EE00000201EF0F7FA060008D001900095234656
:102EF000DFF8742CB2A10220FFF744FE304608B080
:102F000070BD78B587B004460D4603A81021FEF7C2
:102F1000B1FD0022042102A8FEF7BCFD8DF8085087
:102F20002646ADF80C600120ADF8120000208DF8A7
:102F3000140001208DF8110002A8069003A90020BA
:102F40001EF0C8FA002809D00190284600902346B8
:102F5000DFF8502C9AA10220FFF714FEADF80C60A8
:102F60000120ADF812008DF8140000208DF811003A
:102F700002A8069003A900201EF0ACFA002808D091
:102F8000019000952346DFF8202C8DA10220FFF749
:102F9000F9FD0698007808B070BD2DE9F04188B0C1
:102FA00004460D4616461F4604A81021FEF762FD92
:102FB0000022042103A8FEF76DFD3046000A8DF8BB
:102FC0000C0030468DF80D008DF80E702846ADF8D7
:102FD00010000320ADF8160000208DF8180003A89B
:102FE000079004A920461EF075FA804600280ED0EE
:102FF00004A920461EF06EFA8046029001970096C2
:103000002B46DFF8A82B6EA10220FFF7BBFD404640
:1030100008B0BDE8F081F8B588B004460D46164604
:1030200004A81021FEF726FD0022042103A8FEF7C4
:1030300031FD3046000A8DF80C0030468DF80D0049
:10304000ADF810500220ADF8160000208DF81800E1
:1030500001208DF8150003A8079004A920461EF052
:1030600039FAADF810500120ADF816008DF81800AF
:1030700000208DF8150003A8079004A920461EF033
:1030800029FA07990F78002810D004A920461EF0CD
:1030900021FA044603F053FF0290019400962B4658
:1030A000DFF80C2B46A10220FFF76CFD384609B073
:1030B000F0BDF0B587B004460D4616461F4603A87E
:1030C0001021FEF7D7FC0022042102A8FEF7E2FC43
:1030D00030468DF8080038468DF809003F0A8DF813
:1030E0000A70ADF80C500320ADF8120000208DF8E6
:1030F000140002A8069003A920461EF0EBF9040074
:1031000008D0019000962B46DFF8B42A2CA10220AB
:10311000FFF738FD204607B0F0BD78B587B006460A
:103120000C46154603A81021FEF7A4FC002204213A
:1031300002A8FEF7AFFC28468DF80800ADF80C4059
:103140000120ADF8120000208DF8140001208DF848
:10315000110002A8069003A930461EF0BBF9002812
:1031600009D00190284600902346DFF8582A14A180
:103170000220FFF707FDADF80C400220ADF8120069
:1031800001208DF8140002A8069000208DF811008F
:1031900003A930461EF09EF9002808D00190009542
:1031A0002346DFF8242A06A10220FFF7EBFC9DF856
:1031B00008009DF8091040EA012008B070BD000029
:1031C00049324300F0B585B004460D4617461E4609
:1031D00001A81021FEF74EFC002204216846FEF7EC
:1031E00059FC3846000A8DF800008DF801708DF802
:1031F0000260ADF804500320ADF80A0000208DF8FD
:103200000C006846049001A920461EF063F905B041
:10321000F0BD78B585B004460D46164601A81021CC
:10322000FEF728FC002204216846FEF733FC3046F6
:10323000000A8DF800008DF80160ADF804500220FE
:10324000ADF80A0000208DF80C008DF809006846E2
:10325000049001A920461EF03DF9022003F072FE01
:10326000ADF804500120ADF80A008DF80C000020E4
:103270008DF809006846049001A920461EF02AF93D
:103280000498007806B070BD38B5DFF84049207862
:103290000A2800F22E82DFE810F00B001200200056
:1032A00041009301A501DB01E601F3010B021B02C2
:1032B0006068401C60600B28C0F01E8202E206F0CD
:1032C00083FF012805D10223112228210120FFF7C5
:1032D00064FE2078401C20700EE26068401C606034
:1032E000012840F209820320207000206060DFF88E
:1032F000E0580D2240210120FFF78DFEA8729B2887
:1033000007D09B20A8720FF6A01203A10820FFF798
:1033100039FC0020A060EFE149324300A068DFF8EB
:10332000B018897A9B2940F08C80012805D0C0F024
:103330004381032857D02BD33EE1002340F21332C0
:1033400028210120FFF729FE802340F21D32282189
:103350000120FFF722FE00234FF4457228210120AF
:10336000FFF71BFE802340F2163228210120FFF7D1
:1033700014FE042340F2173228210120FFF70DFE2E
:10338000182340F2193228210120FFF706FE13E12D
:10339000802340F21D3228210120FFF7FEFD072384
:1033A00040F24B4228210120FFF7F7FD002340F2B5
:1033B0004C4228210120FFF7F0FD242340F24D422A
:1033C00028210120FFF7E9FD242340F24E42282165
:1033D0000120FFF7E2FD002340F24F4228210120A7
:1033E000FFF7DBFDE8E000234FF48A62282101208B
:1033F000FFF7D3FD012340F2514228211846FFF781
:10340000CCFD012340F2524228211846FFF7C5FDAA
:10341000152340F26D4228210120FFF7BEFD002355
:1034200040F2611228210120FFF7B7FD24234FF459
:10343000487228210120FFF7B0FD2078401C207041
:10344000BAE0032800F2B880DFE800F0022D5882CD
:10345000002340F2133228210120FFF79EFD0023B4
:103460004FF44C7240210120FFF797FDE02340F21A
:10347000323240210120FFF790FD042340F2333225
:1034800040210120FFF789FD64234FF4427240215F
:103490000120FFF782FD402340F21132194601203E
:1034A000FFF77BFD88E05E234FF446724021012048
:1034B000FFF773FD422340F2D52240210120FFF7A0
:1034C0006CFD842340F2D32240210120FFF765FDEB
:1034D000102340F2023240210120FFF75EFD02235B
:1034E00040F2C72240210120FFF757FDA3234FF4EC
:1034F000327240210120FFF750FD5DE0432340F28E
:10350000C92240210120FFF748FD5F230622282120
:103510000120FFF742FD23234FF4487228210120A8
:10352000FFF73BFD022340F2133228210120FFF771
:1035300034FD072340F24B4228210120FFF72DFDE7
:10354000152340F26D4228210120FFF726FD33E0CC
:10355000002340F24F4228210120FFF71EFD0023E7
:103560004FF48A6228210120FFF717FD012340F262
:10357000514228211846FFF710FD012340F2524224
:1035800028211846FFF709FD042340F2C222282112
:103590000120FFF702FDA32340F2C32228210120CE
:1035A000FFF7FBFC43234FF4317228210120FFF782
:1035B000F4FC2078401C2070A068401CA0609BE0B8
:1035C0006068DFF80C16897A9B2905D1411C61607F
:1035D0001528C0F0918075E0411C61606528C0F03D
:1035E0008B806FE0DFF8E805807A9B282DD11223CD
:1035F00040F2893240210120FFF7CFFC7D234FF4B8
:10360000607240210120FFF7C8FC002340F287329E
:1036100040210120FFF7C1FC942340F28532402174
:103620000120FFF7BAFC232340F28632402101201B
:10363000FFF7B3FC002340F2D32240210120FFF723
:10364000ACFC2078401C207056E00620207053E02F
:10365000DFF87C05807A9B2834D16068411C61606A
:10366000652849D32EE0DFF86805807A9B2829D1A8
:10367000B82340F2D32240210120FFF78EFC21E045
:103680006068411C6160152836D3DFF84405807AF4
:103690009B2817D1002340F2D62240210120FFF7BA
:1036A0007CFC3123102228210120FFF776FC09E061
:1036B000DFF81C05807A9B2804D16068411C61609A
:1036C000652819D32078401C20700020606013E02A
:1036D000DFF8FC04807A9B2806D1022340F21332E3
:1036E00028210120FFF759FC002020706060012094
:1036F00032BD002020706060002032BD00B585B072
:1037000001A81021FEF7B6F968460FF2B4510A6815
:1037100002602E20ADF804000420ADF80A0000205D
:103720008DF80C006846049001A901201DF0D2FE1E
:1037300005B000BD70B5DFF8984404F18005B222F1
:103740002E210120FFF7E9FC28804AF2AE26B04284
:1037500023D03346B2222E210120FFF7AAFC4FF4DA
:103760000043FE222E210120FFF7A3FCB2222E21CE
:103770000120FFF7D2FC2880B0420ED0B4222E21C7
:103780000120FFF7CAFC4FF6FF71884201D1FFF715
:10379000B5FFA86E40F48070A866002320222C217B
:1037A0000120FFF786FC20222C210120FFF7B5FC29
:1037B00028222C210120FFF7B0FC47F6FF732822B6
:1037C0002C210120FFF775FC532060730346402233
:1037D0002C210120FFF76DFC8D2021F04BF90346D1
:1037E0000FF2E042B6A10820FFF7CCF94FF6FF74C4
:1037F000234654222C210120FFF75BFC234656224E
:103800002C210120FFF755FC234658222C210120B2
:10381000BDE870404DE4F0B585B003F090FBDFF8F3
:10382000B4432168401A652853DB03F088FB20600D
:1038300054222C210120FFF770FC064656222C2131
:103840000120FFF76AFC054658222C210120FFF7D2
:1038500064FC04464FF429722E210120FFF75DFC21
:10386000074607F01F078D2021F004F9014645EABD
:103870000600204301D1112F01D192A300E092A3B1
:1038800004910394029501960097DFF84C238CA1D4
:103890000820FFF777F9002E06D04FF6FF73542269
:1038A0002C210120FFF705FC002D06D04FF6FF73F9
:1038B00056222C210120FFF7FCFB002C09D04FF6EB
:1038C000FF7358222C21012005B0BDE8F040FFF71E
:1038D000F0BB05B0F0BD2DE9F84185B0BF4F787859
:1038E00001285FD054222C210120FFF716FC064648
:1038F00056222C210120FFF710FC054658222C21CE
:103900000120FFF70AFC04464FF429722E21012002
:10391000FFF703FC804608F01F088D2021F0AAF86D
:1039200045EA0601214302D1B8F1110F01D165A387
:1039300000E065A30490039402950196CDF8008001
:10394000A54A5FA10820FFF71DF9A548304028438C
:1039500005D134F4405002D1B8F1110F04D1012047
:103960007870002038701DE0002E06D04FF6FF73EF
:1039700054222C210120FFF79CFB002D06D04FF68E
:10398000FF7356222C210120FFF793FB002C09D056
:103990004FF6FF7358222C21012006B0BDE8F041FC
:1039A000FFF787BB06B0BDE8F08138B58B4C607877
:1039B000002845D02078002803D002281FD00BD340
:1039C0003BE00021892021F063F803F0B8FAA06001
:1039D0002078401C207031BD03F0B1FAA168401A74
:1039E00040F2C31188422BDB0121892021F050F8DD
:1039F00003F0A5FAA0602078401C207031BD03F0D0
:103A00009EFAA168401A01281ADD4FF6FF752B4671
:103A100054222C210120FFF74CFB2B4656222C214F
:103A20000120FFF746FB2B4658222C210120FFF7EF
:103A300040FB00202070607031BD0020607020705D
:103A400031BD38B5654CA1780246914227D0002897
:103A50001DD00121892021F01BF8012003F072FA0A
:103A60004FF6FF752B4654222C210120FFF721FB36
:103A70002B4656222C210120FFF71BFB2B465822F8
:103A80002C210120FFF715FB0120A07031BD002182
:103A9000892020F0FDFF002060702070A07031BDF3
:103AA0004E488078704710B54C4C6079002806D09D
:103AB00000206071E070207103F041FAE06010BDF9
:103AC00049324300657272006F6B000010B507F059
:103AD000FEF8002847D1414CA078002843D08D2023
:103AE00020F0C8FF0028207907D101280CD0012040
:103AF000207103F024FAE06006E0002804D00020E2
:103B0000207103F01CFAE06003F019FAE168401A32
:103B100040F22D11884223DB03F011FAE060207996
:103B2000E17881420BD0E070002801D121A300E0B0
:103B300021A300BF66A221A10820FFF723F8244992
:103B4000D1F8E820E078002804D122F48072C1F88E
:103B5000E82005E042F48072C1F8E820FFF7BBFEE0
:103B6000BDE8104021E710BD20D14A00F8B584B06F
:103B700005460E461F460A9C1548290001D144708F
:103B800000E08470002A0BD103F0D9F9039002946D
:103B9000019700962B46134A08A10220FEF7F2FF78
:103BA00005B0F0BD4CD14A007CD14A00A8D14A00F2
:103BB000D8D14A006F6B0000657272004932430031
:103BC0000CD24A003CD24A006CD24A00181C402059
:103BD000E4160020341C40209CD24A00241C4020C3
:103BE000CF33FFFFD0D24A0010B500210C2023F0C4
:103BF00017FC00210D2023F013FC00211B2023F0D3
:103C00000FFC00211C2023F00BFC002428E00121E4
:103C1000482020F03DFF0121492020F039FF0121FB
:103C20004F2020F035FF0121502020F031FF4FF4CC
:103C3000487003F092F90021482020F029FF00216C
:103C4000492020F025FF00214F2020F021FF0021F6
:103C5000502020F01DFF4FF4487003F07EF9641CE3
:103C6000092CD4D30121482020F012FF0121492042
:103C700020F00EFF01214F2020F00AFF01215020EB
:103C800020F006FF01210C2023F0CAFB01210D20AA
:103C900023F0C6FB07211B2023F0C2FB07211C20B9
:103CA000BDE8104023F0BCBB43616D6572614944BF
:103CB000206669782072696768742121210D0A00E5
:103CC000B42CDEC2424C20494E543A25640D0A0001
:103CD0004261636B4C69676874207374617465201A
:103CE00025730D0A0000000038B50024DFF84855A0
:103CF000FE2128460AF0E1FEDFF84035B3F8401017
:103D0000884205D0FE22294618460BF044F90446A5
:103D10002046C0B2401E8041C00F32BD10B5DFF852
:103D2000184500224FF480712046FDF7B3FE04F1E0
:103D300039000021C1700121017141710021017020
:103D40000121417081700F2204F160010FF238509F
:103D500009F0F5FCFF22112104F12800FDF79AFE7D
:103D6000FF220E2104F11A0003F0AEF901234FF6F1
:103D7000FF72FE2120460BF00FFAA4F8FE0010BDE2
:103D800070B5C0B0DFF8B444DFF8AC54FE22294669
:103D900020460BF013F9FE2128460AF08EFEB4F8F7
:103DA0004010884245D02A464FF48071DFF89004D5
:103DB0000BF02AFB6A464FF48071DFF888040BF0A1
:103DC00023FB4FF6FF7601233246FE2128460BF0F7
:103DD000E3F9B5F8FE10884213D001233246FE21E4
:103DE00068460BF0D9F9BDF8FE10884202D0FFF703
:103DF00095FF0CE04FF480726946284603F020F9E5
:103E000005E001233246FE2168460BF0C5F9DFF8D4
:103E100038644FF4803130460BF008FA4FF480726A
:103E2000314620460AF074FFFE22294620460BF058
:103E3000B2F840B070BD4FF48072DFF80C14DFF8B8
:103E4000FC030AF065BF80B5FFF7F5FFBDE8014050
:103E500096E710B5DFF8E043002215212046FDF774
:103E600019FE0020E0822083FF22112104F12800A6
:103E7000FDF710FE04F13C000021017001214170AA
:103E800081700022112104F13F0003F01DF9FF228F
:103E9000102104F15000FDF7FDFD0020024603E073
:103EA000214481F86F20401C0146C9B20229F7DB8A
:103EB00001234FF6FF72FE2120460BF06DF9A4F8A6
:103EC000FE00BDE810400FE780B501461522DFF87F
:103ED000680303F0A5F8BDE8014005E71522DFF807
:103EE000581303F09DB8DFF85003C08A7047DFF81D
:103EF0004803008B704780B501460F22DFF84C0362
:103F000003F08EF8BDE80140EEE60F22DFF83C1327
:103F100003F086B880B501460E22DFF8340303F0C3
:103F20007FF8BDE80140DFE60E22DFF8241303F03E
:103F300077B880B501461122C64803F071F8BDE894
:103F40000140D1E61122C34903F06AB880B50146A9
:103F50000322C14803F064F8BDE80140C4E603222F
:103F6000BD4903F05DB880B501460322BB4803F0AC
:103F700057F8BDE80140B7E60322B84903F050B84E
:103F800080B501461122B64803F04AF8BDE8014069
:103F9000AAE61122B24903F043B880B501461022C7
:103FA000B04803F03DF8BDE801409DE61022AD4960
:103FB00003F036B8022801DB002070479E4A104407
:103FC00080F86F1090E6022804DA9B4A104490F8BB
:103FD0006F00087070479849496F016070479649B3
:103FE0004A6F801848677047934981F878007BE6EC
:103FF000914991F87820652A02DB322281F87820F5
:1040000091F87810017070478B4981F879006BE660
:10401000894991F8791001707047874981F87A00D1
:1040200062E6854991F87A1001707047824981F8FB
:104030007B0059E6804991F87B10017070477E49FA
:1040400081F87C0050E67C4991F87C100170704743
:10405000794890F87D10FF2902D0491C80F87D1026
:1040600042E6754991F87D00002801D10120704792
:10407000002081F87D0037E66F4890F87D100A46F1
:10408000042A00DB002180F87D1090F87D00704745
:1040900070B5ADF5805D0024734D01234FF6FF72BE
:1040A00040F6FE7128460BF077F8A5F8FE0F6A4639
:1040B0004FF480514FF498000BF0A6F94FF4805262
:1040C0006946284602F078FF002809D04FF4805254
:1040D00029464FF498000BF0B7F9002800D00124CE
:1040E000624E6A464FF4805130460BF08DF94FF422
:1040F00080526946284602F05FFF002808D04FF43E
:104100008052294630460BF09FF9002800D0641CED
:104110002046C0B2401E8041C00F0DF5805D70BDCD
:1041200010B5514C00224FF480512046FDF7B2FCEF
:1041300001234FF6FF7240F6FE7120460BF02CF87B
:10414000A4F8FE0F10BD70B5ADF5805D464C22465B
:104150004FF480514FF498000BF056F96A464FF433
:10416000805142480BF050F940F6FE754FF6FF764D
:1041700001233246294620460BF00EF8B4F8FE1F04
:10418000884213D001233246294668460BF004F8D2
:10419000BDF8FE1F884202D0FFF7C2FF0CE04FF4CB
:1041A00080526946204602F04BFF05E0012332466B
:1041B000294668460AF0F0FF0DF5805D70BDC2E744
:1041C0001CB50DF101026946002000F0DDFA284C13
:1041D0002078012813D107F0BFFD002803D19DF8F6
:1041E0000000022806D002F0AAFE6168401A2149A8
:1041F000884207DB0020207000F005F813BD02F0B4
:104200009EFE606013BD43E7F8B50C4615461E469A
:10421000002732462946204602F0CEFE002808D06C
:1042200032462946204602F0FBFE01201049087064
:1042300000E05A273846F2BD401C4020401D402077
:1042400000C04B0000E04B0000404C00A01C402090
:104250005A1C4020681C4020791C40207C1C4020B7
:104260007F1C4020901C40200C42002000204C006D
:10427000A81E4020C127090080B5084611461A46ED
:1042800002F0CEFE002002BD4C41432D37303033CA
:104290003030333100000000C0F3C75181B1FF2935
:1042A00006D0C110400721F0E04101F16051704794
:1042B00041020CBF40F4E0016FF000410020704764
:1042C00000F0004100020AD0B0FA80FC00FA0CF0C5
:1042D00001F16051A1EB0C5101EBD0214005704779
:1042E00000B551EC100B00F003F841EC100B00BDD1
:1042F00040F2FF7C1CEA115240F2FE33D21A18DD64
:10430000352A1FDAB2F1150309DA6FEA4C53D340AC
:10431000094201D4401E59410020994370476FF073
:104320000002DA40094202D4801851F100019043A2
:10433000704750EA41021CBF591C090528BF4FF0C5
:104340000041002070470000C1F30A5340F21E42B2
:10435000D31A0CDDCA0283F3070342EA505242F03B
:104360000042DA4002EBE17282EAE17070476FEAE4
:10437000E17203F2E13008B182F0004070470000C2
:104380000178112900D0704710B4417822292BD12F
:104390008178332928D1C178442925D1027A114660
:1043A000090902F00F02437A1846000903F00F03CF
:1043B000092919DC092A17DC092815DC092B13DC6B
:1043C0004FF47A7411FB04F1642412FB041100EB26
:1043D000800201EB42015B18444843801946491EA4
:1043E0008941C943C90F017010BC7047404991F819
:1043F0002901022800D0704710B53C4A10780028E7
:1044000017D1C878642802D14FF4804412E03728CD
:1044100002D141F6E8440DE0232802D140F61C44C5
:1044200008E0192802D140F2145403E04FF480440C
:1044300000E0548820000AD04FF48041022023F08D
:10444000E5FC21460320BDE8104023F0DFBC10BD91
:1044500010B54FF48041002023F0D8FC4FF4804188
:10446000022023F0D3FC4FF48041032023F0CEFC44
:104470004FF48041052023F0C9FC0221084623F0B7
:10448000FAFC1B4CA07CE0706420A0740021052085
:1044900023F0BCFC0021062020F0FAFA0121832041
:1044A00020F0F6FA532084F8240110BD1049097851
:1044B000032900D0704780B50146022906D10122A8
:1044C0000C210C48BDE8084024F0A0B801280BD10D
:1044D00000220C21074824F099F84FF48041032072
:1044E000BDE8044023F092BC01BD0000142440202C
:1044F000E416002000C00840F8B5DFF8A45705F125
:104500003406306100205FE0002068615AE03069C5
:10451000046800202871012068710020A871012022
:10452000B072F0720020308030730246082105F12D
:104530002000FDF7AFFA0022082105F1360002F055
:10454000C3FD0022082105F12800FDF7A3FA05F1BB
:104550002001204600F0A8FA0746204600F0AAFAFB
:1045600001460022384602F0AFFD05F13601204633
:1045700000F09AFA0746204600F09CFA0022014615
:10458000384602F0A1FD04F128000178FF2908D087
:10459000A27805F120035A54A17805F13602037878
:1045A000D1544178FF2908D0002205F120035A5444
:1045B000114605F136024378D15480680028A3D013
:1045C00000206861E86101200028A0D00020287048
:1045D000F1BD38B5DFF8C8164B6C5A68145C01EBB6
:1045E0008410011D00250878002808D12A46186883
:1045F000C4EB041300EB830000F0AEFA00E00125E9
:10460000284632BD80B5DFF898164A6C53681B5CAB
:104610001068C3EB031200EB820001EB8311091D4C
:1046200001228A700A78002A0CD190F82920FF2AEA
:1046300004D00A44137F43F010031377012200F0E3
:104640008BFA1EE0012A0CD190F82920FF2A04D011
:104650000A44137F43F010031377012200F044FA59
:104660000FE0032A0DD14A78032A0AD190F82920B5
:10467000FF2A04D00A44137F43F01003137700F09D
:10468000D2FA002002BD10B50024DFF814164A6CDF
:104690005368185C1268C0EB001302EB830201EB55
:1046A0008010011D91F83A00002800D1012420005B
:1046B0000AD1002088700878032805D1487804289A
:1046C00002D1104600F0A5FA204610BD0146002098
:1046D000DFF8CC25536C5B68595C02EB8111091D36
:1046E0000A78032A00D00120020002D1002281F8BA
:1046F0003A20704710B40021DFF8A425536C5C68A1
:10470000205C121D02EB80121B68C0EB001403EB4F
:1047100084031078032800D00121080011D192F8F9
:104720003A00002800D0012108000AD19C6958688D
:10473000041914619C68586804195460012082F8B7
:104740003A00084610BC70470021DFF8542502EB00
:10475000801080F83F10084670470121DFF840259F
:1047600002EB801080F83F1000207047DFF8301512
:1047700001EB801090F83F007047DFF8241501EB43
:10478000801090F83E00704710B4DFF81445636C59
:10479000002B01D1012009E05B68185C04EB80105C
:1047A000001D43780B7000781070002010BC70471B
:1047B000DFF8EC24516C002901D1002070474968D2
:1047C000085C02EB801040797047DFF8D424516C0C
:1047D000002901D1002070474968085C02EB801075
:1047E00000797047DFF8B8144A6C5268105C01EB2E
:1047F000801090F83400704710B5DFF8A444606C66
:10480000006894F83510032906D1008F0AF03AFEAB
:10481000002084F8350005E02179032902D1211D0B
:1048200000F033FA0020E06110BDF8B5DFF8702425
:10483000536C1B68C0EB001403EB840402EB801084
:10484000051D04F124063268096805F1240002F010
:10485000E7FB00277079FF2804D005F124010F5CE5
:1048600007F001072878002804D129462046BDE832
:10487000F44099E1012805D1002229462046BDE8EF
:10488000F84031E1032814D12946204600F0FDF913
:10489000002F0ED06878032804D129462046BDE8B1
:1048A000F440E1E1042804D129462046BDE8F44063
:1048B0009EE1F1BD38B50020DFF8E4432CE001288B
:1048C00029D1211D284600F06EF824E0606C0568AF
:1048D00020790328F3D16079052803D1211D2846CA
:1048E00000F050F8211D284600F06AF894F83E00C8
:1048F000002803D0211D284600F022F86079052801
:1049000001D0042807D194F83E00002803D0211DCF
:10491000284600F066F801200028D7D031BDDFF826
:1049200080134A6C5368185C1268C0EB001302EBEA
:10493000830292F8342001EB801080F84020704709
:104940004A68436893421AD300224A604A78052A8B
:1049500003D1002281F8312028E1042A03D100226A
:1049600081F831205CE1032A0BD190F82920FF2A3D
:1049700004D00A44137F03F0EF03137760E1D21AE7
:104980004A6070478A684368934209D300228A606C
:104990004A78052A06D18A78002A00D018E108E171
:1049A000D21A8A607047CA684368934205D30022CE
:1049B000CA600A78012A02D1BEE0D21ACA607047E2
:1049C00010B50C46A16900290AD042688A4205D375
:1049D000407800F063F90020A06110BD891AA16140
:1049E00010BD0A694368934209D391F83020012A27
:1049F00002D1C36A0B6101E042690A6102E0D21A86
:104A00000A617047F8B584B004460D4601210026BE
:104A100005F11C000290606A039005F13007B87A36
:104A2000002800D13146002930D0787800282DD1D7
:104A30000120787005F11C01204600F035F8009047
:104A4000204600F037F801906946208F0AF033FDC8
:104A5000E069A861F87A012804D102A9208C09F044
:104A6000DCF80646002E02D1208F0AF00BFD3878C4
:104A7000012809D1E86A401CE862216B884203D111
:104A800000203870606928610020787005B0F0BDA2
:104A90000146002028310A78FF2A00D001204978F9
:104AA000FF2900D0401C704710B50C46FFF7F0FFFF
:104AB000204410BD10B50446FFF7EAFF616A081AEA
:104AC00010BD90F82920FF2A0DD00A44137F03F06F
:104AD000FE03137790F82900084490F8321001F093
:104AE000FE0180F83210704710B5044603200870AC
:104AF00005204870206B002808D0002A06D000202E
:104B00000861C862012081F8300003E0A269606892
:104B100082180A61E268606882188A60A268606828
:104B200082184A60607800F0B7F8052202216078A8
:104B3000BDE810400AF00ABD10B504460020087018
:104B400001204870607800F0A6F801220221607808
:104B5000BDE810400AF0FABC10B504460320087006
:104B600005204870206B002808D0002A06D00020BD
:104B70000861C862012081F8300003E0A269606822
:104B800082180A61A268606882184A60E2686068F8
:104B900082188A60607800F07FF805220121607831
:104BA000BDE810400AF0D2BC407873E080684860ED
:104BB000704710B504460320087048702046FFF780
:104BC00080FF032205216078BDE810400AF0BEBCDA
:104BD00010B5044603200870042048702046FFF7F3
:104BE00070FF042205216078BDE810400AF0AEBCD9
:104BF00003220A7005224A70C3684268D3188B608A
:104C000083694268D3180B610522042140780AF0B9
:104C10009DBC03220A704A70042140780AF096BCB9
:104C200080684860704703220A7004224A708369D2
:104C30004268D3180B610422032140780AF086BC35
:104C400010B5044601200870022048702069C86031
:104C500000208861607800F020F80222032160784B
:104C6000BDE810400AF072BC03220A7005224A70A7
:104C7000C3684268D3188B6083694268D3180B619C
:104C80000522032140780AF061BC826840688218DE
:104C90004A60704770477047704770477047000020
:104CA0004C2E40207047010009D4012200F01F0063
:104CB00002FA00F0DFF8C82A490942F821007047DB
:104CC00010B5042408E02046C0B222F025FB20469F
:104CD00000B2FFF7E8FF641C204600B2C528F2DBF3
:104CE00010BD000010B5DFF89C4A22F080FA207059
:104CF00094F8003003A2C6A10420BDE81040FDF7DF
:104D000041BF000053797374656D205265736574FB
:104D100020736F757263653A2025640D0A000000E8
:104D2000DFF8600A0078704738B5DFF85C0A04687D
:104D3000B7A5DFF8382C29460820FDF723FF6007C8
:104D400005D500BF0BA229460820FDF71BFFA007D1
:104D500005D500BF0EA229460820FDF713FFE00786
:104D600007D500BF11A229460820BDE83840FDF74D
:104D700009BF31BD77616B65207570206279206352
:104D8000616E305F72782070696E200D0A0000003D
:104D900077616B652075702062792063616E315F89
:104DA00072782070696E200D0A00000077616B65D3
:104DB000207570206279204143432070696E200D78
:104DC0000A0000002DE9F04F9BB000208DF856003E
:104DD0008DF85F0001208DF8550000208DF85400FB
:104DE0000DF155000AF07FFD15A80AF061FD0DF1E7
:104DF0005F020DF156010020FFF7C6FC0BF0F3F93E
:104E00008DF85E000BF000FA8DF85D000BF01FFBD3
:104E10008DF85C009DF856000AF01AFC1A9001F01B
:104E200027FF01F007FF1990002009F0A0F90128E1
:104E300001D18EA407E0002009F099F9022801D1E0
:104E4000BAA400E0BAA405F0BFF98DF85B0006F043
:104E500075FF8DF85A0007F0D3FD8DF8590000F06A
:104E600095FC8DF8580000F095FB8DF8570005F083
:104E700092FE189000F0E4F9054600F098F9064615
:104E8000B60906F0010600F092F907463F0A07F05E
:104E9000010700F012FAB0F1010868EB08084FEAC8
:104EA000D87800F084F9814600F081F9824600F05C
:104EB0007EF98346FFF734FF03469DF85E001490A9
:104EC0009DF85D0013909DF8540012909DF85500D8
:104ED00011909DF85C0010901A980F9019980E9000
:104EE0000D949DF85B000C909DF85A000B909DF876
:104EF00059000A909DF8580009909DF857000890B5
:104F000018980790069505960497CDF80C804FEAFF
:104F1000591909F00109CDF808904FEADA0A0AF0A8
:104F2000010ACDF804A04FEA5B0B0BF0010BCDF8A2
:104F300000B0DFF8482A36A18020FDF723FE1BB021
:104F4000BDE8F08FDFF84008002181608174416185
:104F50000183C161C160EDE118B589B062B60BF0A3
:104F60008DFA0BF00DFB0BF028FC09F06DFC07A887
:104F70000BF04CFC26A40FF6642221460820FDF716
:104F800001FE9DF8230006909DF8220005909DF8F3
:104F9000210004909DF8200003909DF81F000290CE
:104FA0009DF81E0001909DF81D0000909DF81C309A
:104FB000DFF8CC2921460820FDF7E4FDFEF743FF8A
:104FC000FFF770FEFFF7BEFF05F0D9F9DFF8B8076D
:104FD00090F82100002802D1FFF784FE03E00328A7
:104FE00001D1FFF7A1FE00200AB010BD80B5FFF788
:104FF000A9FF01F0E0FF0BF0C4FA05F0C7F90020AB
:1050000008F027FC09F02AFCBDE801400BF022BCA7
:105010007379730001280FD0022810D0082811D00E
:10502000102812D0202812D0402812D0802813D067
:10503000B0F5807F13D015E00FF6A81070470FF67B
:10504000AC1070470FF6AC107047B0A07047B8A016
:1050500070470FF6A81070470FF6A81070470FF6AC
:10506000AC1070470FF6B010704700004E6F720022
:105070002DE9FC4104460AF00CFB04F00100444019
:10508000DFF80457A86820424BD1DFF8F86806F132
:10509000BC07DFF8F4180878002811D1202C02D1C1
:1050A0000220087006E0022C02D10120087001E005
:1050B000032008700020B862B86F20F48060B867E1
:1050C00001F03DFF80462046FFF7A4FF0346CDF8E0
:1050D00000800FF65012B5A10420FDF753FD3C628D
:1050E000A8682043A860DFF8A408006838600020A2
:1050F000F0730AF013FB202C0CD1B86A022809D0F7
:105100000120B862707F012804D140F29311012080
:10511000FCF79AFA022C04D1B86A022801D00120C7
:10512000B8622046BDE8F6410AF030BB6F66660003
:10513000756E6B007CB50446DFF84C56A8682040BD
:10514000A04233D101F0FBFE06462046FFF762FF86
:10515000034600960FF6E80294A10420FDF712FD25
:10516000A868A043A8600AF0D9FA202C1ED100201C
:10517000ADF800000DF101026946FFF705FB9DF84F
:10518000000004280BD1DFF8FC07D0F8DC00202851
:105190000CD14FF4DF710220FCF756FA73BD0328DF
:1051A00004D040F2C5110220FCF74EFA73BDDFF8BF
:1051B000D805806870473EB5FFF7F9FF0446DFF871
:1051C000C8556869844212D0FFF7F1FF401E804144
:1051D000C043C00FA8746C6105218DF800108DF8D4
:1051E0000400686902906946002004F06DFF37BD35
:1051F0001FB5DFF8944505F0CBFCE06105F05AFCE3
:10520000E168642902D27820E0610320217E024611
:105210000B469A420FD06176207606208DF800006A
:105220008DF80410207E8DF80500E0690290694633
:10523000002004F049FF1FBDDFF84C05007E7047D9
:10524000DFF84405C0697047042813D8DFE800F090
:105250000306090C0F000FF6040070470FF6040058
:1052600070470FF6080070470FF6100070470FF6F2
:1052700014007047BEA07047F8B50446DFF8085523
:1052800095F8206030462146884210D02046FFF72E
:10529000DBFF07463046FFF7D7FF034600970FF2C4
:1052A000EC7242A10820FDF76DFC85F82040F1BDAD
:1052B000DFF8D40490F82000704710B5DFF8D0462E
:1052C000A078002805D101F0D3FC012801D10120EC
:1052D00010BD0120A0706D201FF0CCFB014622788C
:1052E000914203D0207001F02AFE606001F027FE99
:1052F0006168401A062807DB20786178814203D074
:10530000607001F01CFE6060607810BD504E43007C
:10531000DFF87404008A40F2DC51884201DA002090
:10532000704701207047DFF86004008A7047000072
:1053300041434300DFF85014088A002800D1704729
:1053400080B50020088201F0FAFD03460FF2587282
:1053500016A10420BDE80050FDF714BC10B5DFF81D
:105360002844208A4FF6FF7188421DD0002808D1BA
:1053700001F0E5FD03460FF240720CA10420FDF799
:1053800001FC208A401C208240F2DC5180B288421D
:105390000AD101F0D4FD03460FF22C7203A10420C0
:1053A000BDE81040FDF7EEBB10BD0000737973003F
:1053B00010B5DFF8D443608C4FF6FF71884201D0FE
:1053C000401C6084E068884201D2401CE060FFF726
:1053D000EEFE800603D4FFF7EAFEC00502D5FFF714
:1053E000BDFF01E0FFF7A6FF206B401C2063FFF725
:1053F0005FFF042803D0FFF75BFF012805D105F00C
:1054000003FC00F0C7F800F0C1F9FFF751FF0028D6
:1054100007D0FFF74DFF012803D0BDE8104005F08D
:10542000C3BB10BD80B5FFF743FF042807D0FFF7CB
:105430003FFF012803D0FFF740FF002806D10BF003
:1054400012FAFFF7B8FEBDE80140D1E601BD002821
:1054500006D10878012803D10020CB4981F821002A
:105460007047002901D011207047112070470000BB
:105470003EB5FFF71DFF0446FFF71AFF042860D86A
:10548000DFE800F003075F411F000120FFF7F4FE93
:105490005AE0FFF761FD002802D00320FFF7ECFE81
:1054A00002208DF800006946002004F00DFEDFF8B0
:1054B000E424B2A10820FDF765FB0420FFF7DCFE21
:1054C00042E0B148418CB1F57A7F03DB0021418491
:1054D000FFF778FCFEF774FE04F0B7FD002833D028
:1054E0000BF0C1F90FF2F852A4A10820FDF74AFB16
:1054F0000320FFF7C1FE03208DF80000694600205D
:1055000004F0E2FD20E00BF0AEF9DFF88C249BA163
:105510000820FDF737FB002008F04EFA00216E202E
:105520001FF0B6FA01F00BFD0546FFF7C6FE002896
:1055300004D001F004FD401B1A28F6DB21F046FBE5
:1055400002E00020FFF798FE2546FFF7B1FE8542F6
:1055500004D08D4880F8214000214184FFF7ADFE42
:10556000002802D12020FFF783FD09F0DDF937BDC7
:105570004D61780080B50020FFF71AF9012807D1A6
:1055800001F0DDFC40F6B931884201DB012002BDAB
:10559000002002BD38B584B0DFF800442078002830
:1055A00042D002287BD080F0B48005F0F1FAB52813
:1055B00016D36078022800F0B28001F0C0FC0546E6
:1055C00005F0E6FA00950346DFF8D4236BA104202A
:1055D000FDF7D8FA0220607001F0B1FC60609EE037
:1055E00005F0D6FA5028607815D3002800F097808F
:1055F00001F0A5FC054605F0CBFA03460095DFF85F
:10560000A4235EA10420FDF7BDFA0020607001F024
:1056100096FC606083E0012800F0818001206070CA
:1056200001F08DFC60607AE005F0B2FAB92815D37C
:105630006078022873D001F082FC054605F0A8FAD4
:1056400000950346DFF860234CA10420FDF79AFA89
:105650000220607001F073FC606060E005F098FA71
:105660004C28607807D3002859D00020607001F0E2
:1056700066FC606053E0012851D001F060FC0546F3
:1056800005F086FA00950346C84A3CA10420FDF7C0
:1056900079FA0120607001F052FC60603FE005F093
:1056A00077FA502814D26078012838D001F047FCEE
:1056B000054605F06DFA00950346BD4A2FA104206A
:1056C000FDF760FA0120607001F039FC606026E0AF
:1056D00005F05EFAB528607813D200281FD001F0DB
:1056E0002EFC054605F054FA00950346B14A23A165
:1056F0000420FDF747FA0020607001F020FC606094
:105700000DE002280BD00220607001F018FC6060F0
:1057100005E000202070607001F011FC606001F075
:105720000EFC6168401A40F2D171884223DB607838
:10573000217888421FD001F002FC606001F0FFFB7D
:10574000054605F025FA01466078002801D188A2B7
:1057500005E0012801D187A201E00FF29C320395F8
:105760000291019200902378934A04A10420FDF74E
:1057700009FA60782070207805B030BD7379730025
:1057800080E200E03C344020B400402038B584B0D2
:105790008A4C2078002840D0022878D080F0B18050
:1057A00005F0F6F9BA2815D36078022800F0AF802A
:1057B00001F0C5FB054605F0EBF900950346804A6C
:1057C0006DA10420FDF7DEF90220607001F0B7FB47
:1057D00060609CE005F0DCF94B28607814D3002869
:1057E00000F0958001F0ABFB054605F0D1F90346CA
:1057F0000095744A60A10420FDF7C4F90020607090
:1058000001F09DFB606082E0012800F080800120B3
:10581000607001F094FB606079E005F0B9F9BE2892
:1058200014D36078022872D001F089FB054605F098
:10583000AFF900950346644A4FA10420FDF7A2F991
:105840000220607001F07BFB606060E005F0A0F971
:105850004728607807D3002859D00020607001F0F5
:105860006EFB606053E0012851D001F068FB0546F3
:1058700005F08EF900950346544A3FA10420FDF738
:1058800081F90120607001F05AFB60603FE005F093
:105890007FF94B2814D26078012838D001F04FFBF3
:1058A000054605F075F900950346494A32A10420E2
:1058B000FDF768F90120607001F041FB606026E0AF
:1058C00005F066F9BA28607813D200281FD001F0DD
:1058D00036FB054605F05CF9009503463D4A26A1D6
:1058E0000420FDF74FF90020607001F028FB606094
:1058F0000DE002280BD00220607001F020FB6060F8
:1059000005E000202070607001F019FB606001F07C
:1059100016FB6168401A40F2D171884223DB60783F
:10592000217888421FD001F00AFB606001F007FB7C
:10593000054605F02DF901466078002801D10CA23A
:1059400005E0012801D10BA201E000BF6AA2039586
:1059500002910192009023781F4A07A10420FDF7CD
:1059600011F960782070207805B030BD3CA34A0062
:105970006F6B00004C6F77007379730070A34A005F
:1059800030A44A00E416002029244020BC1E4020F8
:10599000F42C40206CA44A0098A44A00E80040205F
:1059A000D8A44A0000A54A0028A54A0050A54A00EC
:1059B00078A54A00A0A54A00C8A54A00F0004020EA
:1059C000F4A54A001CA64A0044A64A006CA64A0058
:1059D00094A64A00BCA64A00E4A64A000D0A0D0A95
:1059E0000D0A0000504F57455200000043414E4EF3
:1059F0004D00000044494147000000004445425525
:105A0000470000004255534F4646000053575F4140
:105A100043435F4F4E000000556E646566696E65D6
:105A20006400000053657457616B65757053726351
:105A3000203D2025732C543A25640D0A00000000F7
:105A4000436C65617257616B657570537263203D7D
:105A50002025732C543A25640D0A000052657365A5
:105A600074000000496E6974000000005072657097
:105A7000617261536C65657000000000536C656570
:105A800070000000576F726B696E67005379736224
:105A90006F6F742053746174653A202573202D3E16
:105AA0002025730D0A0000004947204F46462C541C
:105AB0003A25640D0A0000004947204F4E2C543A05
:105AC00025640D0A00000000312E357320616674D4
:105AD0006572204947204F4E2C543A25640D0A0028
:105AE000676F20746F20736C656570202121212001
:105AF0000D0A0D0A000000004869676800000000F8
:105B0000DFF8041C496809680968B0FBF1F07047C8
:105B10000246002003461278002A04D0012A04D14C
:105B200009680B7801E009684B7813F0F00306D0A0
:105B3000102B06D0202B06D0302B06D0704701202A
:105B40007047022070470320704704207047007898
:105B500000281ED001281ED1002000230B701268DF
:105B600002445078137803F00F0310EB03200FD199
:105B70009078D3781B0443EA0063107943EA00234A
:105B800050791843B0F5805F00D2002001220A70DE
:105B900070470120E1E700207047012101740021D6
:105BA000C1724180018041618161C1616430418085
:105BB00001704FF6FF71818070470121017400214F
:105BC000C1724180018041618161C1616430022103
:105BD00001704FF6FF71818070472DE9F84305464B
:105BE0000C4616461F46DDF820800020C8F800004D
:105BF000207C032806D004F11C026169A8880AF001
:105C000047FE09E0DFF8301C00204860086004F11E
:105C10001C02A8880AF036FE01001BD1DFF8189C90
:105C2000C9F80060E069B84208D3C9F8047004F10B
:105C30001C024946A8880AF025FE00E00220010067
:105C400008D1D9F80410C8F80010A269D9F80410D6
:105C50008A18A261BDE8F28303460020402A00D3DF
:105C6000704730B404E00C5C1D1885F82040401CDF
:105C70009042F8D31A66012030BC704778B4837C18
:105C8000012B39D140235468082C01D808232DE07A
:105C9000A4F10905032D01D20C2327E0A4F10C0582
:105CA000042D01D2102321E0A4F11005042D01D20E
:105CB00014231BE0A4F11405042D01D2182315E0D0
:105CC000A4F11805082D01D220230FE0A4F120052E
:105CD000102D01D2302309E0A4F13005102D05D993
:105CE000234603E0552516683555641C1D46EDB264
:105CF000AC42F7DBDBB253600389CB600123CB728C
:105D00001146408874BC07F088BF78B440235468BB
:105D1000082C01D8082328E0A4F10905032D01D29D
:105D20000C2322E0A4F10C05042D01D210231CE069
:105D3000A4F11005042D01D2142316E0A4F11405DA
:105D4000042D01D2182310E0A4F11805082D01D26A
:105D500020230AE0A4F12005102D01D2302304E015
:105D6000A4F13005102D00D92346857C012D0AD1E0
:105D700003E0552516683555641C1D46EDB2AC424E
:105D8000F7DBDBB253600389CB600123CB72114692
:105D9000008874BC07F041BFF8B592B004460D46C8
:105DA000002102A80090A079002803D1287A8DF85C
:105DB00008000121002A04D0022A25D0032A3FD05E
:105DC0004FE002A830220B46C254491CEA696B7CA2
:105DD000B2FBF3F2521CE3791E461746BFB2BE4235
:105DE00000D21A46AB720B46DBB2C254491CE38A9E
:105DF0000E46F6B283552A80491CC9B20191002093
:105E000005F1640148802CE002A831220B46C254FF
:105E1000491CEA696B7CB2FBF3F2521CAA720B4676
:105E2000DBB2C254491CE28A0B46DBB2C254491CA5
:105E3000C9B2019105F164004188491C418010E01C
:105E400002A832220B46C254491C49220B46DBB23F
:105E5000C254491CE28A0B46DBB2C254491CC9B287
:105E600001916A4629462046FFF708FF00280CD01A
:105E70000121A0880AF009FD0120287405F16400C1
:105E80004FF6FF7181800021017013B0F0BD2DE944
:105E9000FC4104461646002210460190A0790028D5
:105EA00007D1012230680078E3691B68984240F00E
:105EB000CF800D46287C032840F0CA806B7C716837
:105EC000994212D06F69A8693F1ABB420DD20121D5
:105ED000A0880AF0DAFC0120287405F164004FF66E
:105EE000FF71818000210170B2E0D6F800C0104639
:105EF0001CF8000000F00F00521CAB7803F00F03F9
:105F000098420DD00521A0880AF0BFFC012028741A
:105F100005F164004FF6FF7181800021017097E068
:105F20001046C0B2091AD5F81480A869A8EB000879
:105F30004746884500D90F4601A800903B46D2B29B
:105F4000624429462046FFF748FE012848D002282F
:105F500054D10021A279012A06D1B8F1070F01D846
:105F6000084606E0012004E0B8F1070F8041C04375
:105F7000C00F002800D001212888012830D1002935
:105F80002ED04FF00008012A0BD101983F1A3A4653
:105F9000306801990844411C2846FFF75DFE01283E
:105FA0000AD00120287405F164004FF6FF7181804A
:105FB000414601704FF00108B8F1000F48D16888E0
:105FC000401C68806089401C68600520287401209E
:105FD00085F86400022229462046FFF7DDFE37E0FF
:105FE0000121A0880AF051FC0120287405F1640009
:105FF0004FF6FF7181800021017029E0002827D130
:106000006869A969401A17D06888401C6880288888
:10601000002801D0401E28802888002808D1A87AAE
:10602000002805D0002229462046FFF7B5FE0FE0E4
:10603000A089401C68600BE00120287405F1640011
:106040004FF6FF71818000210170A0880AF01DFCCD
:10605000BDE8F381FEB504460D4695F8606005F194
:10606000200030440090C6F140016A69A869121A04
:10607000914200D91146019105F11C0300226946A5
:1060800060880AF008FC0746296E019841182966C5
:10609000A96901984118A961380012D105F12000C1
:1060A00000900198361801962089401C68600920EC
:1060B00028746A4629462046FFF727FE002800D0AC
:1060C00001273846FEBD38B505460C466088401CA1
:1060D000608001202066A879002801D10220206676
:1060E000A07800F00F002030216E2144C87720886E
:1060F000002801D0401E2080A069616988420DD32C
:10610000002168880AF0CDFB0120207404F16400AE
:106110004FF6FF7181800221017031BD2088002877
:1061200008D1A07A002805D06889401C606008204A
:10613000207431BD607A00281BD121462846FFF724
:1061400089FF002830D0022805D1A889401C606052
:106150000720207431BD012168880AF0A2FB0120CC
:10616000207404F164004FF6FF71818002210170F8
:1061700031BD0146802804DAFFF7C2FC401C606094
:1061800010E0F139092908D2F0380A2190FBF1F02A
:10619000FFF7B6FC401C606004E07F20FFF7B0FC16
:1061A000401C60600620207431BD38B50C460023C9
:1061B0008179002906D101231168097845692D6884
:1061C000A94241D1217C08293ED1591C1568EB5CBC
:1061D00013F00F0303D0022B1BD014D327E06B5C0A
:1061E000A3722380491C4B1C1268515C002902D108
:1061F0000121617201E0D15C61728089401C6060A4
:106200000720207431BD4089401C60600820207444
:1062100031BD0A2140880AF044FB0120207404F1BA
:1062200064004FF6FF7181800221017031BD0621AB
:1062300040880AF036FB0120207404F164004FF618
:10624000FF7181800221017031BD2DE9FE430746B7
:106250000E4615469846307C012812D0052810D0ED
:1062600004280ED00121DFF8D4084068406806F108
:106270006402928802EB820300EBC30000890AF0FB
:1062800004FBB879002808D128680078F969096802
:10629000884202D0FF2840F092803046FFF77DFC14
:1062A0002868B979012912D10478002C07D14478E3
:1062B000821C3F2C80F08380002C09D17FE004F009
:1062C0000F04421C082C7AD2002C01D177E0821CEA
:1062D000686808280ED00C280FD0102812D0142877
:1062E00015D0182818D020281BD030281ED04028C0
:1062F00021D064E0082C22D361E0A4F10800032837
:106300001DD35CE0A4F10B00042818D357E0A4F1DE
:106310000F00042813D352E0A4F1130004280ED375
:106320004DE0A4F11700082809D348E0A4F11F00AC
:10633000102804D343E0A4F12F0010283FD2746149
:106340000220307406F16409012089F80000788980
:10635000401C7060A9F8048001A8009023463146D3
:106360003846FFF73AFC00280DD10021B8880AF022
:106370008CFA012030744FF6FF70A9F80400002059
:1063800089F800001BE0022810D12868B97901299A
:1063900001D1411C00E0811C22463046FFF75CFC25
:1063A00004203074012089F8000008E001203074D6
:1063B0004FF6FF70A9F80400002089F80000BDE83E
:1063C000F7832DE9FF4106460F4614469846002004
:1063D0008DF804006068412880F0E580B0790028DD
:1063E00006D120680078F1690968884240F0DB80B6
:1063F000387C012812D0052810D004280ED00121A5
:10640000DFF838074068406807F16402928802EBC1
:10641000820300EBC30000890AF037FA3846FFF721
:10642000BCFB224601A9B01DFFF791FB01460829DC
:10643000C0F0B980B07901289DF804000AD1002885
:10644000606803D1801E88420FD3ACE0801F884271
:106450000BD3A8E00028606803D1C01E884204D393
:10646000A1E0C01F884280F09E80606878747961E6
:1064700007F16405A5F804800120788002203874B3
:106480000120287070897860B079012816D19DF8B4
:106490000400002802A80090636807D19B1E2068B2
:1064A000821C39463046FFF798FB20E09B1F20688E
:1064B000821D39463046FFF790FB18E0B06900684E
:1064C00038729DF80400002802A80090636807D184
:1064D000DB1E2068C21C39463046FFF77EFB06E013
:1064E000DB1F2068C21D39463046FFF776FB0100EE
:1064F0000CD1B089401C78600320387401202870CA
:10650000002239463046FFF747FC4CE0022932D1E1
:10651000B07901289DF8040010D10028626806D1E6
:10652000921E2068811C3846FFF796FB16E0921FEA
:106530002068811D3846FFF78FFB0FE00028626856
:1065400006D1D21E2068C11C3846FFF785FB05E046
:10655000D21F2068C11D3846FFF77EFB7089401CA2
:1065600078600520387401202870022239463046B0
:10657000FFF712FC17E003290CD1032239463046FD
:10658000FFF70AFC012038744FF6FF70A880002046
:10659000287008E0012806D1012038744FF6FF70FA
:1065A000A88000202870BDE8FF81024600204B69CA
:1065B0009179002906D13F2B06D3D17C012909D13D
:1065C000022070473F2B01D801207047D17C012960
:1065D00000D10220704770B500244B4A53689A6876
:1065E000921C00EB40056800125A4FF6FF70824281
:1065F0006BD05868001D134603EB830510EBC505EF
