:020000040048B2
:10000000A55AA55A010000000000000000084800A1
:100010000000000000084800000000000008480040
:1000200000000000000000000000000000000000D0
:10003000FFFFFFFFFFFFFFFFFFFFFFFFFFFFFFFFD0
:10004000FFFFFFFFFFFFFFFFFFFFFFFFFFFFFFFFC0
:10005000FFFFFFFFFFFFFFFFFFFFFFFFFFFFFFFFB0
:1008000000000120B10C48006F3C4A006DC1480057
:100810007B784A0003994A0003A94A0000000000BF
:1008200000000000000000000000000063B84A0063
:10083000B3E34A00000000006BE54A004F7C48002B
:1008400043EB4A0043EB4A0043EB4A0043EB4A00C8
:1008500043EB4A0043EB4A0043EB4A0043EB4A00B8
:1008600043EB4A0043EB4A0043EB4A0043EB4A00A8
:1008700043EB4A0043EB4A0043EB4A0043EB4A0098
:100C000043EB4A0043EB4A000000000000000000F4
:100C1000090000006C2C402094B24B0014BA4B0029
:100C2000EC33402014BA4B0000BB4B00D8344020BA
:100C30000CBB4B000CBB4B000040402000BB4B00EA
:100C40000CBB4B001A4640200CBB4B000CBB4B00AE
:100C5000007C40200CBB4B000CBB4B000000002074
:100C600000084800080C480008040020CC9F4B00F6
:100C700094B24B00000000000CBB4B000CBB4B00BF
:100C80000400000000004020C3244020C424402071
:100C90006C2C4020404040201A46402000000000BC
:100CA0000000000000BF00BF00BF00BFFAE7000067
:100CB00072B6002100220023002400250026002710
:100CC000B846B946BA46BB46BC464FF06400013848
:100CD0000028FCDC49480168494A01EA0201002970
:100CE00017D148480168464A41EA02010160464876
:100CF0000168012241EA020101604448444901605F
:100D0000444901603D4801683D4A01EA0201002969
:100D1000F8D04148414901604149086820F0040089
:100D200040F0010008603F49086820F0040040F0EE
:100D3000010008603C4880F308883C4801680020B6
:100D4000814200D028E03A483A4901603A490160BE
:100D50003A483B49016008E03A4836490160364963
:100D60000160394836490160FFE73848002813D050
:100D700037480168012201EA0201002902D0354901
:100D8000354A01E03549344A521A013A04DD00205F
:100D9000002309C1083AFCDA3148002809D031495A
:100DA000314A521A013A04DD0020002309C1083AF1
:100DB000FCDA2E48002809D02D492E4A521A013A51
:100DC00004DD0020002309C1083AFCDA2A48006843
:100DD0002A498842FAD0154801680020814202D091
:100DE0002EF035FD01E02EF0D1FC1FF05BFD62B668
:100DF0001FF050FD0BF090F900BFFEE710C32D402F
:100E00000000000130C32D4004C32D4000C02D4020
:100E1000F05A00000FA5000008ED00E000000020DF
:100E200094EF00E090EF00E0000001200400264075
:100E30001000274020C5000028D9000000002740EE
:100E4000400000FF10C0464000C0464001000000C6
:100E500000C02840000040200080402000004020CA
:100E6000010000000000002000000120010000003F
:100E70000000000000800000582C40205A5A5A5AA6
:100E80002DE9F8430600002463220020DFF8C05B50
:100E900055F82200B04203D255F8226000E002006B
:100EA00055F82200B04205D3A0184008A04201D056
:100EB00090420FD155F82400864211D1DFF8940BEF
:100EC0000473DFF8941B01EBC40190F8EC0031F8D7
:100ED0001000A9E055F82010B142E0D20400DFE78D
:100EE00055F8220086420BD1DFF8680B0273DFF859
:100EF000681B01EBC20190F8EC0031F8100093E0A0
:100F000055F8220055F82410401A002802D15FF04D
:100F1000000816E0DFF8403BDFF8381B03EBC202A5
:100F200091F8EC7032F8172003EBC40391F8EC1041
:100F300033F81110521A55F82410711A4A43B2FBB3
:100F4000F0F8DFF8107B387B002809D0DFF8A89B89
:100F5000387B99F80010401A00F012FE032815DBC8
:100F6000DFF8F40A00EBC40097F8EC1030F9110038
:100F700018EB00083C73387BDFF87C1B0870DFF847
:100F80007C0BA0F80080404680B24DE0387BA04248
:100F900025D2387B55F82000397B55F8211010EB0D
:100FA0001110864214D3DFF8B00A00EBC40097F8A2
:100FB000EC1030F9110018EB00083C73387B89F80D
:100FC0000000DFF8380BA0F80080404680B22BE02C
:100FD00099F800003873DFF8240B008824E0387B90
:100FE00055F82000397B55F82110B0EB11108642DE
:100FF00014D2DFF8640A00EBC40097F8EC1030F963
:10100000110018EB00083C73387B89F80000DFF80A
:10101000EC0AA0F80080404680B205E099F8000094
:101020003873DFF8D80A0088BDE8F2832DE9F8416B
:1010300085B004000D0017001E00002001A810213B
:1010400000F0A2FD04210022E846404600F0ACFD7D
:101050008DF8007030008DF80200B6B2360A8DF8B7
:101060000160EDB2ADF804500320ADF80A00002095
:101070008DF80C006846049001A92000C0B226F04B
:10108000B5FAC0B206B0BDE8F0812DE9F84185B0EF
:1010900004000D0017001E00002001A8102100F020
:1010A00073FD04210022E846404600F07DFD8DF8E6
:1010B0000070ADF804500120ADF80A0000208DF852
:1010C0000C0001208DF809006846049001A9200059
:1010D000C0B226F08BFAADF804500220ADF80A0039
:1010E00001208DF80C0000208DF80900684604905E
:1010F00001A92000C0B226F079FA30709DF80100F5
:101100009DF8001050EA012080B206B0BDE8F081E1
:1011100070B5DFF84069B6F886001421484300F046
:1011200077FD0022DFF8D83900F084FD04000D00BF
:10113000B6F888000621484300F06AFD0022DFF877
:10114000C43900F077FD22002B0000F049FE00F0CA
:1011500077FFC6F8AC00D6F8AC0040F215518842D3
:1011600002D3002086F8EC00D6F8AC0040F24C41E7
:10117000884202D2012086F8EC00DFF88C09017861
:1011800096F8EC20914234D096F8EC100170F07A89
:1011900002282ED196F8EC00002815D0282096F8C9
:1011A000F31041430A2291FBF2F1A6F8FA10317BC9
:1011B000C90342F2107291FBF2F111FB00F189B206
:1011C00004202EF01DF914E0532096F8F31041434B
:1011D0000A2291FBF2F1A6F8FA10317BC90342F220
:1011E000107291FBF2F111FB00F189B204202EF094
:1011F00007F970BD10B500204CF6106301224421A0
:101200000020FFF713FFC0B2002808D1DFF8440820
:10121000D0F8E41031F08001C0F8E41007E0DFF806
:101220003408D0F8E41051F08001C0F8E410DFF881
:101230002448D4F8E400C0F3C010002802D0DFF83E
:10124000CC3800E0A3A3DFF8C828A3A1082001F050
:1012500081FFC820A4F88600C820A4F8880010BD2B
:1012600038B500208DF8000000206B460022442194
:101270000020FFF70AFF04009DF80000002805D0B9
:10128000DFF890080168491C016017E00020DFF8D2
:1012900084180860DFF8BC57D5F8E400C0F3C0102C
:1012A00000280BD0DFF870288BA1082001F052FF36
:1012B000D5F8E40030F08000C5F8E400DFF8540809
:1012C0000068042813D3DFF88C57D5F8E400C0F386
:1012D000C010002805D1DFF844287FA1042001F0C8
:1012E00039FFD5F8E40050F08000C5F8E400FFF7BE
:1012F0000FFF0121200080B2000B8140A4B2240521
:10130000240D04FB01F400EE104AB8EE400A31BD92
:1013100038B5002000200020DFF83847D4F89C00C2
:10132000002811D1FFF79CFFBCEEC00A10EE100A96
:1013300002F010F85FF03332DFF8E43700F07AFCA7
:1013400000F07EFEC4F89C00D4F89C00FFF798FDE6
:101350000500DFF8D00701884A1C028089B26529A0
:1013600016DB00210180FFF77BFFBCEEC00A10EE08
:10137000100A01F0EFFF5FF03332DFF8A43700F01E
:1013800059FC00F05DFEC4F89C00012084F8780050
:10139000E07A012877D194ED460AB5EE400AF1EEE5
:1013A00010FA48D500F05AFBD4F80C01C4F8080133
:1013B000D4F89C00C4F80C01D4F89C10D4F80001B7
:1013C000091A94F8F00011FB00F0A4F8FC00ADB28B
:1013D00000EE105AB8EE400AD4ED460AB7EE001AF5
:1013E00070EE810A20EE200ABDEEC00A10EE101A3F
:1013F000B4F9FC004018DFF8601694F8EC2001EB1B
:101400004202B2F8202303009BB29A4209D294F818
:10141000EC0001EB4000B0F82003DFF80C17088067
:1014200002E0DFF804170880DFF8FC06B0F90000DE
:10143000A4F8FA0027E0ADB200EE105AB8EE400A68
:10144000D4ED460AB7EE001A70EE810A20EE200AAB
:10145000BDEEC00A10EE100ADFF8FC1594F8EC207F
:1014600001EB4202B2F8202303009BB29A4208D259
:1014700094F8EC0001EB4000B0F92003A4F8FA0066
:1014800001E0A4F8FA00B4F9FA1094F8F40041432A
:101490000A20B1FBF0F0A17B022903D094F82511BA
:1014A000012916D12178032913D1C0034FF47A7191
:1014B000B0FBF1F189B204202DF0A2FFD4F8300185
:1014C000C0F34020002802D0A07CE07001E00020A2
:1014D000E07031BD4F4B00007379730078B585B073
:1014E00005000020DFF86C45E079002803D12800D2
:1014F000C0B27F2800D1EAE02078032806D0DFF8C8
:101500002C26B1A1082001F025FEE0E02800C0B2A1
:10151000652801DB642504E02800C0B2002800D162
:10152000012553206073637B9BB240222C21012054
:1015300002F0D5F8D4F8300130F04000C4F83001A2
:10154000DFF8EC050068C4F8B400E07A012870D137
:10155000D4F89C00C4F80001D4F89C00FFF790FC7C
:10156000DFF8F41400EE100AB8EE400A94F8EC200C
:1015700001EB4202B2F8202300EE902AF8EE600A56
:1015800080EE200ADFED910A20EE200ABDEEC00AAF
:1015900010EE102AA4F804212A00D2B200EE102A7C
:1015A000B8EE400ADFED890A80EE200A94F8EC20BC
:1015B00001EB4201B1F8201300EE901AF8EE600A38
:1015C00020EE200ABCEEC00A10EE106A311A00EEBE
:1015D000101A002802D1F7EE000A07E0F8EEC00A60
:1015E00001EE100AB8EE411AC0EE810AC4ED460AB7
:1015F000A4F8FA60B4F8041104918DED030A029680
:101600000190BDEEE00A10EE100A80B20090EDB23B
:101610002B00DFF820256CA1102001F09BFDF603C4
:101620004FF47A70B6FBF0F189B204202DF0E8FE99
:101630004DE0257384F8F3502800C0B20A2110FB56
:1016400001F0A4F8F60084F82051EDB2DFF80804A8
:1016500094F8EC1000EB4100B0F8200345436420FF
:1016600095FBF0F0A4F8FA0094F8EC00002815D0EF
:10167000282094F8F31041430A2291FBF2F1A4F8D8
:10168000FA10217BC90342F2107291FBF2F111FBB7
:1016900000F189B204202DF0B3FE14E0532094F839
:1016A000F31041430A2291FBF2F1A4F8FA10217BD6
:1016B000C90342F2107291FBF2F111FB00F189B201
:1016C00004202DF09DFE94F8F30002F0F2FF06B026
:1016D00070BD00007CB506009FED950ADFF87443ED
:1016E0002078032806D0DFF8502437A1082001F025
:1016F00031FD59E03000C0B2002855D032A533008A
:10170000DBB2DFF838242900102001F023FDE67257
:10171000E07A012808D00020C4F818010020A4F8BD
:1017200004010020A4F8FC00E07A022839D1B4F9C1
:10173000FA00019094F8F300009094F8F230DFF88A
:1017400000242900102001F005FDB4F9FA006421FD
:1017500010FB01F000EE100AB8EEC00ABE4894F883
:10176000EC1000EB4100B0F8200300EE900AF8EE18
:10177000600A80EE200A10EE100A03F039F941ECFD
:10178000100B03F059F951EC100B03F089F984F8B0
:10179000F20094F8F20084F8F30094F8F30002F0F9
:1017A00088FFE07A02F0BCFF73BDDFF8981381F880
:1017B000F1007047DFF88C13A1F888007047DFF85C
:1017C0008413A1F886007047737973000000C84243
:1017D0007CB50D009F4C94F825110200D2B29142C5
:1017E00000F0A4800100C9B202291DD194F8300193
:1017F000C00740F19B8033206073637B9BB2402223
:101800002C21012001F06BFF0120E071022084F8FF
:1018100025010095E379CC4AB6A1102001F09AFC8D
:10182000022003F0C1F981E0C0B2012879D1002083
:101830002DF046FD0020E0700020207402210220DF
:101840002DF026FEBA4E3068C4F8B8000020E071D2
:10185000012084F8250133206073637B9BB2402212
:101860002C21012001F03BFFD4F8300130F0400082
:10187000C4F830013068C4F8B40094F8EC000028D3
:1018800001D0B24800E071A09AA601900095E379DA
:10189000AF4A3100082001F05DFCE07A02283CD11B
:1018A00094F8EC0000281CD02078032835D1282596
:1018B000207BC00342F2107190FBF1F36B43A54A09
:1018C0003100102001F046FC207BC00342F2107171
:1018D00090FBF1F010FB05F189B204202DF090FD92
:1018E0001BE02078032818D15325207BC00342F247
:1018F000107190FBF1F36B43974A3100102001F017
:1019000029FC207BC00342F2107190FBF1F010FB28
:1019100005F189B204202DF073FD012003F044F994
:1019200004E08E4A73A1022001F014FC73BD000094
:101930000000000070477CB5894D464CA07E297997
:10194000884203D1E07E297B88420FD02879A07697
:10195000287BE076834890F8B9000190E07E009003
:10196000A37E814A63A1082001F0F4FB7D4E96F826
:10197000BA00012829D1D6F8B000002825D096F861
:10198000B900002821D179480078002803D0784890
:10199000007801280DD10220C4F8E0000120207455
:1019A0000020A0730020E07361480068C4F8B8000C
:1019B00002E00120C4F8E00040F22B410220FFF7D2
:1019C00007FF0020C6F8B0003FE096F8B9000028F5
:1019D0003BD0A07E65490870E07E65490870287B91
:1019E000012802D02879002812D10220C4F8E00092
:1019F000012020740020A0734D480068C4F8B8008E
:101A00000020E07340F242410220FFF7E1FE1CE0BB
:101A1000287B002819D12879012802D028790228AA
:101A200013D10120C4F8E000E07B00280DD1607FD5
:101A3000022805D140F253410220FFF7C9FE04E01D
:101A400040F255410120FFF7C3FE73BD44617900A8
:101A50009C004B00C014002030024B0080B5394977
:101A6000D1F89C00434A90422FD3B1F80421D1F819
:101A70009C30D1F800011B1A4FF4FA60B3FBF0F070
:101A80008018020092B2642A03DA042081F8F00080
:101A90001EE0020092B2962A03DA082081F8F000D4
:101AA00016E0020092B2C82A03DA0A2081F8F00098
:101AB0000EE080B2B0F5967F03DA0D2081F8F000D9
:101AC00006E00F2081F8F00002E0002081F8F0002D
:101AD0002948027891F8F0309A4209D091F8F02024
:101AE000027091F8F030254A02A1082001F032FB83
:101AF00001BD000073797300682440204424402015
:101B00000000E83F0000D03F69244020ACFE4A00BE
:101B100098FE4A0000004020B4FE4A00CCFE4A0075
:101B20003333F33F4624402048244020E4FE4A005B
:101B3000F81E402010FF4A0044FF4A0070FF4A0090
:101B40008CFF4A00C0140020ACFF4A0004004B0088
:101B5000D4FF4A000C004B002C004B0048004B0007
:101B6000D01600209004002064004B006A2440201E
:101B70006B244020017102006C2440208C004B003B
:101B8000002848BF40427047002203F031B8826805
:101B9000521C8260426832B10268531C03601170AB
:101BA0004168491E4160704762F30F2262F31F4291
:101BB000401810F0030308D0C91A1FD3DB0748BF31
:101BC00000F8012D28BF20F8022D130030B4144670
:101BD0001546103928BF20E93C00FAD8490728BF2C
:101BE00020E90C0048BF40F8042D890028BF20F8E8
:101BF000022D48BF00F8012D30BC7047C91818BF2E
:101C000000F8012DCB0728BF00F8012D7047000018
:101C100010F0004160B148BF4042B0FA80F29040FD
:101C2000D21CC2F5846241EA025202EBD021400587
:101C30007047000030B540F2FF7C1CEA11541DBF14
:101C40001CEA1355644565453FE0641981EA030CBD
:101C50006FF35F530CF0004C43F48013C90241F062
:101C6000004141EA505EC5021100A5FB02020028B6
:101C70004FF00000EEFB01204FF00001E3FB0521D7
:101C800018BF42F00102401800214941E3FB0E0158
:101C9000A4F580640D0302D292184041494154F1E9
:101CA000010470DD450872F1004250F1000051EB73
:101CB0000451A1F5801102D441EA0C0130BD40F27B
:101CC000FF7E4CEA0E51002030BD0CEA13556445EE
:101CD00018BF654581EA030C0CF0004C41D050EA76
:101CE000410E1CBF52EA430E02E06146002030BDA7
:101CF00024422C441BD15FEA050EF6D0090302BF33
:101D000001460020AEF1140EB1FA81F5AEEB0504E8
:101D100001FA05FE0C35C5F1200100FA05F5C840B1
:101D20004EEA000E6FF35F5343F480139CE733F0E9
:101D30000043B3FA83F504BFB2FA82FE75440B3D4B
:101D4000641BB5F1200E2FBF02FA0EF3AB40C5F1B4
:101D5000200E22FA0EFE38BF43EA0E03AA40641C8E
:101D60007CE750EA410E14BF52EA430E6FF00001C7
:101D70004FF4001515EB430F8EBF194615EB410FBD
:101D80009DE7B4D830BDD4F10104B4F120050FDAD9
:101D9000C4F12005520828BF42F0010210FA05FEE6
:101DA00001FA05F57244E2BFE0402843E1400FE04C
:101DB000352C9ADCC5F1200452EA400220FA05F2E3
:101DC00018BF42F0010231FA05F0A1400A43002198
:101DD00072F1004250F1000051EB0C0130BD0000E7
:101DE00070B491EA030F4FF0004540F1BF806B40A3
:101DF000841A71EB030604D26E40001BB141121924
:101E000073414FF4001C1CEB410F34BF7CEB4306C5
:101E100083E00C0DA4EB1356362E00F37C80012ECC
:101E200045EAC32341DC43EA525312BFD202920275
:101E30005B08240545EAC12141EA5051D2EBC0209C
:101E4000994125D407D1B0FA80F610FA06F162D094
:101E50000020203608E0B1FA81F6B140C6F1200238
:101E600020FA02F21143B0404FEAF474B4EB465446
:101E700034F001064FEA74040AD8D6F50016760D40
:101E800004F00044F04061FA06F25040F14048404E
:101E9000C00A40EA415021F0004128BF5FEA5005E6
:101EA00050F1000044EBD12135E0DB0A45EAC121C5
:101EB000C90AB6F120050EDD42EA0242120CC5F154
:101EC000200603FA06F6EB4042EA06056D42984109
:101ED00061F100010DE062FA06F5F240554063FA47
:101EE00006FC82EA0C02F3405A406D42904161EBDD
:101EF000030111F4801F05D1641E620502D06D003C
:101F00004041494121F48011430875F1004350F1EB
:101F1000000041EB045170BC70471CEB410F15D21F
:101F200023F0004352EA43060BD04FEA4C0CBCEBC3
:101F3000410F04D80C0D661E342EB7DDEBE7801A76
:101F4000994150EA410608BF0021E4E708BF1CEBB5
:101F5000430F28BF6FF00001DDE7000070B491EA85
:101F6000030F4FF000457FF543AF6B40841A71EBD0
:101F7000030603D2001BB141121973414FF4001C38
:101F80001CEB410F34BF7CEB430442E00C0DA4EB8F
:101F90001356352E4FDC45EAC323DB0A45EAC1213F
:101FA000C912B6F120050DDD63FA05F6EB4086EAAD
:101FB0000305124218BF45F00105C01851F1000198
:101FC0000CD213E062FA06F5F2405540F3415A4054
:101FD000B340F3405A408018594107D349085FEA9B
:101FE00030005FEA350528BF45F0010501F5801195
:101FF000420875F1004250F1000041EB04514E00DF
:1020000016F5001F70BC38BF70470020090D090588
:1020100070471CEB410F10D252EA43060BD0BCEBC9
:10202000410F05D80C0DAB43661E342EB6DD02E021
:10203000AB438018594170BC704770BC70470000BA
:10204000400D40F21E4C40EAC120BCEB115C40F058
:10205000004003D48CF30701C84070476FEAE17079
:10206000704700003EB504000D0000208DF801000F
:1020700000208DF800006A460DF10101002002F0F9
:102080007FFF681C019095F841000290E4B2002C9B
:1020900037D12878092804D00E280FD00F2819D05E
:1020A00024E0002002F063FF012806D101A90020EE
:1020B00002F0DAFF022003F02FFC22E09DF800007E
:1020C000032806D1082003F027FC01A9002005F011
:1020D000CEF816E09DF80000032806D1082003F092
:1020E0001BFC01A9012005F0C2F80AE005F0E2FBA3
:1020F000012806D195F84120691C287880B200F0AB
:1021000001F837BD2DE9F843040088461700002088
:10211000200080B2112803D23800C0B2412800D379
:102120007EE06825DFF8E86C200080B26843304428
:10213000806C10F10F0F0AD2200080B26843304447
:10214000210089B269433144896C491C816400F0E3
:1021500045FF012818D1200080B26843304490F830
:102160005100002810D1200080B26843304490F81C
:102170005200012808D1200080B2684306EB000914
:1021800005F0ACFDC9F86400200080B2684330441B
:10219000012180F85110200080B2684306EB00094D
:1021A00005F09CFDC9F86000200080B2684330440F
:1021B00080F844703A00D2B24146200080B26843B1
:1021C0003044001D05F0D8FD002803D1200080B266
:1021D000012825D13A00D2B2200080B268433044B1
:1021E00010F104094146484605F0FAFD3800C0B236
:1021F00040280ED23900C9B2D1F14001002220009E
:1022000080B268433044FFB23844071D3800FFF7FE
:10221000CBFCA4B26C4306EB0400012180F8501003
:10222000BDE8F183F8B500251FE0402100225424C9
:10223000DFF8E06B2800C0B260433044471C380030
:10224000FFF7B2FC2800C0B2604306EB000705F0C0
:1022500045FDB8642800C0B204FB00F406EB04009E
:102260002900C9B2A0F84E106D1C2800C0B20C287D
:10227000DBD3F1BDF8B50020002430E0402100227E
:102280006825DFF88C6B200080B268433044071D5E
:102290003800FFF789FC200080B2684330440021F9
:1022A00080F85210200080B268433044002180F84A
:1022B0005110200080B268433044002180F8501053
:1022C000200080B26843304400218164200080B245
:1022D00005FB00F5354405F001FD2866641C20006F
:1022E00080B21128CAD3DFF8300BDFF8301B41660B
:1022F000DFF82C1BC166DFF82C1B4167DFF8281BB9
:102300004165DFF8281BC164DFF8241BC165DFF8D5
:10231000241BC0F88810DFF8201BC163DFF81C1BEA
:10232000C0F8A010DFF8181BC0F8A810DFF8141BC5
:10233000C0F89010DFF8101B0161DFF88C1C816081
:102340007F2180F86110F1BDF8B5002000240AE17A
:102350006825DFF8BC6A200080B26843304490F8FA
:102360005100012840F0D780200080B268433044FB
:10237000C06D002800F0CF8005F0B0FC210089B2CC
:1023800069433144CA6D210089B269433144096E01
:10239000401A824280F0BF80200080B268433044FF
:1023A000002180F8511040210022200080B26843B3
:1023B0003044071D3800FFF7F7FB200080B205FB13
:1023C00000F506EB0500012180F85010A3E000F0B5
:1023D00005FE0128BCD16825DFF8346A200080B2F0
:1023E0006843304490F8520001282AD1200080B27E
:1023F0006843304490F85100012822D105F06EFC6A
:10240000210089B2694331448A6D210089B2694350
:102410003144496E401A824213D2200080B2684390
:102420003044002180F85210DFF8A00B210089B25F
:1024300050F82130DFF8982BDFF8981B082000F0C7
:1024400089FE200080B26843304490F85200002892
:1024500029D105F043FC210089B2694331444A6D1A
:10246000210089B269433144096E401A82421AD26E
:10247000200080B268433044002180F851102000D1
:1024800080B268433044012180F85210DFF83C0BE1
:10249000210089B250F82130DFF83C2BDFF8341BE3
:1024A000022000F057FE200080B26843304490F8CC
:1024B000520001282FD1200080B268433044C06D03
:1024C000002828D005F00AFC210089B26943314474
:1024D000CA6D210089B269433144096E401A8242B3
:1024E00019D2200080B268433044002180F8511096
:1024F00040210022200080B268433044071D38008C
:10250000FFF752FB200080B205FB00F506EB05004B
:10251000012180F850106825DFF8F468200080B2AF
:102520006843304490F8500001281BD1200080B24D
:1025300068433044002180F8501005F0BBF90128B1
:1025400010D1200080B26843304490F8442020002D
:1025500080B205FB00F506EB0500011D200080B2EE
:1025600000F007F8641C200080B21128FFF42FAFA0
:10257000F1BDF0B585B00C0080B200281ED0012856
:1025800023D0022828D003282DD0042832D00528B3
:1025900037D006283CD0072847D008284CD00A2836
:1025A00050D00B2800F0E4800C2800F0E8800D28C3
:1025B00000F0EC80102800F0F080F4E0D2B22100AE
:1025C000DFF8540805F05FFCEDE0D2B22100DFF83F
:1025D000540B05F0A3FCE6E0D2B22100DFF8480B73
:1025E00005F063FDDFE0D2B22100DFF8400B05F01B
:1025F0005AFCD8E0D2B22100DFF8340B05F0EEFD32
:10260000D1E0D2B22100DFF82C0B05F0DEFDCAE0EC
:10261000DFF8FC0790F8C102012805D1D2B22100F1
:10262000DFF8140B05F00DFEBDE0D2B22100DFF89B
:102630000C0B05F0ECFDB6E01100C9B2200000F073
:1026400010FDB0E0D2B22100DFF8F40A06F0D4FAAF
:102650000020A5782800C0B2002802D1DFF8E46A83
:1026600002E00125DFF8E06AE078012818D16279FC
:102670002179C9B249082800C0B200F0ACFEC0B24E
:1026800003903078029060790190207900902B00BF
:10269000DBB2DFF8B82ADFF83C19082000F05AFD59
:1026A000E07803281ED1E0798DF8100004A800908E
:1026B000012362792179C9B249082800C0B200F02B
:1026C00057FEC0B203903078029060790190207973
:1026D00000902B00DBB2DFF8782ADFF8F81808202A
:1026E00000F038FDE07805281FD16079A77957EA16
:1026F00000273A0092B22179C9B24908C9B289B219
:102700002800C0B201F0C5F8C0B203903078029042
:10271000BFB20197207900902B00DBB2DFF82C2AA2
:10272000DFF8B018082000F015FDE07807281ED16A
:102730006079A77957EA0027E3793A0092B22179C4
:10274000C9B249082800C0B201F074F8C0B20390C1
:1027500030780290BFB2019720790090EDB22B0043
:10276000DFF8EC29DFF86C18082000F0F3FC1AE021
:10277000D2B22100DFF8480B05F079FC13E0D2B2A9
:102780002100DFF8400B05F0C3FB0CE0D2B22100C2
:10279000DFF8340B05F0E2FB05E01100C9B22000C0
:1027A00006F07EFAFFE705B0F0BD2DE9F84193B0E1
:1027B00004002078002805D020780A2802D020784C
:1027C0000C2800D323E0601C0190207801281AD047
:1027D00002281FD0032800F0F680042800F0F980BA
:1027E000052800F01181062800F02981072800F053
:1027F0004181082800F08C82092800F08D820B2886
:1028000000F0AE8203E39DF80C0084F8410014B0A0
:10281000BDE8F081002010210022DFF8B06AB51C6D
:102820002F003800FFF7C0F9DFF8A47A38780028C5
:1028300002D0012862D0BFE0DFF8988A404608F055
:10284000F5FEDFF8940A00210170002110E00BE092
:10285000027838F82220521EF281027808EB8202B8
:10286000927812F0010232740278521C0270491CF4
:102870000278D8F890309A4238D20A00D2B2042AAC
:1028800034DA0278042392FBF3FC03FB1C22002AB7
:1028900005D0022A1DD00FD3032AD9D0D7E702785A
:1028A00038F82220521E7280027808EB8202927859
:1028B00012F001023271D7E7027838F82220521E56
:1028C000F280027808EB8202927812F001023272F2
:1028D000CAE7027838F82220521E7281027808EB8B
:1028E0008202927812F001023273BDE70078D8F8C4
:1028F0009010884201D2012038705FE0002010E083
:102900000BE00B7832F823305B1EF3810B7802EB7F
:102910008302927812F0010232740A78521C0A7013
:10292000401CDFF8B029DFF8B0190B78D2F890C05E
:10293000634539D20300DBB2042B35DA0B785FF044
:10294000040C93FBFCFE0CFB1E33002B05D0022B6A
:102950001DD00FD3032BD4D0D2E70B7832F823301D
:102960005B1E73800B7802EB8302927812F00102F7
:102970003271D2E70B7832F823305B1EF3800B788C
:1029800002EB8302927812F001023272C5E70B78F3
:1029900032F823305B1E73810B7802EB830292784E
:1029A00012F001023273B8E70878D2F8901088422A
:1029B00001D30020387001E00020387001A9280000
:1029C00006F040F81FE701A9DFF8100905F052FDF5
:1029D00019E7DFF80C09D0E90023CDE9092309AA9A
:1029E0000321012009F075FBC0B2002806D10C229A
:1029F0000A99DFF8F058280005F0F2F901A9DFF88C
:102A0000E40805F068FBFEE6DFF8DC08D0E9002307
:102A1000CDE9072307AA0321012009F05AFBC0B220
:102A2000002806D10C220899DFF8C058280005F0CC
:102A3000D7F901A9DFF8B40805F0AFFCE3E6DFF849
:102A4000B008D0E90023CDE9052305AA0321012020
:102A500009F03FFBC0B2002806D10C220699DFF82E
:102A60009458280005F0BCF901A9DFF8880805F0A2
:102A7000ACFAC8E600208DF800000DF101026946AD
:102A8000002002F07DFADFF8445805F027F92863AA
:102A900009F0A8FBA886DFF860084178007850EAC2
:102AA0000120E886DFF854084178007850EA0120D8
:102AB000288703F070F8002801D1012000E00020F1
:102AC00085F83A00D4480179012902D0007902281A
:102AD00001D1012000E0002085F83B0002F0C3FF97
:102AE000400810F0010085F83C00002085F83D000A
:102AF00002F0B9FFC00810F0010085F83E00002088
:102B000085F83F000AF0D4FAA5F8400002F0F5FF7E
:102B100085F842009DF8000085F84800DFF8E007DE
:102B2000017885F84910407885F84A0000206864EB
:102B3000DFF8D017C87F8A7F52EA0022A5F84E201E
:102B400091F8210091F8202052EA0022A5F84C20AB
:102B500091F82501012808D1B1F9FA2091F8F40083
:102B600042430A2092FBF0F000E00020A5F870003C
:102B700091F8EC0085F87200C87885F87300487900
:102B800085F87400087985F87500D1F8E400A86725
:102B9000D1F8E800E867D1F89800C5F88000B1F8EE
:102BA00080004CF2010290420ADBB1F88000B0F5DF
:102BB00040407FF0FF0290FBF2F085F8760005E0E0
:102BC000B1F8800080B2000A85F87600D1F89C0048
:102BD000DFF83427904203D2D1F89C00C5F8840076
:102BE000002118E068208A4A0B00DBB243431344FB
:102BF00093F85230012B0DD10B00DBB200FB03F038
:102C0000104490F85300002804D1686C01228A40D7
:102C100010436864491C0800C0B21128E2D37C4804
:102C200090F8221185F8541090F85A1285F8551032
:102C300090F8F21185F8561090F82A1385F857107D
:102C400090F8C21285F8581090F8521085F8591073
:102C500090F88A1185F85A1090F8321585F85B10B3
:102C600090F8BA1085F85C1090F89A1585F85D1008
:102C700090F8CA0485F85E000AF0BDFA85F8620093
:102C800002F0C2FF85F85F0002F0C9FFA5F86000FE
:102C90000AF014FAA5F866000CF0B2FC85F868009A
:102CA0000CF0FCFC85F869000BF063FB85F8630011
:102CB0000BF063FB85F864000AF0FDF985F8650008
:102CC00003F0F0F885F86A0003F02AFA85F86B0043
:102CD000012085F86C000CF00BFD012803D10120C8
:102CE00085F86D000AE00CF007FD012803D10220F1
:102CF00085F86D0002E0002085F86D000CF0D2FC34
:102D000085F86E0001A915F1300005F0EBFB7AE5BE
:102D100040208DF80C0076E5DFF8B055DFF8DC05D3
:102D20004178007850EA0120A5F8D80009F05AFA55
:102D3000A5F8D400DFF8D4054178007850EA0120E6
:102D4000A5F8D200DFF8B0054178007850EA0120FC
:102D5000A5F8D60001A915F1D20005F0EBFE52E569
:102D600004A8DFF8AC150A6802600BA8DFF8A41508
:102D70000E2205F035F8002508208DF80C000FA86C
:102D800001F0F3FB04A801F02CFC0BA801F001FCFE
:102D90000C22DFF884150FA804F0EEFF002801D103
:102DA000012512E00C22DFF874150FA804F0E4FFEF
:102DB000002801D1022508E00C22DFF864150FA8D5
:102DC00004F0DAFF002800D10325019805709DF872
:102DD00010000DF039F90199487004AD68780DF0D4
:102DE00033F901998870A8780DF02EF90199C8700F
:102DF0000BA830210171002181720CAA03210198D6
:102E0000001D0DF0C1F800200199C871FBE4FEE43B
:102E100090040020780B0020D0160020DD1448001C
:102E2000C17849005D78490001774900157C490067
:102E3000D5164800A5E34900AB174800BF17480066
:102E4000B51748001590480037194800F8B500201C
:102E5000002000242FE006E005FB04F13144496C1A
:102E6000814200DA0127FFB2002F23D004F036FFA1
:102E700005FB04F13144886404F006FD01280CD1FF
:102E800005FB04F03044FFF790FC012205FB04F53C
:102E900006EB050100200DF08BFBDFF888140878A5
:102EA000002807D101200870DFF87C244949082058
:102EB00000F050F9641C0C2C80F085800027002C59
:102EC00001D00A2C00D1F5E75425DFF8606405FB3A
:102ED00004F0304490F842000028EBD005FB04F0E9
:102EE000304490F8430001280ED105FB04F0304433
:102EF00090F85100002807D1002005FB04F506EBEF
:102F0000050181F85000D5E705FB04F03044B0F826
:102F10004E00002812D005FB04F03044B0F84E00FB
:102F2000401E05FB04F13144A1F84E0005FB04F0FE
:102F30003044B0F84E000028BCD1012704F0CEFE8A
:102F400005FB04F13144896C401A05FB04F131445E
:102F500091F84310002903D002291CD008D37AE746
:102F600005FB04F13144496C814200DA01277AE71C
:102F700005FB04F13144496C81420BDA05FB04F096
:102F8000304490F85100401E05FB04F1314481F8B3
:102F90005100012767E705FB04F1314491F8501017
:102FA00001297FF459AF05FB04F13144B1F84C100D
:102FB0008142BFF651AF002005FB04F1314481F896
:102FC000500001274FE7F1BD35194800702C402013
:102FD000180B4B00100B4B00280B4B0070B502F088
:102FE00013FE01280AD10AF006F9002806D10020B4
:102FF0000DF05AFE012801D1012000E00020002838
:1030000001D0012000E000200021C94C21780200FD
:10301000D2B2914223D02070207800281FD0002502
:1030200019E06820C3492A0092B242430A440023AF
:1030300082F852302A0092B242430A44002382F8B6
:1030400050302A0092B200FB02F001EB000604F0BF
:1030500045FE30666D1C280080B21128E1D320782F
:1030600070BDF8B504000020012100226D46280043
:10307000FEF79AFDAD4D15F155062078312835D172
:103080006078012832D1A078B0282FD1E0780228CA
:103090002CD14021002237003800FEF785FD0DF1CC
:1030A00001026946201D0EF04AFA9DF801100843FE
:1030B000C0B200280BD17120307001207070B02098
:1030C000B0700220F0709DF80000307105E07F20A4
:1030D0003070312070701020B070402085F895005D
:1030E000012215F1540100200DF062FAF1BD70B516
:1030F000010014008D4D402085F8E102402205F2C8
:10310000A126300004F06CFE24B2B4F5807F01D11A
:10311000012200E00022D2B215F5287100200DF046
:1031200047FA70BDD4160020E4160020F0160020E7
:103130000817002010170020141700205017002037
:1031400054170020C1140020C2140020380B4B007B
:10315000680B4B0008B42DE9F847C4B006000F0017
:1031600015004FF48074210000220DF11008404634
:10317000FEF71AFD002000205FF0000968466E4946
:10318000062204F02DFE02A86946062204F028FE5D
:10319000002001F034FF01280DD1300000B20228D8
:1031A00009D0300000B2042805D0300000B2B0F5DC
:1031B000807F40F07F80300000B202280BD15FF0AA
:1031C00007084246D2B25D4904A800EB090A5046FE
:1031D00004F006FE1FE0300000B2042804D03000E6
:1031E00000B2B0F5807F0BD15FF007084246D2B243
:1031F000534904A800EB090A504604F0F1FD0AE027
:103200005FF004084246D2B24E4904A800EB090A16
:10321000504604F0E5FD4046C0B2241A59FA88F938
:103220001022494904A800EB090A504604F0D8FDD1
:10323000103C19F11009012C3CDB300080B20EF07B
:10324000CCFA03000097414A210004A848440EF03C
:1032500017FB0700E41B17EB0907012C2ADB2A00E8
:103260004DAB210004A838440EF02CFB241AC719DA
:10327000300000B2802819D0002001F0ADFE04001B
:1032800004F002FB012811D1E4B2032C0ED1304826
:10329000007801280AD1320012B24146C9B2791A27
:1032A00004A85FFA88F84044FFF721FF390004A81A
:1032B0000EF0E0FA45B0BDE8F0075DF808FB00004D
:1032C0005C170020681700206C1700208017002072
:1032D000762440205C18002077244020921700209C
:1032E000080C4B0094170020100C4B00A017002076
:1032F000180C4B00AC170020FABF4B00F8BF4B0076
:103300005E244020C014002040420F00FABF440059
:10331000980B4B00200C4B009C0B4B00AC0B4B0054
:10332000BC0B4B0078244020CC0B4B00780B0020CA
:103330007924402090040020041F4020E40B4B001F
:10334000EC0B4B00F40B4B0003150020FC0B4B0067
:103350007A24402050B1B0FA80F18840C91CC1F5F0
:103360008461090501EBD021400570470146704793
:103370002DE9F84388B005000E0090461F00109C10
:10338000002068461021FEF7FFFB102100220DF1FE
:1033900010094846FEF708FC8DF810803A00D2B2BA
:1033A00021000DF11104200004F01AFDF6B2ADF871
:1033B0000060FFB27F1CADF8067000208DF8080099
:1033C00004A8039069462800C0B224F00FF9C0B2E7
:1033D00009B0BDE8F083F0B585B004000D0016001B
:1033E00000204FF6FF7001A81021FEF7CDFB04214D
:1033F00000226F463800FEF7D7FB8DF800602800EA
:10340000C0B2ADF804000120ADF80A0000208DF82C
:103410000C0001208DF809006846049001A92000E5
:10342000C0B224F0E3F8EDB2ADF804500120ADF8DD
:103430000A0001208DF80C0000208DF80900684674
:10344000049001A92000C0B224F0D0F804980078BC
:10345000C0B205B0F0BDF0B587B004000D00160095
:10346000002003A81021FEF78FFB0421002202AFE9
:103470003800FEF799FB8DF808508DF809602000A0
:10348000C0B2ADF80C000220ADF8120000208DF89B
:10349000140002A8069003A9002024F0A7F8060053
:1034A0003000C0B200280CD03000C0B20190EDB2A4
:1034B0000095E4B22300DFF8902CABA10220FFF7C7
:1034C00049FE3000C0B207B0F0BD78B587B0040047
:1034D0000D00002000204FF6FF7003A81021FEF71A
:1034E00053FB0421002202AE3000FEF75DFB8DF895
:1034F00008502000C0B2ADF80C000120ADF8120059
:1035000000208DF8140001208DF8110002A806900B
:1035100003A9002024F06AF80100C9B200290CD0E8
:10352000C0B201902800C0B200902300DBB2DFF8E7
:10353000402C8DA10220FFF70DFE2000C0B2ADF897
:103540000C000120ADF8120001208DF814000020BD
:103550008DF8110002A8069003A9002024F046F877
:103560000100C9B200290BD0C0B20190EDB20095A4
:10357000E4B22300DFF8042C7BA10220FFF7EAFD70
:1035800006980078C0B208B070BD2DE9F04188B04F
:1035900004000D0016001F00002004A81021FEF7F3
:1035A000F3FA042100220DF10C084046FEF7FCFA64
:1035B000300080B2000A8DF80C0030008DF80D004C
:1035C0008DF80E702800C0B2ADF810000320ADF8E1
:1035D000160000208DF8180003A8079004A9200009
:1035E000C0B224F003F880464046C0B2002814D090
:1035F00004A92000C0B223F0F9FF80464046C0B2C3
:103600000290FFB20197B6B20096EDB22B00DFF840
:10361000702C55A10220FFF79DFD4046C0B208B0B6
:10362000BDE8F081F8B588B004000D001600002058
:1036300000204FF6FF7004A81021FEF7A5FA042120
:10364000002203AF3800FEF7AFFA300080B2000A64
:103650008DF80C0030008DF80D00ADF810500220F0
:10366000ADF8160000208DF8180001208DF8150027
:1036700003A8079004A92000C0B223F0B7FFADF85B
:1036800010500120ADF8160001208DF81800002020
:103690008DF8150003A8079004A92000C0B223F0FC
:1036A000A5FF07990F78C0B2002814D004A9200004
:1036B000C0B223F09BFF040004F010FB0290E4B2C0
:1036C0000194B6B20096ADB22B00DFF8B82B26A15C
:1036D0000220FFF73FFD3800C0B209B0F0BD2DE970
:1036E000F84187B004000D0016001F00002003A859
:1036F0001021FEF749FA042100220DF10808404686
:10370000FEF752FA30008DF8080038008DF80900F5
:10371000BFB23F0A8DF80A70ADF80C500320ADF827
:10372000120000208DF8140002A8069003A92000C2
:10373000C0B223F05BFF04002000C0B200280CD010
:103740002000C0B20190B6B20096ADB22B00DFF8F7
:10375000382B05A10220FFF7FDFC2000C0B208B005
:10376000BDE8F0810000000049324300F0B587B0A9
:1037700004000D0016000020002003A81021FEF711
:1037800003FA0421002202AF3800FEF70DFA3000E0
:103790008DF80800ADF80C500120ADF812000020A3
:1037A0008DF8140001208DF8110002A8069003A9DD
:1037B0002000C0B223F01AFF0100C9B200290CD0CA
:1037C000C0B20190300080B200902B009BB2DFF8B5
:1037D000BC2A17A10220FFF7BDFCADF80C50022057
:1037E000ADF8120001208DF8140002A80690002008
:1037F0008DF8110003A92000C0B223F0F7FE0100EC
:10380000C9B200290BD0C0B20190B6B20096ADB2D9
:103810002B00DFF8882A06A10220FFF79BFC9DF809
:1038200008009DF8091050EA012080B207B0F0BDF1
:10383000493243002DE9F84185B004000D0017001E
:103840001E00002001A81021FEF79EF9042100228D
:10385000E8464046FEF7A8F9380080B2000A8DF825
:1038600000008DF801708DF80260EDB2ADF80450E3
:103870000320ADF80A0000208DF80C006846049083
:1038800001A92000C0B223F0B1FEC0B206B0BDE86D
:10389000F081F0B585B004000D00160000204FF651
:1038A000FF7001A81021FEF76FF9042100226F4676
:1038B0003800FEF779F9300080B2000A8DF8000078
:1038C0008DF80160ADF804500220ADF80A00002028
:1038D0008DF80C0000208DF809006846049001A9BD
:1038E0002000C0B223F082FE022004F0FAF9ADF805
:1038F00004500120ADF80A0001208DF80C000020D2
:103900008DF809006846049001A92000C0B223F098
:103910006DFE04980078C0B205B0F0BD38B5DFF890
:1039200080492078002816D0022830D021D30428DE
:1039300000F0B08150D3062800F00282C0F0C981A7
:10394000082800F02B82C0F015820A2800F05F8260
:10395000C0F043826FE2DFF84C090168491C016046
:1039600001680B2904D32178491C217000210160D2
:1039700067E208F037FC012805D102231122282133
:103980000120FFF702FE2078401C207059E2DFF88A
:1039900014090168491C0160016802291BD32178C0
:1039A000491C217000210160DFF8FC480D224021F4
:1039B0000120FFF737FEA072A07A9B2807D09B203A
:1039C000A072DFF8E82856A10820FFF7C3FB00200B
:1039D000DFF8DC18086034E2DFF8CC08807A9B2836
:1039E00040F09280DFF8C8582868012805D0C0F060
:1039F0008780032857D02BD382E0002340F2133274
:103A000028210120FFF7C1FD802340F21D3228212B
:103A10000120FFF7BAFD00234FF445722821012051
:103A2000FFF7B3FD802340F2163228210120FFF773
:103A3000ACFD042340F2173228210120FFF7A5FD39
:103A4000182340F2193228210120FFF79EFD57E08C
:103A5000802340F21D3228210120FFF796FD072325
:103A600040F24B4228210120FFF78FFD002340F256
:103A70004C4228210120FFF788FD242340F24D42CB
:103A800028210120FFF781FD242340F24E42282106
:103A90000120FFF77AFD002340F24F422821012048
:103AA000FFF773FD2CE000234FF48A6228210120E8
:103AB000FFF76BFD012340F2514228210120FFF75F
:103AC00064FD012340F2524228210120FFF75DFDF1
:103AD000152340F26D4228210120FFF756FD0023F7
:103AE00040F2611228210120FFF74FFD24234FF4FB
:103AF000487228210120FFF748FD2078401C2070E3
:103B00002868401C2860C4E0DFF8A4572868002813
:103B100008D002285CD030D3032800F08380B5E0C1
:103B200049324300002340F2133228210120FFF7DD
:103B30002CFD00234FF44C7240210120FFF725FD9E
:103B4000E02340F2323240210120FFF71EFD042322
:103B500040F2333240210120FFF717FD64234FF478
:103B6000427240210120FFF710FD402340F2113244
:103B700040210120FFF709FD88E05E234FF44672E3
:103B800040210120FFF701FD422340F2D5224021D0
:103B90000120FFF7FAFC842340F2D32240210120C8
:103BA000FFF7F3FC102340F2023240210120FFF71F
:103BB000ECFC022340F2C72240210120FFF7E5FC84
:103BC000A3234FF4327240210120FFF7DEFC5DE0B9
:103BD000432340F2C92240210120FFF7D6FC5F2396
:103BE000062228210120FFF7D0FC23234FF448723E
:103BF00028210120FFF7C9FC022340F213322821BB
:103C00000120FFF7C2FC072340F24B42282101208C
:103C1000FFF7BBFC152340F26D4228210120FFF77E
:103C2000B4FC33E0002340F24F4228210120FFF78B
:103C3000ACFC00234FF48A6228210120FFF7A5FC89
:103C4000012340F2514228210120FFF79EFC01236D
:103C500040F2524228210120FFF797FC042340F252
:103C6000C22228210120FFF790FCA32340F2C322A7
:103C700028210120FFF789FC43234FF431722821CA
:103C80000120FFF782FC2078401C20702868401C2F
:103C90002860D6E0DFF81006807A9B280CD1DFF888
:103CA000040601684A1C0260152911D32178491CB9
:103CB0002170002101600BE0DFF8E80501684A1C73
:103CC0000260652904D32178491C2170002101601C
:103CD000B7E0DFF8D405807A9B282DD1122340F27B
:103CE000893240210120FFF750FC7D234FF46072A0
:103CF00040210120FFF749FC002340F28732402198
:103D00000120FFF742FC942340F28532402101203C
:103D1000FFF73BFC232340F2863240210120FFF7CE
:103D200034FC002340F2D32240210120FFF72DFC78
:103D30002078401C207002E02078401C207080E039
:103D4000DFF86405807A9B280CD1DFF858050168FC
:103D50004A1C026065290CD32178491C217000217E
:103D6000016006E02078401C20700020DFF8341548
:103D7000086066E0DFF83005807A9B2806D1B8231A
:103D800040F2D32240210120FFF7FFFB2078401CA6
:103D900020700020DFF80C15086052E0DFF80455B1
:103DA0002868411C2960152816D3DFF8FC04807AA6
:103DB0009B280CD1002340F2D62240210120FFF79E
:103DC000E4FB3123102228210120FFF7DEFB2078BD
:103DD000401C20700020286033E0DFF8CC04807A9B
:103DE0009B280CD1DFF8BC0401684A1C02606529DD
:103DF0000CD32178491C21700021016006E0207855
:103E0000401C20700020DFF89C14086019E0DFF8E7
:103E10009804807A9B2806D1022340F2133228218D
:103E20000120FFF7B2FB002020700020DFF874149F
:103E30000860012006E0002020700020DFF86414F4
:103E40000860002032BD00B585B0002001A8102117
:103E5000FDF79AFE6846DFF85C140A6802602E20BF
:103E6000ADF804000420ADF80A0000208DF80C0025
:103E70006846049001A9012023F0B8FBC0B205B048
:103E800000BD38B5DFF82044B2222E210120FFF713
:103E90006DFCA4F87C004AF2AE25B4F87C00A84280
:103EA00028D02B00B2222E210120FFF718FC4FF45E
:103EB0000043FE222E210120FFF711FCB2222E2109
:103EC0000120FFF753FCA4F87C00B4F87C00A84262
:103ED00010D0B4222E210120FFF748FC4FF6FF71CD
:103EE000884201D1FFF7AFFFD4F8E40050F48070AE
:103EF000C4F8E400002320222C210120FFF7EFFB6F
:103F000020222C210120FFF731FC28222C21012026
:103F1000FFF72CFC47F6FF7328222C210120FFF726
:103F2000DEFB53206073637B9BB240222C21012077
:103F3000FFF7D5FB31BD2DE9FF4100200020002017
:103F40000020DFF87443207801286DD054222C2102
:103F50000120FFF70BFC050056222C210120FFF762
:103F600005FC804658222C210120FFF7FFFB0600AC
:103F70004FF429722E210120FFF7F8FB070017F0FC
:103F80001F0758EA0500304380B2002803D13800EB
:103F900080B2112801D177A300E077A3300080B26E
:103FA0000390404680B20290280080B20190380011
:103FB00080B20090C14A72A10820FFF7CBF843F20B
:103FC000CF30284058EA000080B2002806D14CF6D5
:103FD000FF70064202D1BFB2112F05D1012020701F
:103FE0000020B74908701FE0ADB2002D06D04FF693
:103FF000FF7354222C210120FFF771FB1FFA88F870
:10400000B8F1000F06D04FF6FF7356222C21012085
:10401000FFF765FBB6B2002E06D04FF6FF735822AD
:104020002C210120FFF75BFBBDE8FF8170B5A24D9D
:10403000287800284BD0A24C2078002803D00228F2
:1040400021D00CD33FE00021892027F0DEFB03F0D4
:1040500045FE9C4908602078401C207037E003F042
:104060003DFE984D2968401A40F2C311884209DB91
:104070000121892027F0C9FB03F030FE2860207859
:10408000401C207023E003F029FE8E490968401A85
:10409000022817DB4FF6FF76330054222C21012033
:1040A000FFF71DFB330056222C210120FFF717FBE1
:1040B000330058222C210120FFF711FB0020207033
:1040C0000020287003E0002028700020207070BDC0
:1040D00010B50400892027F085FB2100C9B2884271
:1040E0002ED0E4B2002C1ED00121892027F08DFBB8
:1040F000012003F0F6FD4FF6FF74230054222C211B
:104100000120FFF7ECFA230056222C210120FFF7B3
:10411000E6FA230058222C210120FFF7E0FA0120C3
:10412000694908700CE00021892027F06EFB00200F
:1041300061490870002062490870002062490870D7
:1041400010BD6148007870471C594B0080B55F492D
:10415000087800280BD00020087000205C49087007
:1041600000205C49087003F0B9FD5B49086001BD9F
:1041700048594B00657272006F6B000078594B0014
:104180004932430010B509F036F8002852D14E48A4
:10419000007800284ED08D2027F024FB00280AD17B
:1041A0004C480178012910D00121017003F096FDDF
:1041B0004949086009E047490878002805D00020EF
:1041C000087003F08BFD4449086003F087FD424C02
:1041D0002168401A40F22D11884229DB03F07EFD50
:1041E00020603B4C3B482178027891420CD000780B
:1041F00020702078002801D125A300E025A3374AAC
:1042000025A10820FEF7A6FF2078002807D1264820
:10421000D0F8E41031F48071C0F8E41008E02248CE
:10422000D0F8E41051F48071C0F8E410FFF783FE79
:10423000FFF7FCFE10BDF8B584B005000E001F00AE
:104240000A9C2800C0B2002802D11748447001E03F
:1042500015488470D2B2002A0FD103F03FFD0390BD
:10426000E4B20294BFB20197F6B20096EDB22B0011
:104270001B4A09A10220FEF76DFF05B0F0BD00004A
:10428000A4594B00D4594B00085A4B00385A4B00E4
:104290006F6B00006572720049324300685A4B0030
:1042A000B6244020701C4020C0140020985A4B00B7
:1042B000741C4020B05A4B00B8244020B45A4B0024
:1042C000B7244020781C4020B9244020BC24402042
:1042D000BA244020BB2440207C1C4020E05A4B00E4
:1042E000F85A4B0038B50024DFF8A856FE21280004
:1042F0000DF023FBDFF8A036B3F8401080B28842FF
:1043000005D0FE22290018000DF0E5FD0400E4B2FE
:10431000002C01D1012000E00020C0B232BD70B5F8
:104320004FF480710022DFF86C4625002800FDF76D
:104330003BFC002084F83C00012084F83D00012073
:1043400084F83E00002084F83900012084F83A0007
:10435000012084F83B000F2214F16001DFF83C06D5
:104360000BF0AAFE1121FF252A0014F128063000C7
:10437000FDF71AFC0E2114F11A062A003000FDF791
:1043800013FC01234FF6FF72FE2120000DF080FE8A
:10439000A4F8FE0070BD70B5C0B0DFF8FC45DFF8D2
:1043A000F455FE22290020000DF0ACFDFE2128006E
:1043B0000DF0C3FAB4F8401080B2884257D0002004
:1043C00000200020DFF8D805DFF8D8652A004FF478
:1043D00080710DF0B4FF6A464FF4807130000DF02B
:1043E000AEFF4FF6FF7601233200FE2128000DF0CC
:1043F0004FFEB5F8FE1080B2884215D0012332007E
:10440000FE2168460DF044FEBDF8FE1080B28842E1
:1044100002D0FFF784FF18E04FF4807269462E0047
:10442000300003F0DDFC10E001233200FE2168467D
:104430000DF02EFEBDF8FE1080B2884205D14FF47B
:1044400080726946280003F097FCDFF85C655FF432
:10445000803130000DF07AFE4FF480723100200080
:104460000DF0C5FBFE22290020000DF034FD40B008
:1044700070BD80B54FF48072DFF82C15DFF8180599
:104480000DF0B5FB01BD80B5FFF7F3FFFFF783FF2C
:1044900001BD70B515210022DFF8F8442500280081
:1044A000FDF782FB0020E082002020831121FF2500
:1044B0002A0014F128063000FDF776FB002084F86E
:1044C0003C00012084F83D00012084F83E001121C9
:1044D000002214F13F063000FDF766FB102114F1B5
:1044E00050062A003000FDF75FFB002006E00021A7
:1044F0000200D2B2224482F86F10401C0100C9B2FF
:104500000229F4DB01234FF6FF72FE2120000DF09B
:10451000BFFDA4F8FE00FFF7E5FE70BD10B5010079
:104520001522DFF87044200003F05AFCFFF7DAFE92
:1045300010BD10B504001522DFF85814200003F058
:104540004FFC10BDDFF84C04C08A7047DFF844040C
:10455000008B704710B501000F22DFF85044200097
:1045600003F03EFCFFF7BEFE10BD10B504000F22A5
:10457000DFF83814200003F033FC10BD10B5010043
:104580000E22DFF82C44200003F02AFCFFF7AAFEDD
:1045900010BD10B504000E22DFF81414200003F043
:1045A0001FFC10BD10B501001122DFF808442000E7
:1045B00003F016FCFFF796FE10BD10B504001122A3
:1045C000DFF8F013200003F00BFC10BD10B5010064
:1045D0000322DFF8E443200003F002FCFFF782FE31
:1045E00010BD10B504000322DFF8CC13200003F047
:1045F000F7FB10BD10B501000322DFF8C043200017
:1046000003F0EEFBFFF76EFE10BD10B504000322B1
:10461000DFF8A813200003F0E3FB10BD10B5010084
:104620001122DFF89C43200003F0DAFBFFF75AFE6B
:1046300010BD10B504001122DFF88413200003F030
:10464000CFFB10BD10B501001022DFF87843200029
:1046500003F0C6FBFFF746FE10BD10B504001022A4
:10466000DFF86013200003F0BBFB10BD80B5020033
:10467000D2B2022A01DB002006E0C64AC0B21044D2
:1046800080F86F10FFF72EFE02BD0200D2B2022AA0
:1046900005DAC04AC0B2104490F86F000870704745
:1046A000BC49496F01607047BA494A6F8018486732
:1046B000704780B5B74981F87800FFF713FE02BD57
:1046C000B44991F87820652A02DB322281F87820FB
:1046D00091F878100170704780B5AE4981F8790083
:1046E000FFF700FE02BDAB4991F8791001707047E9
:1046F00080B5A84981F87A00FFF7F4FD02BDA5490D
:1047000091F87A100170704780B5A24981F87B005A
:10471000FFF7E8FD02BD9F4991F87B1001707047DB
:1047200080B59C4981F87C00FFF7DCFD02BD99490A
:1047300091F87C100170704780B5964890F87D1014
:10474000FF2904D090F87D10491C80F87D10FFF7F8
:10475000C9FD02BD80B500208E4981F87D00FFF7BC
:10476000C1FD02BD8B4890F87D10042901DB0021BA
:1047700001E090F87D1080F87D1090F87D0080B207
:104780007047F8B5ADF5805D0020002000200026C0
:104790008D4F01234FF6FF7240F6FE7138000DF089
:1047A00077FCA7F8FE0F5FF49804884D6A464FF433
:1047B000805120000DF0C3FD4FF48052694638004F
:1047C00003F0DAFA002809D04FF4805239002000B3
:1047D0000DF0D8FDC0B2002800D0761C6A464FF418
:1047E000805128000DF0ABFD4FF48052694638002F
:1047F00003F0C2FA002809D04FF480523900280093
:104800000DF0C0FDC0B2002800D0761CF6B2002E1C
:1048100001D1012000E00020C0B20DF5805D01B0A3
:10482000F0BD38B54FF480510022674C25002800B8
:10483000FDF7BAF901234FF6FF7240F6FE71200032
:104840000DF026FCA4F8FE0F31BDF8B5ADF5805D86
:1048500000200020002000255FF498005B4E5A4C99
:1048600022004FF480510DF06AFD6A464FF48051EA
:1048700030000DF064FD40F6FE764FF6FF77012321
:104880003A00310020000DF003FCB4F8FE1F80B2A6
:10489000884216D001233A00310068460DF0F8FB3B
:1048A000BDF8FE1F80B2884203D0FFF7BAFF012592
:1048B0001DE04FF480526946200003F091FA012573
:1048C00015E001233A00310068460DF0E1FBBDF828
:1048D000FE1F80B2884201D0012508E04FF48052CB
:1048E0006946200003F048FA002800D00125EDB207
:1048F000002D00D000200DF5805D01B0F0BD80B529
:10490000FFF7A3FF01BD1CB50DF1010269460020B0
:1049100000F036FB2E4C2078012814D109F029FD37
:10492000002803D19DF80000022807D003F0D6F933
:1049300028490968401A2849884208DB002020706D
:1049400000F006F803E003F0C9F92249086013BD3E
:1049500080B5FFF716FF01BDF8B50C0015001E006D
:10496000002720003200D2B22900200003F004FA10
:10497000002809D0F6B232002900200003F030FAF6
:1049800001201349087000E05A273800C0B2F2BD78
:10499000000000008C1C40208C1D4020F05B4B0070
:1049A00000C04B0000E04B0000404C00EC1C4020DD
:1049B000A61C4020B41C4020C51C4020C81C402020
:1049C000CB1C4020DC1C40200442002000204C0076
:1049D000BE244020F41E4020C127090010B50C0061
:1049E00011001A00D2B2200003F0FAF9002010BD25
:1049F000C0F3C75181B1FF2906D0C110400721F093
:104A0000E04101F16051704741020CBF40F4E00108
:104A10006FF000410020704700F0004100020AD012
:104A2000B0FA80FC00FA0CF001F16051A1EB0C51DE
:104A300001EBD0214005704700B551EC100B00F0A0
:104A400003F841EC100B00BD40F2FF7C1CEA115250
:104A500040F2FE33D21A18DD352A1FDAB2F11503FF
:104A600009DA6FEA4C53D340094201D4401E594140
:104A70000020994370476FF00002DA40094202D4E7
:104A8000801851F100019043704750EA41021CBF69
:104A9000591C090528BF4FF0004100207047000055
:104AA000C1F30A5340F21E42D31A0CDDCA0283F34B
:104AB000070342EA505242F00042DA4002EBE17250
:104AC00082EAE17070476FEAE17203F2E13008B107
:104AD00082F000407047000080B50020424890F806
:104AE0002511022931D1C078192819D023280CD0DA
:104AF000372820D14FF4804102202AF081FC41F672
:104B0000284103202AF07CFC1FE045F6B861022012
:104B10002AF076FC41F6991103202AF071FC14E08A
:104B200046F2666102202AF06BFC40F24711032036
:104B30002AF066FC09E04FF4804102202AF060FC74
:104B40004FF4804103202AF05BFC01BD10B54FF407
:104B5000804100202AF054FC4FF4804102202AF0CA
:104B60004FFC4FF4804103202AF04AFC4FF480416F
:104B700005202AF045FC022102202AF089FC1A4C6B
:104B8000A07CE0706420A074002105202AF038FC8D
:104B90000021062026F039FE0121832026F035FE73
:104BA000532084F8200110BD80B510494B680E4990
:104BB0000978032916D10100C9B2022905D10122C1
:104BC0000C2118002BF04EF90CE0C0B2012809D1DD
:104BD00000220C2118002BF045F94FF480410320EE
:104BE0002AF00EFC01BD0000C0140020E85B4B0061
:104BF00000B500BF130096469446103928BFA0E8C0
:104C00000C50FAD85FEA417C28BF0CC048BF40F87E
:104C1000042BC90728BF20F8022B48BF00F8012B3E
:104C200000BD00002DE9F041DFF888492060002533
:104C30007DE00020306177E0206801682A00D2B270
:104C40003C20424301EB0207DFF86C092900C9B29E
:104C500089010844061D002030700120707000207A
:104C6000B070012086F83A00012086F83B00002051
:104C700086F83000002086F83C00002086F83100DD
:104C80000821002216F11C084046FCF78DFF082180
:104C9000002216F132084046FCF786FF0821002268
:104CA00016F124084046FCF77FFF16F11C0138007E
:104CB00000F070FB8046380000F072FB002201001B
:104CC0004046FCF771FF16F13201380000F062FB3C
:104CD0008046380000F064FB002201004046FCF7EB
:104CE00063FF97F82800FF280AD0B87897F82810B3
:104CF00031440877B87897F82810314481F83200A9
:104D000097F82900FF280AD0002097F8291031448D
:104D10000877002097F82910314481F83200386B69
:104D2000002886D0002030610020B0616D1C280072
:104D3000C0B200283FF480AF0020DFF87C18087074
:104D4000BDE8F08180B5DFF86C2811684968C0B211
:104D5000095C106802680B00DBB23C20434302EBA5
:104D60000300DFF85428C9B289011144091D00224B
:104D70000A78002A04D1002200F06DFB002000E038
:104D80000120C0B202BD80B5DFF82828116849684B
:104D9000C0B2095C106802680B00DBB23C204343E0
:104DA00002EB0300DFF81028C9B289011144091D84
:104DB00001228A700A78002A11D190F82920FF2A4E
:104DC00009D090F829200A44127F52F0100290F87E
:104DD00029300B441A77012200F03DFB2AE00A78C3
:104DE000012A11D190F82920FF2A09D090F8292012
:104DF0000A44127F52F0100290F829300B441A77BF
:104E0000012200F0F0FA15E00A78032A12D14A785C
:104E1000032A0FD190F82920FF2A09D090F82920E1
:104E20000A44127F52F0100290F829300B441A778E
:104E300000F081FB002002BD10B50024DFF87427CC
:104E400011684968C0B2095C106802680B00DBB2E7
:104E50003C2043431A44DFF86007C9B28901084483
:104E6000011D91F83A00002800D101242000C0B2B1
:104E700000280AD1002088700878032805D14878D6
:104E8000042802D1100000F048FB2000C0B210BD81
:104E900001000020DFF81C2712685268C9B2515C7B
:104EA000DFF81427C9B289011144091D0A78032AC1
:104EB00000D001200200D2B2002A02D1002281F8E3
:104EC0003A20C0B2704710B40021DFF8E8462268EB
:104ED0005268C0B2135CDFF8E0061A00D2B2920149
:104EE0001044021D20680468DBB23C204343234485
:104EF0001078032800D001210800C0B2002813D187
:104F000092F83A00002800D001210800C0B2002821
:104F10000AD19C695868041914619C68586804197E
:104F20005460012082F83A000800C0B210BC7047FB
:104F3000DFF88416C0B280010844001D002180F80B
:104F40003B1000207047DFF87016C0B280010844A3
:104F5000001D012180F83B1000207047DFF8581633
:104F6000C0B280010844001D90F83B007047DFF894
:104F70004816C0B280010844001D90F83A007047FE
:104F800010B4DFF830462368002B01D101200EE079
:104F900023685B68C0B2185CDFF81C36C0B28001C1
:104FA0001844001D43780B7000781070002010BC6E
:104FB0007047DFF800261168002901D100200AE0BF
:104FC00011684968C0B2085CDFF8EC15C0B2800116
:104FD0000844001D40787047DFF8D8251168002983
:104FE00001D100200AE011684968C0B2085CDFF80E
:104FF000C815C0B280010844001D00787047DFF872
:10500000B41509684968C0B2085CDFF8AC15C0B2D5
:1050100080010844001D90F83000704710B5002151
:10502000DFF89005006802680B009BB23C20434308
:1050300002EB0300DFF8802589B2890111440C1DC1
:1050400094F83110032906D1008F0DF0BDF900202E
:1050500084F8310005E02178032902D1210000F015
:105060009FFA0020A06110BD70B50122DFF8442531
:10507000126813680400A4B23C2254431C44DFF8B5
:10508000382580B280011044051D626A096815F157
:105090002406300002F0A4FE002694F82900FF2820
:1050A00006D094F82900284490F8246016F00106F0
:1050B0002878002804D12900200000F0F5F921E02B
:1050C0002878012805D100222900200000F08BF962
:1050D00018E02878032815D12900200000F060FA94
:1050E000F6B2002E0ED06878032804D129002000E3
:1050F00000F043FA06E06878042803D12900200074
:1051000000F0F8F970BD70B500243DE0307801285A
:1051100039D13100280000F09FF834E0DFF8940422
:10512000006801682200D2B23C20424301EB020534
:10513000DFF884042100C9B289010844061D3078D3
:105140000328E3D17078052803D13100280000F04E
:105150006BF83100280000F091F896F83A0000282A
:1051600003D03100280000F02DF87078052802D017
:105170007078042807D196F83A00002803D031004F
:10518000280000F08FF8641C2000C0B20028C5D0B1
:1051900070BDDFF8202411684968C0B2095CDFF8EF
:1051A00018040B00DBB29B011844031D1068026851
:1051B000C9B23C20414302EB010090F8340083F86F
:1051C0003C00704780B542684B689A4227D3002262
:1051D0004A604A78052A05D1002281F8312000F082
:1051E00068F920E04A78042A05D1002281F83120AC
:1051F00000F09EF917E04A78032A14D190F829208C
:10520000FF2A09D090F829200A44127F12F0EF02F9
:1052100090F829300B441A7700F09CF903E04A68B3
:105220004068121A4A6001BD80B542688B689A4294
:105230000DD300228A604A78052A0CD18A78002A88
:1052400002D000F048F906E000F036F903E08A6881
:105250004068121A8A6001BD80B54268CB689A42E4
:1052600007D30022CA600A78012A06D100F0E4F8C8
:1052700003E0CA684068121ACA6001BD10B50C008C
:10528000A16900290DD04168A269914205D34078F7
:1052900000F08FF90020A06103E0A1694068091ABD
:1052A000A16110BD80B542680B699A4211D391F893
:1052B0003020012A08D1CA6A002A02D1C26A0A61D2
:1052C00004E0C26A0A6101E042690A6100F006F87E
:1052D00003E00A694068121A0A6101BD38B584B05A
:1052E00004000D000121002015F11C000290606AED
:1052F000039095F83A00002800D10021C9B2002996
:1053000039D095F83100002835D1012085F83100D9
:1053100015F11C01200000F03DF80090200000F085
:105320003FF801906946208F0DF068F8E069A861A8
:1053300095F83B00012804D102A9208C0BF0D4F988
:1053400000E00020C0B2002802D1208F0DF03CF810
:1053500095F8300001280BD1E86A401CE862E86A41
:10536000216B884204D1002085F8300060692861F3
:10537000002085F8310005B030BD0100002091F813
:105380002820FF2A00D0401C91F82910FF2900D0C6
:10539000401C704710B50C00FFF7EFFF204410BD14
:1053A00010B504002000FFF7E8FF616A081A10BD7D
:1053B00090F82920FF2A15D090F829200A44127F5E
:1053C00012F0FE0290F829300B441A7790F8292049
:1053D0000A4492F8322012F0FE0290F829000844A4
:1053E00080F83220704710B50400032008700520B3
:1053F0004870206B00280AD0D2B2002A07D00020C3
:1054000008610020C862012081F8300003E0A26931
:10541000606882180A61E268606882188A60A2681F
:10542000606882184A60607800F0C1F805220221A5
:1054300060780DF03BF810BD10B504000020087036
:1054400001204870607800F0B1F8012202216078F4
:105450000DF02CF810BD10B50400032008700520D5
:105460004870206B00280AD0D2B2002A07D0002052
:1054700008610020C862012081F8300003E0A269C1
:10548000606882180A61A268606882184A60E268EF
:10549000606882188A60607800F089F8052201212E
:1054A00060780DF003F810BD80B5407800F07DF80D
:1054B00001BD80684860704710B504000320087083
:1054C000032048702000FFF773FF03220521607856
:1054D0000CF0ECFF10BD10B5040003200870042090
:1054E00048702000FFF764FF0422052160780CF06B
:1054F000DDFF10BD80B503220A7005224A70C36823
:105500004268D3188B6083694268D3180B61052207
:10551000042140780CF0CAFF01BD80B503220A7057
:1055200003224A700322042140780CF0BFFF01BD22
:1055300080684860704780B503220A7004224A7070
:1055400083694268D3180B610422032140780CF070
:10555000ADFF01BD10B504000120087002204870A5
:105560002069C86000208861607800F021F802227C
:10557000032160780CF09AFF10BD80B503220A70F9
:1055800005224A70C3684268D3188B6083694268F9
:10559000D3180B610522032140780CF087FF01BD71
:1055A0008268406882184A60704770477047704749
:1055B0007047704734024020742E4020704701002D
:1055C00009B2002909D4012210F01F018A40DFF836
:1055D000201B00B2400941F82020704710B5042478
:1055E00008E02000C0B229F029FB200000B2FFF73C
:1055F000E6FF641C200000B2C528F2DB10BD10B528
:10560000DFF8784829F04FFA20702378DFF8702807
:10561000A7A10420FDF79EFD10BDDFF8600800780B
:10562000704738B5DFF8CC0A0468A1A5DFF8C82AAE
:1056300029000820FDF78EFD600705D5DFF8BC2A9C
:1056400029000820FDF786FDA00705D5DFF8B02A60
:1056500029000820FDF77EFDE00705D5DFF8A42A24
:1056600029000820FDF776FD31BD2DE9F04F9FB0F0
:105670001BA8DFF8941A102202F0C2FB00208DF85C
:10568000560000208DF8570001208DF855000020AD
:105690008DF854000DF155000DF0FFF815A80DF030
:1056A000DEF80DF157020DF156010020FFF768FCFE
:1056B0000DF058FE8DF85F000DF067FE8DF85E006E
:1056C0000DF0A4FF8DF85D009DF856000CF074FFFE
:1056D0001A9002F078F9C0B202F04DF9199000204A
:1056E0000BF0E2FA012801D188A407E000200BF0BA
:1056F000DBFA022801D186A400E086A406F072FD40
:105700008DF85C0008F023FE8DF85B0009F079FD50
:105710008DF85A0000F004FD8DF8590000F0C2FB2E
:105720008DF8580007F0C7FC189000F0EAF9050062
:1057300000F099F9C0F3801616F0010600F093F915
:10574000C0F3002717F0010700F025FA002802D166
:105750005FF0010801E05FF0000800F084F9814685
:1057600000F081F9824600F07EF98346FFF755FF8D
:1057700003009DF85F0014909DF85E0013909DF863
:10578000540012909DF8550011909DF85D00109006
:105790001A980F9019980E900D949DF85C000C903B
:1057A0009DF85B000B909DF85A000A909DF85900F7
:1057B00009909DF85800089018980790069505964E
:1057C00004975FFA88F8CDF80C805FEA591919F050
:1057D0000109CDF808905FEADA0A1AF0010ACDF85B
:1057E00004A05FEA5B0B1BF0010BCDF800B0DBB24D
:1057F000DFF820292EA18020FDF7ACFC1FB0BDE80A
:10580000F08F80B5DFF8EC08002181600021817401
:105810000021416100210176002141760021C16112
:105820000021C16000F0FFF901BD000010B562B6B3
:105830000DF004FF0DF07CFF0EF0D8F80BF030FFF8
:105840001BA4DFF8D42821000820FDF783FCDFF833
:10585000CC2821000820FDF77DFCFEF714FEFFF7A1
:10586000ADFEFFF7CEFF06F0BBFDDFF8881891F81C
:105870002100002802D1FFF7C2FE05E091F82100C7
:10588000032801D1FFF7CDFE002010BD80B5FFF742
:10589000B8FF02F06DFA0DF04CFF06F0A7FD0020F6
:1058A0000AF0D8FC0BF006FF0EF0F3F801BD000083
:1058B0007379730001280FD0022810D0082811D066
:1058C000102812D0202812D0402812D0802813D0BF
:1058D000B0F5807F13D015E0DFF8580A14E0DFF848
:1058E000580A11E0DFF8540A0EE097A00CE097A0E8
:1058F0000AE0DFF84C0A07E0DFF8480A04E0DFF8C6
:10590000480A01E0DFF8440A704700004E6F720059
:105910006F666600756E6B007CB504000CF072FE5D
:10592000012020404440DFF8CC57A868204253D1E2
:10593000DFF81C1A0878002816D1202C02D102208A
:10594000087006E0022C02D10120087001E003205B
:105950000870DFF8000A0021C0F8E010D0F830111C
:1059600031F48061C0F8301102F0B8F9060020006F
:10597000FFF7A0FF03000096DFF8DC29A1A10420B7
:10598000FDF7E8FBDFF8CC69C6F8D840A8682043EB
:10599000A860DFF8C8090068C6F8B8000020F073F6
:1059A0000CF07CFE202C0ED1D6F8E00002280AD0A4
:1059B0000120C6F8E000707F012804D140F2911167
:1059C0000120FBF705FF022C06D1D6F8E0000228E3
:1059D00002D00120C6F8E00020000CF0ABFE73BD41
:1059E0007CB50400DFF80C57A8682040A04239D1EC
:1059F00002F074F906002000FFF75CFF0300009638
:105A0000DFF864297FA10420FDF7A4FBA868A04368
:105A1000A8600CF043FE202C24D100208DF800005B
:105A200000208DF801000DF1010269460020FFF70A
:105A3000A7FA9DF8000004280BD1DFF81809D0F868
:105A4000D800202804D14FF4DE710220FBF7C0FEFD
:105A500008E09DF80000032804D040F2C3110220A2
:105A6000FBF7B6FE73BDDFF88C06806870473EB565
:105A70000020FFF7F8FF0400DFF8785668698442D9
:105A800014D0FFF7F0FF002801D1002000E0012032
:105A9000A8746C6105208DF80000A87C8DF80400C6
:105AA000686902906946002006F0F3FA37BD1FB519
:105AB000DFF8404607F0FCFAE06107F07AFAE168A7
:105AC000642902D27820E06103200100227EC9B25D
:105AD000914211D0217E6176207606208DF800005B
:105AE000607E8DF80400207E8DF80500E06902904C
:105AF0006946002006F0CDFA1FBDDFF8F805007EEC
:105B00007047DFF8F005C0697047C0B2002808D0C0
:105B100002280CD008D304280FD00BD305280FD0AF
:105B200010E0DFF848080EE0DFF844080BE0DFF88B
:105B3000440808E0DFF8400805E0DFF8400802E02C
:105B400087A000E086A07047504E430041434300C9
:105B50007CB50400DFF89C5595F820002100C9B2FF
:105B6000884212D02000C0B2FFF7CFFF060095F8A0
:105B70002000FFF7CAFF03000096DFF8042821A1E8
:105B80000820FDF7E7FA85F8204073BDDFF86405CB
:105B900090F82000704738B50120DFF8E8472078FA
:105BA000002805D101F00FFF012801D1012027E0D5
:105BB000012020706D2025F015FEDFF8CC47010094
:105BC0002278C9B2914205D0207002F087F8DFF840
:105BD000BC17086002F082F8DFF8B0572968401A55
:105BE00006280ADBDFF8A80701782278914204D062
:105BF0002178017002F072F82860DFF894070078CD
:105C000032BD000073797300DFF8E804008A40F2C7
:105C1000DC51884201DA002000E001207047DFF803
:105C2000D404008A704780B5DFF8C814088A0028B9
:105C30000AD00020088202F051F80300DFF8542750
:105C40008DA10420FDF786FA01BD10B5DFF8A4444C
:105C5000208A4FF6FF7188421CD0208A002808D184
:105C600002F03CF80300DFF8302783A10420FDF7A1
:105C700071FA208A401C2082208A40F2DC5188423E
:105C800008D102F02BF80300DFF810277AA10420D6
:105C9000FDF760FA10BD10B54FF6FF70DFF8544401
:105CA000618C814202D0618C491C6184E16881422F
:105CB00002D2E068401CE060FFF7D5FE800603D406
:105CC000FFF7D1FEC00502D5FFF7BFFF01E0FFF7E8
:105CD000AAFF206B401C2063FFF758FF042803D065
:105CE000FFF754FF012805D107F01EFA00F0DAF89B
:105CF00000F016FAFFF74AFF002805D0FFF746FF2D
:105D0000012801D007F0E1F910BD80B5FFF73EFF93
:105D1000042807D0FFF73AFF012803D0FFF73BFF25
:105D2000002805D10DF0BDFEFFF7A1FEFFF7BFFE75
:105D300001BDC0B2002812D10878012806D002287F
:105D40000AD0032809D0062808D008E00020DFF890
:105D5000A41381F8210002E001E000E0FFE77047B2
:105D60004D617800C9B2002901D0112000E0112056
:105D700070473EB5FFF70AFF0400FFF707FF002852
:105D800006D0012808D0032840D004281CD05BE0AE
:105D90000120FFF7DDFE5AE0FFF748FD002802D0A2
:105DA0000320FFF7D5FE02208DF800006946002091
:105DB00006F06FF9DFF8E8252FA10820FDF7CAF9F2
:105DC0000420FFF7C5FE42E0CA48418CB1F57A7F56
:105DD00003DB00214184FFF748FCFEF794FD06F049
:105DE00004F9002811D00DF05CFEDFF8B82522A1DF
:105DF0000820FDF7AFF90320FFF7AAFE03208DF876
:105E000000006946002006F044F920E00DF049FE4C
:105E1000DFF8942518A10820FDF79CF900200AF06E
:105E2000EBFA00216E2025F0F0FC01F057FF050091
:105E3000FFF7B1FE002804D001F050FF401B1A28E4
:105E4000F6DB28F05AFA02E00020FFF781FE250079
:105E5000FFF79CFEEDB2854204D0A64880F82140B1
:105E600000214184FFF797FE002802D12020FFF790
:105E700053FD0BF090FC37BD73797300E533402080
:105E80001C244B0080B50020FFF793F8012807D1B0
:105E900001F024FF40F6B931884201DB012000E027
:105EA000002002BD7FB5DFF80445207800284DD0E2
:105EB000022800F0948080F0DB8007F0F9F8B52824
:105EC00019D3DFF8EC54287802283ED001F006FF01
:105ED000060007F0EDF800960300DFF8D82483A150
:105EE0000420FDF737F90220287001F0F7FEDFF8F3
:105EF000C814086029E007F0DBF8502819D3DFF850
:105F0000B0542878002820D001F0E8FE060007F001
:105F1000CFF803000096DFF8A42474A10420FDF755
:105F200019F90020287001F0D9FEDFF88C14086000
:105F30000BE0DFF87C040178012906D00121017013
:105F400001F0CCFEDFF8701408609CE007F0B0F8B8
:105F5000B92819D3DFF85854287802283ED001F028
:105F6000BDFE060007F0A4F800960300DFF85024F9
:105F70005EA10420FDF7EEF80220287001F0AEFECD
:105F8000DFF83414086029E007F092F84C280CD3AD
:105F9000DFF81C140878002820D00020087001F0D9
:105FA0009DFEDFF81414086018E0DFF80454287828
:105FB000012813D001F092FE060007F079F8009650
:105FC0000300DFF8002449A10420FDF7C3F80120F5
:105FD000287001F083FEDFF8E013086053E007F05B
:105FE00067F8502819D2DFF8C853287801283ED026
:105FF00001F074FE060007F05BF800960300DFF87E
:10600000C8233AA10420FDF7A5F80120287001F06B
:1060100065FEDFF8A413086029E007F049F8B52809
:1060200019D2DFF88C532878002820D001F056FED2
:10603000060007F03DF800960300DFF890232BA13F
:106040000420FDF787F80020287001F047FEDFF8F4
:10605000681308600BE0DFF858030178022906D0C6
:106060000221017001F03AFEDFF84C1308600AE0EB
:10607000002020700020DFF83813087001F02EFE99
:10608000DFF83413086001F029FEDFF82C63316873
:10609000401A40F2D171884225DBC54D287821781D
:1060A000884220D001F01AFE306001F017FE060091
:1060B00006F0FEFF01002878002801D113A005E0BA
:1060C0002878012801D112A000E0C148039602916E
:1060D0000190287800902378BE4A04A10420FDF79F
:1060E00039F828782070207804B070BD7379730077
:1060F00080E200E0C800402038244B006C244B00B4
:1061000088244B00A4244B0090294B006F6B0000A7
:106110004C6F7700F4244B00B4254B00BC254B009A
:106120007FB5AD4C2078002845D0022800F084804F
:1061300080F0C38006F0BCFFBA2816D3A74D28789C
:10614000022837D001F0CAFD060006F0B1FF009624
:106150000300A34A76A10420FCF7FCFF022028706C
:1061600001F0BCFD9F49086024E006F0A1FF4B2828
:1061700016D39A4D287800281CD001F0AFFD0600F8
:1061800006F096FF03000096974A69A10420FCF7E9
:10619000E1FF0020287001F0A1FD9249086009E0AC
:1061A0008E480178012905D00121017001F096FD8A
:1061B0008C4908608AE006F07BFFBE2816D3874D25
:1061C0002878022837D001F089FD060006F070FF1C
:1061D00000960300854A56A10420FCF7BBFF02206D
:1061E000287001F07BFD7F49086024E006F060FF25
:1061F00047280AD37949087800281CD00020087065
:1062000001F06CFD7749086015E0744D287801288D
:1062100011D001F063FD060006F04AFF009603006E
:10622000734A43A10420FCF795FF0120287001F078
:1062300055FD6C49086049E006F03AFF4B2816D23C
:10624000664D2878012837D001F048FD060006F099
:106250002FFF00960300674A35A10420FCF77AFF60
:106260000120287001F03AFD5E49086024E006F044
:106270001FFFBA2816D2594D287800281CD001F0EB
:106280002DFD060006F014FF009603005A4A28A1CF
:106290000420FCF75FFF0020287001F01FFD51492A
:1062A000086009E04D480178022905D002210170FB
:1062B00001F014FD4B49086008E000202070002028
:1062C0004649087001F00AFD4649086001F006FDE4
:1062D000444E3168401A40F2D171884225DB3F4D6F
:1062E00028782178884220D001F0F8FC306001F055
:1062F000F5FC060006F0DCFE01002878002801D13C
:1063000017A005E02878012801D116A000E0304848
:10631000039602910190287800902378374A04A1CF
:106320000420FCF717FF28782070207804B070BD97
:1063300073797300D0254B00D8254B00E0254B0026
:10634000E8254B00F0254B00F8254B0004264B00B8
:1063500089244020C014002010264B00F81E402045
:106360006F6B00004C6F77002C264B0048264B00CB
:1063700050264B0058264B0068264B0070264B00D9
:1063800078264B008A244020E6334020FC00402041
:10639000E733402094264B00A4264B00B4264B0044
:1063A000CC264B00F8264B0010274B008B244020B6
:1063B0008C24402050274B000001402078274B00C0
:1063C000A0274B00C8274B00F0274B0018284B0094
:1063D0006C284B0040284B008D2440208E24402008
:1063E00074284B00040140209C284B00C4284B001B
:1063F000EC284B0014294B003C294B0064294B002E
:10640000DFF8781A096809680968B0FBF1F070478D
:106410000200002000231278002A04D0012A05D1AE
:1064200009680B7802E009684B78FFE713F0F00188
:10643000C9B2002906D0102906D0202906D030295B
:1064400006D014E0012012E0022010E003200EE04C
:1064500013F00F03002B03D0022B05D002D305E06D
:10646000042004E0042002E0042000E00420C0B284
:10647000704730B4002300230078002835D001286D
:1064800035D100230020087010681C00E4B22044BD
:10649000407814681D00EDB2645D14F00F0424020E
:1064A00054FA80F000281ED110681C00E4B2204489
:1064B000807814681D00EDB22C44E478240454EA7A
:1064C000006410681D00EDB22844007954EA0024ED
:1064D0001068DBB2184440792043B0F5805F00D2E9
:1064E000002001220A7030BC70470123CAE7002057
:1064F000F9E7012101740021C172002141800021CE
:10650000018000214161002181610021C1610021E0
:10651000A0F86610002180F864104FF6FF71A0F813
:1065200068107047012101740021C172002141806F
:106530000021018000214161002181610021C161B0
:10654000022180F864104FF6FF71A0F868107047C0
:106550002DE9F84305000C0016001F00DDF820802F
:106560000020C8F80000207C032806D014F11C028B
:106570006169A8880DF0B3FA0AE0DFF8981C0020E2
:1065800048600020086014F11C02A8880DF09AFAF7
:106590000100C9B200291DD1DFF8789CC9F800605C
:1065A000E069B84208D3C9F8047014F11C024946E6
:1065B000A8880DF087FA00E002200100C9B2002986
:1065C00008D1D9F80410C8F80010A269D9F804104D
:1065D0008A18A261C0B2BDE8F28330B40300002083
:1065E00000244024E4B2A2420BD2002005E00C5C5F
:1065F00003EB000585F82040401C9042F7D31A6653
