:020000040041B9
:10C00000A55AA55A010000000000000000C8410028
:10C010000000000000C841000000000000C841000E
:10C020000000000000000000000000000000000010
:10C03000FFFFFFFFFFFFFFFFFFFFFFFFFFFFFFFF10
:10C04000FFFFFFFFFFFFFFFFFFFFFFFFFFFFFFFF00
:10C05000FFFFFFFFFFFFFFFFFFFFFFFFFFFFFFFFF0
:10C8000000000120B1CC4100FBDC420031A9420014
:10C81000931543007F554300A38E430000000000A2
:10C82000000000000000000000000000D79043005E
:10C83000B3B3430000000000A3BB430063C943003F
:10C840004BCA43004BCA43004BCA43004BCA430088
:10C850004BCA43004BCA43004BCA43004BCA430078
:10C860004BCA43004BCA43004BCA43004BCA430068
:10C870004BCA43004BCA43004BCA43004BCA430058
:10CC00004BCA43004BCA4300000000000000000074
:10CC100009000000E02D402074774400F87D4400B6
:10CC200064344020F87D4400B87E44002435402020
:10CC3000BC7E4400BC7E440000404020B87E4400DE
:10CC4000BC7E4400D8454020BC7E4400BC7E4400ED
:10CC5000007C4020BC7E4400BC7E440000000020DC
:10CC600000C8410008CC410008040020BC48440032
:10CC70007477440000000000BC7E4400BC7E440089
:10CC800004000000000040205E2740206027402074
:10CC9000DD2D402040404020D845402000000000CD
:10CCA0000000000000BF00BF00BF00BFFAE70000A7
:10CCB00072B6002100220023002400250026002750
:10CCC000B846B946BA46BB46BC464FF06400013888
:10CCD0000028FCDC49480168494A01EA02010029B0
:10CCE00017D148480168464A41EA020101604648B6
:10CCF0000168012241EA020101604448444901609F
:10CD0000444901603D4801683D4A01EA02010029A9
:10CD1000F8D04148414901604149086820F00400C9
:10CD200040F0010008603F49086820F0040040F02E
:10CD3000010008603C4880F308883C4801680020F6
:10CD4000814200D028E03A483A4901603A490160FE
:10CD50003A483B49016008E03A48364901603649A3
:10CD60000160394836490160FFE73848002813D090
:10CD700037480168012201EA0201002902D0354941
:10CD8000354A01E03549344A521A013A04DD00209F
:10CD9000002309C1083AFCDA3148002809D031499A
:10CDA000314A521A013A04DD0020002309C1083A31
:10CDB000FCDA2E48002809D02D492E4A521A013A91
:10CDC00004DD0020002309C1083AFCDA2A48006883
:10CDD0002A498842FAD0154801680020814202D0D1
:10CDE00020F076FD01E020F0F5FC10F08FFF62B638
:10CDF00010F084FF0DF071FD00BFFEE710C32D4061
:10CE00000000000130C32D4004C32D4000C02D4060
:10CE1000F05A00000FA5000008ED00E0000000201F
:10CE200094EF00E090EF00E00000012004002640B5
:10CE30001000274020C5000028D90000000027402E
:10CE4000400000FF10C0464000C046400100000006
:10CE500000C028400000402000804020000040200A
:10CE6000010000000000002000000120010000007F
:10CE70000000000000800000BC2D40205A5A5A5A81
:10CE80002DE9F04186B004000D0016001F0002A835
:10CE9000102100F0C9FC042100220DF104084046D5
:10CEA00000F0C6FC300080B2000A8DF804003000AB
:10CEB0008DF805008DF806702800C0B2ADF80800A6
:10CEC0000320ADF80E0000208DF8100001A8059099
:10CED00002A92000C0B218F007FA8DF800009DF8F2
:10CEE000000006B0BDE8F0812DE9F04186B00400F5
:10CEF0000D0016001F0002A8102100F095FC04216F
:10CF000000220DF10408404600F092FC300080B28F
:10CF1000000A8DF8040030008DF80500ADF80850C7
:10CF20000220ADF80E0000208DF8100001208DF8D1
:10CF30000D0001A8059002A92000C0B218F0D4F994
:10CF4000ADF808500120ADF80E0001208DF810005A
:10CF500000208DF80D0001A8059002A92000C0B2A4
:10CF600018F0C2F9059800788DF800009DF80400CB
:10CF700038709DF8000006B0BDE8F08138B5012199
:10CF80006E201EF0E4F9642000F004FD01216F2002
:10CF90001EF0DDF9642000F0FDFC012188201EF068
:10CFA000D6F9642000F0F6FC012180201EF0CFF9B4
:10CFB000642000F0EFFC01218A201EF0C8F96420F3
:10CFC00000F0E8FC01210D201EF0C1F9642000F002
:10CFD000E1FC012101201EF0BAF94FF47A7000F053
:10CFE000D9FCDFF8F847E31D0D2240210120FFF7AF
:10CFF0007BFF00F07BFD9B20E07140F213350023A6
:10D000002A0028210120FFF73BFF802340F21D3238
:10D0100028210120FFF734FF00234FF44572282117
:10D020000120FFF72DFF802340F216322821012036
:10D03000FFF726FF042340F2173228210120FFF7D3
:10D040001FFF182340F2193228210120FFF718FF93
:10D05000072340F24B4228210120FFF711FF002354
:10D0600040F24C4228210120FFF70AFF242340F21E
:10D070004D4228210120FFF703FF242340F24E42B6
:10D0800028210120FFF7FCFE002340F24F42282117
:10D090000120FFF7F5FE00234FF48A6228210120CA
:10D0A000FFF7EEFE012340F2514228210120FFF755
:10D0B000E7FE012340F2524228210120FFF7E0FE63
:10D0C000152340F26D4228210120FFF7D9FE0023ED
:10D0D00040F2611228210120FFF7D2FE24234FF4F1
:10D0E000487228210120FFF7CBFEE0799B2803D16D
:10D0F000142000F04FFC02E0642000F04BFCE079CB
:10D100009B2822D1122340F2893240210120FFF7CF
:10D11000B7FE7D234FF4607240210120FFF7B0FE7F
:10D12000002340F2873240210120FFF7A9FE94231B
:10D1300040F2853240210120FFF7A2FE182340F281
:10D14000863240210120FFF79BFEE0799B2802D127
:10D15000642000F01FFCE0799B280BD131231022C2
:10D1600028210120FFF78CFE02232A00282101201C
:10D17000FFF786FEE0799B2806D1002340F2EB22E0
:10D1800040210120FFF77CFEE0799B2802D164203A
:10D1900000F000FCE0799B280DD1B82340F2EB228F
:10D1A00040210120FFF76CFE002340F2D3224021F2
:10D1B0000120FFF765FEE0799B2802D1642000F092
:10D1C000E9FBE0799B2806D1B82340F2D322402125
:10D1D0000120FFF755FE00F089FC40F6B83000F062
:10D1E000D9FB31BD2DE9F04186B004000D001600D9
:10D1F0001F0002A8102100F017FB042100220DF1EE
:10D200000408404600F014FB462000F0C3FB300049
:10D2100080B2000A8DF8040030008DF80500ADF8EA
:10D2200008500220ADF80E0000208DF810000020FC
:10D230008DF80D0001A8059002A92000C0B218F0D9
:10D2400053F8462000F0A6FBADF808500120ADF8D9
:10D250000E0001208DF8100000208DF80D0001A8AF
:10D26000059002A92000C0B218F03EF88DF8000029
:10D270009DF8040038709DF80000002801D00120BE
:10D2800000E00020C0B206B0BDE8F0812DE9F04119
:10D2900086B004000D0016001F0002A8102100F047
:10D2A000C3FA042100220DF10408404600F0C0FA40
:10D2B00030008DF80400ADF808500120ADF80E00E4
:10D2C00000208DF8100000208DF80D0001A80590B9
:10D2D00002A92000C0B218F007F80A2000F05AFB9B
:10D2E000ADF808500120ADF80E0001208DF81000B7
:10D2F00000208DF80D0001A8059002A92000C0B201
:10D3000017F0F2FF8DF800009DF8040038709DF8CA
:10D310000000002801D0012000E00020C0B206B0CB
:10D32000BDE8F08110B40200002000238B4203DA34
:10D33000D45C00195B1CF9E7C0B210BC704710B494
:10D340000300002000248C4203DA1A5D5040641C64
:10D35000F9E7C0B210BC70472DE9F04786B0040071
:10D360000D0016001F00DDF8388000208DF8000049
:10D3700002A8102100F058FAE22088F800003000DE
:10D3800080B2C01C001288F80100F01C88F802006E
:10D390003800000C88F803003800000A88F8040000
:10D3A00088F80570B1461FFA89F90F98019018F1B5
:10D3B000060A4A460199504600F03AFCDFF81CA4E0
:10D3C000310089B2C91C18F10300FFF7ABFF8AF8DE
:10D3D0000B00310089B2C91C18F10300FFF7AFFF41
:10D3E0008AF80C009AF80B00310089B24144887128
:10D3F0009AF80C00310089B24144C8712800C0B2CB
:10D40000ADF8080016F10800ADF80E0000208DF808
:10D410001000CDF8148000208DF80B0002A9200028
:10D42000C0B217F061FFC0B206B0BDE8F0872DE9C9
:10D43000F84F84B004000D00160000208DF80C0099
:10D440000A270A208DF800005FF0000B00F09FFA19
:10D450008046DFF88893D9F830202900300000F0AA
:10D460003BFCC9F830005FF00A0A5046C0B2002801
:10D4700000F092800196DFF86803009004F17F438A
:10D4800013F57F032A0092B220210120FFF764FFE9
:10D490001E2000F07FFA0A2007003800C0B20028E2
:10D4A00031D003ABF52220210120FFF7EFFE9DF8DC
:10D4B0000C00EE2807D13B00DBB2CA4A7EA108204F
:10D4C00000F020FE1FE001F05AF8BE2000F062FAE2
:10D4D0003800C0B200909DF80C30C34A76A10820F5
:10D4E00000F010FE00F053FAB0EB080040F6AC512B
:10D4F000884206DB00F0FAFA01F041F800F047FA42
:10D5000080467F1EC9E73800C0B2002808D1B74A5C
:10D5100069A1082000F0F6FD642000F03BFA38E035
:10D5200003ABF22220210120FFF7B0FE9DF80C0092
:10D5300099F80B10884212D1D9F83000029099F86E
:10D540000B00019004F17F4010F57F0000902B004C
:10D55000A74A59A1082000F0D5FD00201DE0642055
:10D5600000F018FA0FF2501B5046C0B200909DF820
:10D570000C30A04A5946082000F0C4FD5046C0B205
:10D58000012806D19DF80C309B4A5946082000F02E
:10D59000B9FDBAF1010A68E7012005B0BDE8F08FD6
:10D5A00000002DE9FF4704000D0000208DF80C005D
:10D5B0000026FFF7E3FC00F0E2FF904FD7F8008071
:10D5C000DFF818925FF0FF30C9F8300019F10D0351
:10D5D0004AF2B40220210120FFF704FE19F10E03E4
:10D5E0004AF2B50220210120FFF7FCFD19F11103D9
:10D5F0004AF2B80220210120FFF7F4FD19F11203CD
:10D600004AF2B90220210120FFF7ECFD0FF2A80A2F
:10D6100099F81200029099F81100019099F80E0003
:10D62000009099F80D30764A5146082000F06AFDC6
:10D630005FF00A094846C0B2002838D003ABF12297
:10D6400020210120FFF722FE9DF80C00EE2801D1D9
:10D6500000202DE0BE2000F09DF93868B0EB0800F6
:10D6600040F6AC5188420AD300F040FA00F087FF40
:10D6700038688046634A5146082000F043FD48461A
:10D68000C0B200909DF80C305F4A5146082000F06F
:10D6900039FD4846C0B2012806D19DF80C305B4ADE
:10D6A0005146082000F02EFDB9F10109C2E7012022
:10D6B00004B0BDE8F0870000737973000120704763
:10D6C0002DE9FE4F040000208DF808000020ADF881
:10D6D0000000002001905FF0000A5FF0000B474D52
:10D6E0002E684B4800F012FB07002100042000F0D8
:10D6F0008DFF80465FF00A09484680B200281AD0A4
:10D7000002ABF32220210120FFF7C0FD9DF80800A5
:10D71000F32810D0BE2000F03DF9484680B2012821
:10D7200006D19DF808303B4A2BA1082000F0EAFC06
:10D73000B9F10109E0E740F21D1A504680B2002815
:10D7400047D002ABF42220210120FFF79FFD9DF876
:10D750000800EE281DD102ABFE2220210120FFF798
:10D7600095FD1DA59DF808302B4A2900082000F0E2
:10D77000C9FC474501D100202CE09DF8080001902C
:10D7800000974346254A2900082000F0BBFC0120F1
:10D7900020E0BE2000F0FEF82868801B40F6AC5167
:10D7A00088420AD31E4A0CA1082000F0ABFC00F00E
:10D7B0009DF900F0E4FE28680600504680B201287A
:10D7C00004D1184A04A1082000F09CFCBAF1010A17
:10D7D000B3E70120BDE8FE8F73797300CC430020CE
:10D7E0000833002078DF430098DF4300CCDF43009C
:10D7F000F8DF430048E043007CE04300242240205F
:10D80000A8E04300D4E04300ECE0430020E1430003
:10D81000FC4300204CE1430078E1430098E14300E1
:10D82000D8E14300F4E14300002200F025BF0000EE
:10D8300062F30F2262F31F42401810F0030308D076
:10D84000C91A1FD3DB0748BF00F8012D28BF20F8F5
:10D85000022D130030B414461546103928BF20E9B4
:10D860003C00FAD8490728BF20E90C0048BF40F81F
:10D87000042D890028BF20F8022D48BF00F8012D93
:10D8800030BC7047C91818BF00F8012DCB0728BF5E
:10D8900000F8012D70470000002058490860002062
:10D8A00057490860574800210180002181700021FC
:10D8B000C17000218180002053490860704780B505
:10D8C0000022524960201EF07FFE022160201FF0DE
:10D8D000EDFC60201EF083FE00201DF079FF49F66C
:10D8E000404100201EF034F800201EF090F8FFF7B1
:10D8F000D3FF01BD80B51DF0BFFFFFF7CDFF01BD18
:10D900003E480168491C01603F480168491C0160AC
:10D910003C488188491C81808188B1F57A7F14DB7D
:10D9200000218180C178491CC170C1783C290CDB81
:10D930000021C1708178491C817081783C2904DB09
:10D94000002181700188491C018031480178C90794
:10D9500005D50178491E027861F3000202702D4955
:10D960000A78521C0A700A780A2A0FDB00220A7011
:10D970000178C1F34001C9B2002907D00178C9B2CA
:10D980004908491E027861F34102027070471E483F
:10D990000068704770B504000025FFF7F8FF060027
:10D9A000FFF7F5FF801B8442FADA70BD80B5FFF700
:10D9B000A7FF01BD1648007810F0010090F00100AB
:10D9C000C0B270471248017851F0010101700C4853
:10D9D0000168491C016070470D480078C0B24008DA
:10D9E00010F0010090F00100C0B2704708480178C3
:10D9F00051F0020101707047000000002422402015
:10DA000028224020302240202C2240203DC24300CA
:10DA10005B2740205C27402080B5FFF750FF01BD09
:10DA200080B5FFF767FF01BD10B504006E480460C4
:10DA300001F026F801F0C2FD012001F081FE10BDC9
:10DA400080B501F0BCFD01F0FEFF01F053F801BD0F
:10DA500070B504000D00160032002900200080B2CD
:10DA600001F02CF9C0B270BD70B504000D001600B5
:10DA700032002900200080B201F076F970BD38B57F
:10DA800004000D002900C9B2200080B201F09CFA08
:10DA900031BD10B50400200000F065FE002801D063
:10DAA00000202070002010BD10B50400200000F000
:10DAB0007FFE002801D001202070002010BD38B565
:10DAC00004000D002900C9B2200080B201F015FC4D
:10DAD00031BDF8B504000D0016001F003B003200F8
:10DAE0002900200080B201F04BFBF2BD2DE9F84384
:10DAF00084B0002500243C4800688068C0688668BF
:10DB000096F82000002832D1F0690400002C2CD0B7
:10DB1000207F052829D1200000F05DFE0500A8889F
:10DB2000606003208DF800007F208DF801006846BA
:10DB3000B1684968097881707821C17004275FF065
:10DB400055080DF10409424639004846FFF770FEBA
:10DB500068460290082003900220FFF71BFF02A9ED
:10DB60000A2013F01BFD01F0DCFD2436C8E705B0E8
:10DB7000BDE8F0837FB504001B4800680068806A38
:10DB8000056828782100C9B2884204D0A879002805
:10DB900001D10835F5E7A879002823D106208DF8B2
:10DBA000000050208DF8010068468470698889B2B1
:10DBB000090A8DF8031069880171A9880A2291FB6E
:10DBC000F2F6310089B2090A8DF8051086715520E8
:10DBD0008DF80700684602900820039002A90A20E9
:10DBE00013F0DCFC7FBD0000880940201FB5040055
:10DBF00002208DF8000051208DF8010068468470E5
:10DC000055218DF803105521017155208DF805001F
:10DC100055208DF8060055208DF8070068460290C3
:10DC20000820039002A90A2013F0B8FC1FBD0000D1
:10DC300062B38B0708D0521E11F8013B00F8013B7C
:10DC400000F024808B07F6D1830740F0208000BFCE
:10DC5000103A07D330B4B1E83810103AA0E83810C1
:10DC6000F9D230BC530724BFB1E80810A0E808106F
:10DC700044BF51F8043B40F8043BD20724BF31F8BD
:10DC8000022B20F8022B44BF0B7803707047121F41
:10DC900017D35B0009D151F8043B20F8023B1B0C61
:10DCA000121F20F8023BF6D20BE051F8043B00F8BB
:10DCB000013B1B0A20F8023B1B0C121F00F8013B22
:10DCC000F3D238BF121D521E24BF11F8013B00F8D9
:10DCD000013BF8D87047000070B4030012F1010F47
:10DCE00002D15FF0FF30020000248C420BD2174DAE
:10DCF00002F0FF061878464055F8260090EA1222F6
:10DD00005B1C641CF1E7100070BC704702685FF098
:10DD1000FF314A4002600068704770B403005FF052
:10DD2000FF3000248C420BD2084D00F0FF061A7819
:10DD3000564055F8262092EA10205B1C641CF1E73F
:10DD40005FF0FF32504070BC70470000400244005A
:10DD500070B40300100000249C4215D20E5D90EABE
:10DD60000620002635002E00F6B2082E0AD2060440
:10DD700005D5060041F2210090EA460000E040008F
:10DD80006D1CF0E7641CE7E780B270BC70472DE9BA
:10DD9000F04104000D0016001F003800C0B2012839
:10DDA00002D14FF6FF7800E0B046424692B2210021
:10DDB0002800FFF7CDFF80B2BDE8F08180B50120DB
:10DDC00003F020F801BD80B5012003F0B3F801BDD8
:10DDD00038B504000D002A00D2B22100012003F062
:10DDE00028F932BD38B504000D002A0021000120B9
:10DDF00003F0F5F932BD10B504002100C9B20120CD
:10DE000003F0A8F910BD80B5012003F06AF902BD46
:10DE100080B5012003F048FA01BD10B504002100CF
:10DE2000C9B2012003F02CFA10BD80B5012003F027
:10DE300092F802BD10B5FFF7F8FF002808D0DFF810
:10DE4000B0462078012803D0FFF7B8FF01202070EA
:10DE500010BD10B5DFF898462078002803D0FFF7F2
:10DE6000B2FF0020207010BDF8B504002000C0B241
:10DE7000612803DB2000C0B27B280BDB2000C0B28E
:10DE8000412803DB2000C0B25B2803DB2000C0B2C6
:10DE90000D284BD1DFF85C56287D142801D30020D3
:10DEA0002875287D2C54287D401C28752000C0B280
:10DEB0000D283FD1DFF84016280003F0BBFB0028F7
:10DEC00006D1DFF83816280003F0B4FB002804D090
:10DED0000120DFF82C1608701EE0DFF82816280055
:10DEE00003F0A8FB002806D1DFF81C16280003F079
:10DEF000A1FB002804D00020DFF8041608700BE016
:10DF0000DFF80816280003F095FB002804D1DFF89D
:10DF10000016280003F08EFB002028751426002729
:10DF20003A0031002800FFF783FC03E00020DFF80F
:10DF3000C4150875F1BD38B501216846FFF748FFE3
:10DF400004002000C0B2002802D1FFF761FF0EE0FC
:10DF5000002528002100C0B2C9B28842ECD2684630
:10DF60002900C9B2405CFFF77FFF6D1CF1E731BDAE
:10DF700038B50400002000252800C0B2FF2806D0D4
:10DF80002800C0B2205C002801D06D1CF4E72900F5
:10DF9000C9B22000FFF726FF32BDFEB504000D0018
:10DFA0006846DFF8701591E84C0080E84C000026C8
:10DFB00000270A200100C9B2002913D0411E0E001B
:10DFC0000A21B4FBF1F201FB124130316A46330001
:10DFD000DBB2D1547F1C0A21B4FBF1F4002C01D038
:10DFE000401EE7E70B2D08D23800C0B2A84204D289
:10DFF00028000700D7F10A0006003900C9B26846B8
:10E000003200D2B21044FFF7EDFEFEBDF8B584B089
:10E0100004000D0002A8DFF800150622FFF708FE35
:10E02000684602A90622FFF703FE5B20FFF7E3FE26
:10E030000221BDF80000FFF7B0FF3A20FFF7DBFE3A
:10E0400002219DF80200FFF7A8FF3A20FFF7D3FE58
:10E0500002219DF80300FFF7A0FF2E20FFF7CBFE63
:10E060000321BDF80400FFF798FF5D20FFF7C3FE12
:10E0700023A63000FFF77CFFE00704D5DFF89C04FF
:10E08000FFF776FF2DE0A00704D5DFF89404FFF733
:10E090006FFF26E0600704D5DFF88804FFF768FF0C
:10E0A0001FE0200704D5DFF88004FFF761FF18E0C8
:10E0B000E00604D5DFF87404FFF75AFF11E0A0066C
:10E0C00004D5DFF86C04FFF753FF0AE0600604D5BF
:10E0D000DFF86004FFF74CFF03E0DFF85C04FFF7B4
:10E0E00047FFAEA73800FFF743FF3000FFF740FFC0
:10E0F0002800FFF73DFF3800FFF73AFF05B0F0BDFD
:10E100005B0000000BB42DE9F04F88B09246DFF8B9
:10E110002C0403905FF0A049DFF8D40300780028B6
:10E1200000F036819DF84400002800F03181DFF8CE
:10E13000D0030078002804D19DF84400802840F0E6
:10E1400027819DF8440040280DD10120FFF765FE8E
:10E15000FFF75EFEFFF757FE002804D14846B0F1F6
:10E1600001090028F4D10020FFF757FE12999DF80D
:10E170004400FFF74BFF0DF14C0B9AF8000000280C
:10E1800000F0F180002006001AF80600252805D0CE
:10E190001AF80600002801D0761CF5E73100504639
:10E1A000FFF720FEB2449AF800002528E5D11AF1C5
:10E1B000010A0020040020208DF80000504610F1D4
:10E1C000010A0078253800F0C2800B3809280ED9E2
:10E1D000283867D00B381CD0401E24D00C3861D0B2
:10E1E000C01E35D0801E51D0C01E5BD0B5E01AF8DD
:10E1F000010C302804D1002C02D130208DF8000011
:10E2000020000A2404FB00F41AF8010C3038041929
:10E21000D4E7DBF800001BF1040B0190012101A8F9
:10E22000FFF7E0FDA9E7DBF800001BF1040B01900C
:10E23000002007000198002805D501984042019070
:10E240000120050001E0002005000A20804634E09E
:10E25000DBF800001BF1040B02900020060002987E
:10E26000805D002801D0761CF9E731000298FFF7A5
:10E27000B9FDA64209D2A41B2000441E002804D0E8
:10E2800001219AA0FFF7AEFDF6E776E7DBF8000084
:10E290001BF1040B0190002007000A20804600209B
:10E2A00005000AE0DBF800001BF1040B01900020E0
:10E2B000070010208046002005000120060001987C
:10E2C00008FB06F1884209D308FB06F0B0FBF8F022
:10E2D000B04203D108FB06F6641EF0E7002D00D023
:10E2E000641E002D09D09DF80000302805D12D2096
:10E2F00004A9C8557F1C00200500022C0BD3102C4C
:10E3000009D2641E002C06D09DF8000004A9C8554F
:10E310007F1C641EF6E7002D03D02D2004A9C855EC
:10E320007F1C002E0ED00198B0FBF6F0B0FBF8F188
:10E3300008FB11000399085C04A9C8557F1CB6FBB3
:10E34000F8F6EEE7390004A8FFF74CFD15E70121C8
:10E35000BAF10100FFF746FD0FE70521DFF8C00124
:10E36000FFF740FD09E79DF8440040280DD101204A
:10E37000FFF753FDFFF74CFDFFF745FD002804D1E3
:10E380004846B0F101090028F4D10020FFF745FD0F
:10E3900008B0BDE8F00F5DF810FB00005D00000064
:10E3A0002DE9F84F04000D0016001F005FF0A04893
:10E3B000C146DFF83C010078002801D1002092E03E
:10E3C0002000C0B2002801D100208CE0DFF830012D
:10E3D0000078002805D12000C0B2802801D000209C
:10E3E00081E02000C0B240280ED10120FFF715FDCA
:10E3F000C146FFF70DFDFFF706FD002804D1484692
:10E40000B0F101090028F4D10020FFF706FD290032
:10E410002000C0B2FFF7FAFD5FF0000A5046390055
:10E4200080B289B2884240D2504680B2305CC0B2DD
:10E4300000098DF80100504680B2305C10F00F00EA
:10E440008DF80000DFF8F8B09DF801001BF800001F
:10E45000FFF7D1FC9DF800001BF80000FFF7CBFC94
:10E460002020FFF7C8FC380080B2642190FBF1F255
:10E4700001FB1200002815D12000C0B2402811D1A4
:10E480000120FFF7CAFCC146FFF7C2FCFFF7BBFC47
:10E49000002804D14846B0F101090028F4D1002039
:10E4A000FFF7BBFC1AF1010AB8E70D20FFF7A3FC48
:10E4B0000A20FFF7A0FC2000C0B240280ED10120A6
:10E4C000FFF7ABFCC146FFF7A3FCFFF79CFC00285D
:10E4D00004D14846B0F101090028F4D10020FFF72B
:10E4E0009CFC504680B2BDE8F28F00002000000086
:10E4F00058274020881F4020AC074400B407440040
:10E5000061344020BC074400C8074400D4074400DD
:10E51000DC074400E407440030224020F0074400B8
:10E52000F8074400000844000808440010084400AC
:10E53000180844002008440028084400300844001B
:10E540004408440080B5002212492A201EF0D0FE63
:10E5500001212A201EF08CFE0F4900201FF000FB35
:10E5600000225FF4FA3100201FF0D7FB01BD80B517
:10E5700000201FF013FC00201FF042FB01BD80B5FE
:10E5800000201FF06CFB01BD04480168491C0160BC
:10E590007047000069DF4300BC3244003C22402049
:10E5A00010B4010008060A0212F47F020B001B0AD5
:10E5B00013F47F430C00240E10431843204310BC77
:10E5C00070472DE9F04104000D0016001F003000D7
:10E5D000C0B2092801D3002016E05FF000084046D1
:10E5E0003100C0B2C9B288420DD220002900B6EB7A
:10E5F0000802521ED20003F033F84146C9B27854E3
:10E6000018F10108EBE70120BDE8F08130B4030008
:10E61000002B01D0052B01D300200BE01A000020B5
:10E620000024002A06D000020500085D2843641C6F
:10E63000521EF6E730BC70472DE9F04704000D008C
:10E640001600200003F01CF80700B0465FF0200918
:10E65000AA464A4641465046FFF7EAF8BE4201D272
:10E66000B04600E0B846A146AA4642464946504652
:10E67000FFF7DEFABDE8F08700B500BF130096464D
:10E680009446103928BFA0E80C50FAD85FEA417CC4
:10E6900028BF0CC048BF40F8042BC90728BF20F88A
:10E6A000022B48BF00F8012B00BD00004A69138906
:10E6B000A0F86230012380F864307047002180F8B0
:10E6C0006410704738B504000D0094F86700012805
:10E6D00008D002280AD003280CD004280AD0FF282A
:10E6E00008D00BE0002084F8660007E0002084F8E2
:10E6F000660003E0002084F86600FFE72800C0B24F
:10E70000401E05D0401E022805D9FD3803D005E083
:10E7100084F8675002E084F86750FFE7002001F0BA
:10E720000FF831BD38B5DFF8B00C4468002C05D0C7
:10E73000E069050021002800FFF7B8FF31BD0200A5
:10E740000120DFF8941C4968002903D00B7813706E
:10E7500000231800C0B27047DFF87C1C4968CA6902
:10E7600082F86600704710B4020001200023DFF831
:10E77000681C4968002906D0CC69230093F86640DC
:10E78000147000242000C0B210BC704770B50500A2
:10E790000026DFF8440C4468002C08D0E06906002D
:10E7A0002900C9B23000FFF78DFFFFF7BBFF70BD36
:10E7B00010B4020001200023DFF81C1C4968002966
:10E7C00006D0CC69230093F8674014700024200021
:10E7D000C0B210BC704710B40200DFF8003C1868EB
:10E7E0000068806A0168087892F86740A04204D007
:10E7F0008879002801D10831F5E78879012804D10A
:10E8000018680068806A00680100080010BC704742
:10E81000F0B50500059E069F00202C00A4B2022C36
:10E820001DDADFF8B84B2468A468E468D4F800C0A7
:10E83000AE461FFA8EFE0C2404FB0EFE0CEB0E04FB
:10E840000C600C6824681460146824681C601C68E0
:10E85000246834603468E4693C6001242000C0B25C
:10E86000F0BDF0B50500059E069F00202C00A4B267
:10E87000002C1DD1DFF8644B2468A468E468D4F848
:10E8800004C0AE461FFA8EFE0C2404FB0EFE0CEBF9
:10E890000E040C600C6824681460146824681C6002
:10E8A0001C68246834603468E4693C6001242000FA
:10E8B000C0B2F0BD0022C368DB681A700022836812
:10E8C000DB681A7000220A7700220A724FF6FF7284
:10E8D000C368DB681A81704718B587B00400002050
:10E8E0000690002005900020049000200390002056
:10E8F000029002A8019003A8009004AB05AA06A903
:10E90000200080B2FFF784FF002803D0029903980B
:10E91000FFF7D0FF08B010BD30B587B004000D0080
:10E920000020069000200590002004900020039015
:10E930000020029002A8019003A8009004AB05AA51
:10E9400006A9200080B2FFF763FF00280FD028003F
:10E95000C0B2002802D0012804D008E003200299A8
:10E96000087704E0200080B2FFF7B6FFFFE707B0AA
:10E9700030BD78B587B005000E000020069000205D
:10E98000039000200590002004900020029002A82F
:10E99000019004A8009005AB03AA06A9E8690088C5
:10E9A000FFF736FF00282CD0029890F8400000288E
:10E9B00027D1029880F85C600520029981F8400018
:10E9C0007F20029981F84100A86840680078029988
:10E9D00081F84200029880F8436002984130029921
:10E9E00008650320029948650420029981F84000D7
:10E9F000029810F1500103980069808802F05BFED4
:10EA0000040008B070BD70B50400012500260C217B
:10EA1000DFF8C82910688068406833009BB24B4318
:10EA20001844007A00281AD11068806840683300C2
:10EA30009BB24B43C05800280FD02000C0B21268D0
:10EA40009268526833009BB201FB03F1515888472A
:10EA500005002800C0B2002801D1761CD7E72800A5
:10EA6000C0B270BD010000200A6812783E2A05D1AC
:10EA70000A685278802A01D101221000C0B2704782
:10EA800000200021DFF8542912689268D268926849
:10EA900092F82000002826D1D069010000200872D9
:10EAA00000200877002081F82000002081F8400035
:10EAB000002081F86600012081F86700002081F8BD
:10EAC00060000020487700209368DB681870002001
:10EAD000D368DB6818704FF6FF70D368DB68188165
:10EAE000C8872432D4E7DFF8F0080123037000233D
:10EAF000436070472DE9F84187B000240020029060
:10EB0000DFF8D85828688068C068866896F82000C2
:10EB1000002840F0D080F06902900298002800F0B0
:10EB2000C880029890F8670001281BD0029890F8DE
:10EB3000640001280BD10298B0F86200002806D0CA
:10EB40000298B0F86200401E0299A1F86200029893
:10EB5000B0F86200002805D101210298FFF7B2FD4C
:10EB600002F04AFE0298007F00280AD0022800F036
:10EB70009380032854D0042800F08D80052801D00C
:10EB800097E096E002984068002804D00298406818
:10EB9000401E029948600298406800283FD10298C0
:10EBA000FFF719FE0400A08880B2400880B20299E5
:10EBB0004860286880688068002830D028688068AD
:10EBC00080680078012820D1029890F8650000281C
:10EBD00010D078213000FFF7CCFE029890F8650045
:10EBE00000281CD0029890F86500401E029981F818
:10EBF000650014E000F035FF10213000FFF7B9FE8A
:10EC000002993000FFF756FE09E000F02AFF1021BC
:10EC10003000FFF7AEFE02993000FFF74BFE48E0F0
:10EC2000029890F84000002834D10020069000207F
:10EC30000390002005900020049002A8019004A8F1
:10EC4000009005AB03AA06A902980088FFF7E0FD33
:10EC500000280FD003980069B0F8048004200299BE
:10EC60000877029810F11401404680B202F023FDAB
:10EC700007000FE0B06940680069B0F80480042024
:10EC800002990877029810F11401404680B202F010
:10EC900012FD07000DE00CE0FEF779FE0299D1F8B5
:10ECA0008C10401A40F2F511884201DBFFF7E8FEB4
:10ECB000FFE724362AE708B0BDE8F0812DE9F841E6
:10ECC00087B004000D0016000127002006900020E8
:10ECD000059000200490002003900020029002A8DC
:10ECE000019003A8009004AB05AA06A9200080B2F9
:10ECF000FFF78EFD002832D00398D0F80880D8F8AE
:10ED00000800A84222D30298007A002820D1D8F81F
:10ED10000C00007800281BD10120D8F80C100870D6
:10ED2000D8F804000299C860029805610020D8F85C
:10ED30000C104860022002990872D8F80C00048177
:10ED4000D8F8080030600020070001E00320070029
:10ED50003800C0B2002802D10298FFF7AFFC38009B
:10ED6000C0B208B0BDE8F0812DE9F04F87B00400D3
:10ED70000D001600012700200690002005900020BD
:10ED80000490002003900020029002A8019003A8A4
:10ED9000009004AB05AA06A9200080B2FFF738FD59
:10EDA00000287BD00398D0F808800298007A0228C7
:10EDB0003BD1D8F80C000089210089B2884234D1B7
:10EDC0000298C068D8F80C10496800EB010968681F
:10EDD000002802D1002007001FE0D8F80810D8F85A
:10EDE0000C004068091A6868814214D36868009072
:10EDF000D5F800A0CB46009A51465846FEF718FFBA
:10EE0000D8F80C00416868684118D8F80C004160D7
:10EE10000020070001E001200700D8F80810D8F80A
:10EE20000C004068091A316038E0029890F8200020
:10EE3000022833D10298C08F210089B288422DD197
:10EE40006868002802D10020070022E00298806B49
:10EE5000D0F108006968884219D30298006B0299C2
:10EE6000896B08440090D5F80490D5F800A0DDF82F
:10EE700000B04A4651465846FEF7DAFE0298816BCA
:10EE800068684118029881630020070001E00120B2
:10EE900007000298806BD0F1080030603800C0B2E3
:10EEA00007B0BDE8F08F2DE9F84787B005000E00E8
:10EEB0000020069000200590002004900020039080
:10EEC00000270020029002A8019003A8009004AB44
:10EED00005AA06A9280080B2FFF79AFC002870D086
:10EEE0000398D0F80880D8F80C000089290089B26E
:10EEF000884266D1D8F80C004068029909698842B6
:10EF000003D002980069002802D15FF0010901E0F6
:10EF10005FF000093000C0B2002843D14846C0B2BB
:10EF200000283FD003988068001DFFF79BFD002854
:10EF300015D002980069022811D103990298FFF7B1
:10EF4000B5FB0020029908724FF6FF70D8F80C103C
:10EF50000881002003998968C968087031E0029827
:10EF6000407F00282DD1DFF870A4DAF804000028D3
:10EF70000FD103980078FFF746FD04002000C0B2CF
:10EF800000281ED10120029948770398CAF804008E
:10EF900017E0002002990872002003998968C96867
:10EFA00008700EE0FFF7BEFB0020029908724FF6D2
:10EFB000FF70D8F80C100881002003998968C9688F
:10EFC000087008B0BDE8F0872DE9F84787B0050064
:10EFD0000E000020059000200490002006900020E4
:10EFE000039000270020029002A8019003A800903F
:10EFF00006AB04AA05A9280080B2FFF709FC002887
:10F0000000F0BB800398D0F808800298007A0228AC
:10F0100040F0B380D8F80C000089290089B28842FA
:10F0200040F0AB80D8F80C0040680299096988422A
:10F0300003D002980069002802D15FF0010901E0C5
:10F040005FF000093000C0B2002840F087804846D9
:10F05000C0B2002800F0828003988068001DFFF78E
:10F0600001FD002815D002980069022811D10399EA
:10F070000298FFF71BFB0020029908724FF6FF7001
:10F08000D8F80C100881002003998968C9680870B5
:10F0900073E00298407F00281DD1DFF83CA3DAF826
:10F0A000040000280FD103980078FFF7ACFC04009F
:10F0B0002000C0B200280ED10120029948770398A1
:10F0C000CAF8040007E000200299087200200399A2
:10F0D0008968C96808700298407F01284DD102985C
:10F0E000FFF779FB0700788880B2400880B2029968
:10F0F000486005200299087202980069002804D12E
:10F10000D8F80C0040680299086105200299087738
:10F11000B2480068806880684078029981F865008C
:10F120000398C0684068029948610398C068806885
:10F130000299886102980580280080B201900298A7
:10F140001430009004980069838805980279039828
:10F15000016902980C3000F0CEFA0EE0FFF7E2FAF7
:10F160000020029908724FF6FF70D8F80C10088141
:10F17000002003998968C968087008B0BDE8F08765
:10F180002DE9F04F87B004000D0016001F005FF05E
:10F190000108002006900020059000200490002027
:10F1A00003900020029002A8019003A8009004ABF5
:10F1B00005AA06A9200080B2FFF753FB002800F043
:10F1C00097800398D0F80C90002080460298007F2A
:10F1D00002280ED004280DD10020D9F80C10486068
:10F1E000022002990877FEF7D2FB0299C1F88C0041
:10F1F00002E001E0012080464046C0B200282ED146
:10F200006868002823D002988169D9F80C0040680A
:10F21000091A6868814202D20120804617E06868B6
:10F22000009002984069D9F80C10496800EB010A77
:10F23000D5F800B0009A51465846FEF7F9FCD9F8C7
:10F240000C00416868684118D9F80C0041600298C8
:10F250008169D9F80C004068091A396048E04046D5
:10F26000C0B2012844D100208046029890F84000A6
:10F2700002280DD004280CD102984130029908656B
:10F280000020029988650220029981F8400002E07E
:10F2900001E0012080464046C0B2002828D16868BD
:10F2A00000281FD00298416D0298806D091A686885
:10F2B000814202D20120804614E0686800900298E2
:10F2C000006D0299896D00EB010AD5F800B0009A33
:10F2D00051465846FEF7ACFC0298816D68684118AB
:10F2E000029881650298416D0298806D091A396013
:10F2F0004046C0B207B0BDE8F08FF0B587B004005B
:10F300000D000020069000200490002005900020B1
:10F3100003900020029002A8019003A8009005AB82
:10F3200004AA06A9200080B2FFF79BFA002826D085
:10F3300000260398C7680298007F022811D103991C
:10F340000298FFF7B3F902990398FFF7B3FA012087
:10F3500006002900C9B204980069808800F0C3F94A
:10F36000FFE73000C0B2002809D1029890F84000B1
:10F37000022804D10020029981F84000FFE707B07D
:10F38000F0BD00220020154909688968C9688B68AA
:10F3900093F82010002907D1D9690A00002A01D06A
:10F3A000117F08002433F3E7C0B270470022002029
:10F3B0000A4909688968C9688B6893F82010002990
:10F3C00007D1D9690A00002A01D0117A0800243334
:10F3D000F3E7C0B270470000A00940208809402030
:10F3E00010B504002000C0B2012806D10121DFF8C9
:10F3F0003C03008AFFF790FA40E0DFF83003017B1E
:10F40000012914D17F21426812681170DFF820139E
:10F410000978426812685170416809688C7003214C
:10F42000426851600021008AFFF776FA26E0017BEE
:10F4300001290BD12100C9B211291BD02100C9B269
:10F44000122917D02100C9B2312913D07F21426877
:10F4500012681170B64909784268126851704168A3
:10F4600009688C700321426851600021008AFFF70F
:10F4700053FA03E00121008AFFF74EFA10BD2DE98F
:10F48000F8430600A94D686847685FF0000868689F
:10F49000D0F80090424639004846FEF7C9F93000DE
:10F4A000C0B2102816D011281BD0222820D027281F
:10F4B00024D0282840D02E2826D0312830D03428F7
:10F4C00040D0362844D0372848D03E2822D085283E
:10F4D0002CD049E02B7B6A68E989286800F063FB3F
:10F4E0004EE02B7B6A68E989286800F009FC47E058
:10F4F0002A7B6968286800F089FD41E02A7B6968F9
:10F50000286801F003F93BE02A7B6968286800F06D
:10F51000CCFE35E02A7B6968286801F04FF92FE0BE
:10F520002A7B6968286801F037FB29E02A7B696833
:10F53000286801F07FF923E02A7B6968286801F0D8
:10F54000E5F91DE02A7B6968286801F0A7FB17E050
:10F550002A7B6968286801F0CAFB11E02A7B696888
:10F56000286801F005FC0BE0287B012802D101206E
:10F57000040001E0112004002000C0B200F088F86F
:10F58000BDE8F18330B403000120684A92685468F2
:10F5900022781D00EDB2AA4204D0227B002A01D1BC
:10F5A0001034F5E7227B002A01D10C6003E0002231
:10F5B000100000220A60C0B230BC7047704780B5AE
:10F5C0005C490878002803D00020087000F001F89A
:10F5D00001BD7CB5002000900024544D286840688F
:10F5E000002804D02868006800785149087028680D
:10F5F0004068002802D1012004002BE04C4E6946EF
:10F600003078FFF7BFFF002822D00098806800F014
:10F6100046FA002819D00098407800280FD02868B2
:10F620000068407800060AD500F077F8286800687E
:10F63000407810F07F0029680968487001E000F008
:10F6400070F83078FFF71BFF04E07F20040001E032
:10F65000112004002000C0B2002818D0287B012807
:10F6600011D100200100C9B205290CDA2100324A6B
:10F670000300DBB2D25CC9B2914202D101210C007D
:10F6800001E0401CEEE72000C0B2FFF7A9FE73BD09
:10F6900038B504002000C0B2002819D100F03AF8B3
:10F6A00000280CD121482249097851F040014268D4
:10F6B000126811700021008AFFF72EF912E01B4D2D
:10F6C000E88901F0FDF80121288AFFF725F909E012
:10F6D0002000C0B2782801D100F023F82000C0B289
:10F6E000FFF77EFE31BD38B504000D00200080B26A
:10F6F00001F0E6F831BDF0B4049D059C0B4E348258
:10F70000F381306075603273B1600126094F3E703D
:10F71000F0BC70470948007870470120074908701D
:10F720007047002005490870704700008C09402090
:10F7300054274020532740201C324020552740208A
:10F740002DE9FC410400DFF8345A00202870002025
:10F75000DFF82C1A0870DFF82C0A00210170012153
:10F7600001710020DFF8201A087064260027DFF8F6
:10F770001C8A3A0031004046FEF75AF802F058F869
:10F780002000C0B2002800F0868000208DF8000024
:10F7900000263000C0B202287DDA69463000C0B2CF
:10F7A00002F049FB9DF80000012837D1012031000B
:10F7B000C9B2090129440873DFF8A00B0168096880
:10F7C000496A09683200D2B2520111448968320094
:10F7D000D2B212012A44916000680068406A006851
:10F7E0003100C9B249010844407B3100C9B2090166
:10F7F00029440871FEF7CBF83100C9B20901294448
:10F8000008613000C0B2000128448368DFF8502B43
:10F81000DFF8501B0820FEF775FC3AE0DFF83C1BD0
:10F8200008680068406A00683200D2B25201104491
:10F830004068002814D001203200D2B212012A44BC
:10F84000107308680068406A00683100C9B2490155
:10F85000084440683100C9B20901294488600BE0BE
:10F8600000203100C9B20901294408730020310089
:10F87000C9B209012944886000203100C9B20901D8
:10F8800029440871FEF783F83100C9B209012944FF
:10F890000861761C7DE7BDE8F38110B5DFF8E0482C
:10F8A000207801281CD1207A02F00AFB002802D01F
:10F8B0000A280DD00FE002202070207A61680968C4
:10F8C00048700220616848600020FFF7E1FE07E011
:10F8D0000120207004E0002020702220FFF7D8FED5
:10F8E00010BD80B5DFF8643B1878002804D09A7DFD
:10F8F0009968586800F08AFB01BD80B5DFF8500BAD
:10F900004178012904D102788168406800F0CDFC7B
:10F9100001BD80B5DFF83C0B4178012904D10278A4
:10F920008168406801F038F901BD10B5DFF8284B57
:10F93000A078012804D16278E168A06801F0AEF9EE
:10F94000E078012804D16278E168A06801F0CFF97D
:10F950002079012804D16278E168A06801F008FAF2
:10F9600010BD1CB5040000208DF800006946200081
:10F97000C0B202F060FADFF804089DF8001022001F
:10F98000D2B212010244127B91420FD02100C9B2BF
:10F9900009010844017B2000C0B202F039FADFF807
:10F9A000BC2ADFF8C0190820FEF7ACFB13BD38B540
:10F9B00000242000C0B2022844DADFF8C05720003B
:10F9C000C0B200012844007B012839D12000C0B218
:10F9D00000012844806800280AD02000C0B200013D
:10F9E00028448068401E2100C9B20901294488606A
:10F9F0002000C0B2000128448068002820D10020E7
:10FA00002100C9B2090129440873DFF8A82BDFF8E7
:10FA100054190820FEF776FBDFF8400900680068FB
:10FA2000406A00682100C9B249010844407B2100B6
:10FA3000C9B20901294408712000C0B2FFF791FF43
:10FA4000641CB6E731BD80B5FFF727FFFFF749FF1C
:10FA5000FFF753FFFFF75DFFFFF767FFFFF7A7FF14
:10FA600001BD10B5DFF8E4492078002804D0A26871
:10FA70002178608A00F0D1F90020DFF804170870BF
:10FA8000002020700020DFF8C81948700020DFF83F
:10FA9000C41948700020DFF8C019887010BD38B54F
:10FAA0000400002501208DF800006846FEF780FE66
:10FAB00001000800C0B2002818D120688079002811
:10FAC00002D00120050011E0206800789DF8002098
:10FAD000904205D020688079002801D1241DF3E7E9
:10FAE00020688079002801D1012005002800C0B2DB
:10FAF00032BD7CB504000026002C21D06846FEF7FC
:10FB000032FE05002800C0B200281BD12068007F0B
:10FB1000002802D00120060014E02068007B9DF838
:10FB20000010884205D02068007F002801D1241DE4
:10FB3000F3E72068007F002804D10120060001E0DF
:10FB4000012006003000C0B276BDF8B505000026E1
:10FB5000DFF8B40B006880688769387B00281FD104
:10FB60003000C0B204281BD03868002816D0684680
:10FB7000FDF79AFF04002000C0B200280CD1290034
:10FB8000C9B29DF800003A68904704002000C0B256
:10FB9000002803D0260001E0012006001037DCE732
:10FBA0003000C0B2F2BD2DE9F84F05000E0017007D
:10FBB0009846DFF8A80700680068806AD0F800A0BF
:10FBC0005FF00009686802286DD128684078040059
:10FBD0009AF800002100C9B2884206D09AF80600BF
:10FBE000002802D11AF1080AF2E79AF80600002864
:10FBF00056D14046C0B2012807D12000C0B2022829
:10FC000003D10120FFF744FD78E02000C0B2FFF7E8
:10FC10009CFF8DF800009DF80000002836D12000E0
:10FC2000C0B2FEF7B3FDDFF85C050121017004717D
:10FC30004680386844700DF10100FEF780FD002811
:10FC40001FD19DF80100032818D1BAF8020080B234
:10FC5000000A39688870BAF802003968C870BAF8C2
:10FC600004000A2190FBF1F0010089B2090A3A6808
:10FC70001171396848710621796004E002207860CA
:10FC800001E0022078605FF0000B0EE09DF80000BC
:10FC9000572802D15FF0220B07E05FF07E0B04E0F3
:10FCA0005FF0120B01E05FF0130B4046C0B2012879
:10FCB00016D15846C0B2002812D000200100C9B2A7
:10FCC00005290DDA5946DFF8402C0300DBB2D25C7F
:10FCD000C9B2914202D101218B4601E0401CEDE7FF
:10FCE0005846C0B2002805D12000C0B2012801D179
:10FCF000FFF713FD5846C0B2FFF7CAFCBDE8F18F0D
:10FD00002DE9F04704000D0016001F005FF0000908
:10FD10006068022836D12068407880464046C0B2EC
:10FD2000401E022827D8DFF858A4AAF80250CAF8C3
:10FD300004608AF808809AF8080002F0C1F80028E8
:10FD400002D00A280BD010E002208AF800003068A8
:10FD500080F80180022070605FF0000A0AE0012054
:10FD60008AF800005FF0780A04E000208AF80000BA
:10FD70005FF0220A08E05FF0120A0020DFF80014AA
:10FD8000087001E05FF0130A3800C0B2012816D1F4
:10FD90005046C0B2002812D000200100C9B2052987
:10FDA0000DDA5146DFF8602B0300DBB2D25CC9B23A
:10FDB000914202D101218A4601E0401CEDE7504604
:10FDC000C0B2002801D1FFF7A8FC5046C0B2FFF72F
:10FDD0005FFCBDE8F08730B40300DFF82C09006851
:10FDE00000684468002260881D00ADB2A84205D0BA
:10FDF00094F83D00002801D14034F4E794F83D0028
:10FE0000002806D160680078002802D10120020095
:10FE10000C601000C0B230BC70477CB504000D000F
:10FE20001600002000906946200080B2FFF7D3FF43
:10FE300000281CD02800C0B2012808D100984069D1
:10FE4000002814D030680099496988470FE02800DD
:10FE5000C0B202280BD100988069002807D0009812
:10FE60000078022803D1306800998969884773BDFA
:10FE70002DE9F84304000D00160000276068406873
:10FE8000002800F0BD806069002800F0B980A069FA
:10FE9000002800F0B580606840680068FFF7FFFD4B
:10FEA000002800F0AA80606840684068FFF721FEE3
:10FEB000002800F09F8068466169884701009DF82E
:10FEC00000000843C0B2002840F089800020ADF84F
:10FED00002005FF0010860684078002805D0A08922
:10FEE000ADF802000020804607E02069002804D019
:10FEF0000DF102002169884780464046C0B20028C3
:10FF000063D168683188BDF8022012FA81F1891C3A
:10FF1000884257D36868C01EDFF8F81A08806088E6
:10FF200080B2000A2968328888543088401C3080AA
:10FF300060882968328888543088401C3080DFF817
:10FF4000D09A012089F80000286831880844A16906
:10FF50008847002189F800103288BDF802108A18FD
:10FF600032800100C9B20A2902D178210F0049E08C
:10FF70000100C9B2132902D113210F0042E0010090
:10FF8000C9B2142902D114210F003BE00100C9B20B
:10FF9000222902D122210F0034E00100C9B2312907
:10FFA00002D131210F002DE00100C9B2332902D165
:10FFB00033210F0026E00100C9B2002922D02221FE
:10FFC0000F001FE0142007001CE04046C0B20A28C2
:10FFD00002D17820070015E02220070012E0080077
:10FFE000C0B20A2802D1782007000BE09DF800007B
:10FFF000070007E03320070004E03120070001E09C
:020000040042B8
:10000000312007003800C0B2BDE8F2832DE9FE4F71
:100010008046894692465FF0000B00200190012047
:10002000ADF800005046C0B2022804D05046C0B21D
:10003000012840F09B80D8F80400401EC00754D42B
:10004000D8F80400401E00284FD0D8F80400401E05
:1000500040080500002007003800290080B289B25E
:10006000884244D25846C0B2002803D05846C0B295
:1000700078283CD1D8F80000390089B200EB410063
:1000800040780002D8F800103A0092B201EB420129
:10009000897850FA81F0060001A9300080B2FFF79C
:1000A0009AFE00281DD06A4649460198FFF7E0FEF7
:1000B00004002000C0B2002815D02000C0B278286B
:1000C00003D15846C0B2002800D1A3465046C0B262
:1000D000012808D15846C0B2222804D10120834605
:1000E00001E0312083467F1CB6E713208346584643
:1000F000C0B2002803D1BDF80000C9F8040058467A
:10010000C0B2782809D1D14802210170C0F804801A
:10011000C0F8089080F816A01DE05846C0B23128FB
:1001200012D15046C0B2012806D10120834658465C
:10013000C0B2FFF7ADFA0EE00020C449087058467F
:10014000C0B2FFF7A5FA06E00020C0490870584683
:10015000C0B2FFF79DFA5046C0B201280CD15846F4
:10016000C0B2002808D00120834605E00120834664
:100170005846C0B2FFF78CFABDE8F78FFC09402063
:10018000A8094020B409402056274020280A4020D2
:10019000F8B504000D00160000208DF8000060681E
:1001A000806800287BD0E069002878D0206A002889
:1001B00075D0606880680068FFF771FC00286AD01D
:1001C000606880684068FFF794FC00285FD00DF1FC
:1001D0000100E169884701009DF801000843C0B2B1
:1001E000002847D10020ADF8020001276068407860
:1001F000002805D0A089ADF802000020070007E024
:100200002069002804D00DF1020021698847070009
:100210003800C0B2002829D1BDF80200310089B2EF
:1002200088421FD16A46BDF802102868C01C236AA4
:10023000984701000800C0B2002807D09DF80000D0
:10024000002803D122208DF800002BE09DF800004B
:10025000782803D00800C0B20A2823D178208DF86E
:1002600000001FE013208DF800001BE022208DF815
:10027000000017E00800C0B25B2803D172208DF89F
:1002800000000FE09DF801008DF800000AE0332027
:100290008DF8000006E07F208DF8000002E031209C
:1002A0008DF800009DF80000F2BD2DE9FC47050027
:1002B0000E0017005FF000095FF0000800200090BA
:1002C0003800C0B2022803D03800C0B2012821D1C2
:1002D000686804281BD36868C01E0400286840783A
:1002E000000229688978401880466946404680B2F5
:1002F000FFF771FD002807D0220092B22900009874
:10030000FFF746FF824607E05FF0310A04E05FF046
:10031000130A01E05FF0010A5046C0B2782806D106
:100320004B480121417007704560866014E05046DB
:10033000C0B2002809D103207060404680B2000A94
:1003400031684870306880F8028000204049487069
:100350005046C0B2FFF79CF9BDE8F38788094020FA
:1003600028EE430020EE4300F8B504000D000026FF
:100370002800C0B2012814D1DFF8640A002122004D
:10038000D2B212010244117100212200D2B2120134
:100390000244117300212200D2B212011044816084
:1003A00050E0DFF83C7A2000C0B200013844007908
:1003B000B96A497B491E884239DBD349086800681D
:1003C000406A00682200D2B25201104480680028BE
:1003D0002AD001202200D2B212013A4410730868D8
:1003E0000068406A00682100C9B249010844806879
:1003F0002100C9B2090139448860FDF7C8FA21001B
:10040000C9B20901394408612000C0B20001384472
:100410008368DFF8D029DFF8D0190820FDF772FED5
:100420002000C0B2FFF79DFA012006000AE020007C
:10043000C0B2000138440079401C2100C9B2090152
:10044000394408713000C0B2F2BD0000BC09402040
:10045000D4094020E0094020EC09402054EE43003C
:100460002DE9FE4F04000D00160000275FF0000983
:10047000A54800680068406AD0F8008098F80C0031
:100480003100C9B2884208D098F81C00002804D175
:1004900018F1200819F10109F0E798F81C0000286C
:1004A00040F08180D8F81400002879D0DFF830A916
:1004B0008AF824909AF8240000015044007B002818
:1004C00002D03720070070E06068D8F80010891C5F
:1004D00088424DD10DF10100FDF7DBFA8DF80300E4
:1004E0009DF80300002840D130009DF80110C0B2F3
:1004F000884218D1206840782968487098F80F0021
:10050000029000200190286810F1020B019A0299D4
:100510005846FDF78DF998F80F00801C686001209F
:100520008AF8000026E06A462868811C2068801C42
:10053000D8F8143098479DF800100143C9B200293B
:100540000FD1216849782A68517098F80F10891CDA
:1005500069608AF80160CAF8288001218AF80010D1
:1005600008E09DF800100F0004E02220070001E0E1
:10057000132007003800C0B2002816D03800C0B2DF
:10058000132812D000219AF82400FFF7EDFE8DF811
:1005900002009DF80200012807D13720070004E07F
:1005A0007E20070001E0122007003800C0B2BDE83D
:1005B000FE8F000078EE43002DE9F84F05000E0095
:1005C00017005FF00008504800680068406AD0F8E3
:1005D000009099F80C003900C9B2884206D099F809
:1005E0001C00002802D119F12009F2E799F81C003B
:1005F000002840F08280D9F8180000287AD0DFF86F
:10060000E0A79AF80000002801D1CAF8289068688D
:10061000DAF82810097C891C88424ED100208DF818
:1006200000006846FEF79FF89AF80000012841D1C3
:1006300038009AF80110C0B288423BD19DF8000002
:100640003900C9B2884235D000208AF800009AF8F3
:10065000240000015044007B002802D03620804650
:100660002DE0DAF828008069002820D02868801C56
:10067000DAF828108969884783465846C0B20028AE
:100680000BD1DAF82800007BFEF766F8286840787E
:10069000316848700220706011E05846C0B27E2870
:1006A00002D17E2080460AE03520804607E02220E5
:1006B000804604E02420804601E013208046404626
:1006C000C0B2002805D101219AF82400FFF74CFEA2
:1006D00015E04046C0B2132811D000219AF824003A
:1006E000FFF742FE04002000C0B2012807D13620E7
:1006F000804604E07E20804601E01220804640468D
:10070000C0B2BDE8F28F0000880940202DE9F8430F
:1007100005000E00904600274046C0B2022802D0D5
:100720005FF0010944E0686802283FD328684078F8
:10073000401C022190FBF1F0040028684078C007BB
:100740001AD501208DF801000DF10100FEF730F8F7
:100750009DF801102000C0B201F0D8FB8146484648
:10076000C0B2002807D12200D2B231002800FFF722
:1007700077FE81461CE01BE001208DF800006846F2
:10078000FEF716F89DF800102000C0B201F0BEFB85
:1007900081464846C0B2002807D12200D2B23100BB
:1007A0002800FFF709FF814602E001E05FF013092E
:1007B0004846C0B2FEF76CFFBDE8F1832DE9F04179
:1007C00004000D00160000276068022810D1206880
:1007D0004078002809D1FDF7A5FF0020296848705E
:1007E000022068605FF0000804E05FF0120801E09A
:1007F0005FF013083000C0B2012815D14046C0B2E6
:10080000002811D000200100C9B205290CDA4146A8
:100810003D4A0300DBB2D25CC9B2914202D1012150
:10082000884601E0401CEEE74046C0B2FEF730FFCC
:10083000BDE8F0812DE9F04104000D001600002014
:1008400000276168022919D121684978012902D05D
:10085000022908D00FE001212A6851700221696045
:100860005FF000080CE002212A68517002216960E3
:100870005FF0000804E05FF0120801E05FF0130889
:100880003000C0B2012815D14046C0B2002811D0B6
:1008900000200100C9B205290CDA41461A4A0300BA
:1008A000DBB2D25CC9B2914202D10121884601E09B
:1008B000401CEEE74046C0B2FEF7EAFEBDE8F0811C
:1008C00010B50400FDF72EFFDFF82005017802299E
:1008D00009D12100428889B2914204D100210170DE
:1008E000007A01F0FCFADFF808150878002809D032
:1008F00020004A8880B2904204D100200870087914
:1009000000F0E4FE10BD00001C324020F8B50400E9
:100910000D00160031208DF800002068477817F090
:100920007F07606803282AD13800C0B2042803DB9F
:100930003800C0B240281EDB3800C0B27F281AD071
:100940006A46206881783800C0B200F07FFF9DF8C9
:100950000000002816D09DF80000312812D09DF824
:10096000000022280ED09DF8000012280AD0312065
:100970008DF8000006E012208DF8000002E0132040
:100980008DF800009DF80000002805D10220686065
:1009900020684078296848703000C0B2012817D11B
:1009A0009DF80000002813D000200100C9B20529DD
:1009B0000EDA9DF80010DFF83C240300DBB2D25CB5
:1009C000914203D101218DF8001001E0401CECE7B9
:1009D0009DF80000FEF75CFEF1BD30B40300DFF8C7
:1009E000180400680068C469002062881D00ADB268
:1009F000AA4204D0227D002A01D11834F5E7227DD5
:100A0000002A02D1012210000C60C0B230BC704735
:100A100057274020462740207CB505000E000020C7
:100A20008DF8000068680069002831D07068696836
:100A300009690988091D884226D369463068001D66
:100A40002A6990470400686800690088401D70604A
:100A50002000C0B2002806D09DF80000002802D176
:100A600022208DF800009DF80000002813D168684E
:100A700000690088001D716888420CD268680069AE
:100A80000088001D706006E013208DF8000002E071
:100A900012208DF800009DF8000076BDF8B5050025
:100AA0000E00170000208DF800006868806800289C
:100AB0002AD0686880680088001D716888421FD14C
:100AC0006A463868011D3068001DAB68984704000D
:100AD0002000C0B2002806D09DF80000002802D1F6
:100AE00022208DF800009DF80000002805D16868DC
:100AF00080684088001D786009E00520786006E085
:100B000013208DF8000002E012208DF800009DF8FF
:100B10000000F2BDF8B505000E00170000208DF8AA
:100B200000006868C068002830D06868C0684088E5
:100B3000001D7968884225D16A463868011D3068F1
:100B4000001DEB6898470400052078602000C0B2C3
:100B5000002806D09DF80000002802D122208DF840
:100B600000009DF80000002813D16868C068408824
:100B7000001D796888420CD26868C0684088001DF2
:100B8000786006E013208DF8000002E012208DF856
:100B900000009DF80000F2BD2DE9FC4704000D00A7
:100BA00016005FF0000900275FF0000800200090A9
:100BB0003000C0B2022803D03000C0B201284DD1AD
:100BC0006068042847D32068407807002068807850
:100BD00000022168C978401880466946404680B2C4
:100BE000FFF7FBFE002833D0009840680068FEF74E
:100BF00056FF002829D0009840684068FEF779FF2A
:100C000000281FD03800C0B2012804D017D3032811
:100C10000FD007D313E02A0021000098FFF73EFF12
:100C200082461DE02A0021000098FFF773FF8246EC
:100C300016E029000098FFF7EFFE824610E05FF013
:100C4000120A0DE05FF0330A0AE05FF07F0A07E066
:100C50005FF0310A04E05FF0130A01E05FF0010A7F
:100C60005046C0B2782811D028684770404680B2FC
:100C7000000A29688870286880F8038000205F498E
:100C800048705046C0B2FEF703FD05E05B48012105
:100C90004170067044608560BDE8F3877CB5040050
:100CA0000D00160000208DF800000020019001A921
:100CB0003420FEF767FC01984068FEF71AFF002811
:100CC0000DD03000C0B2022805D16A4629002000AC
:100CD00001F0CAFB06E001208DF8000002E033209D
:100CE0008DF800009DF80000FEF7D2FC73BD7CB5C6
:100CF00004000D00160000208DF800000020019077
:100D000001A93620FEF73EFC01984068FEF7F1FE8F
:100D100000280DD03000C0B2022805D16A46290053
:100D2000200001F0DBFC06E07F208DF8000002E0EF
:100D300033208DF800009DF80000782811D09DF830
:100D40000000002805D102206860206840782968EA
:100D5000487000202A49C8709DF80000FEF798FCF2
:100D600005E027480121C17046708460C56073BDED
:100D70007CB504000D00160000208DF80000002056
:100D8000019001A93720FEF7FDFB01984068FEF7AE
:100D9000B0FE00280DD03000C0B2022805D16A464E
:100DA0002900200001F096FE06E07F208DF800006B
:100DB00002E033208DF800009DF80000782807D06D
:100DC00000200F4908719DF80000FEF761FC05E066
:100DD0000B480121017146708460C56073BD00003D
:100DE000FC09402028EE430020EE4300A8094020E3
:100DF000B40940201C32402088094020E0094020EE
:100E0000EC094020F8B50400DFF808582000C0B213
:100E1000285C012800F08C80DFF8FC672000C0B25D
:100E200056F830008047002800F08280002040F211
:100E30000621DFF8E8272300DBB24B4313449F88E9
:100E400060F308079F802300DBB201FB03F111442C
:100E50004A8860F308024A80002040F20641DFF829
:100E6000C0272300DBB24B4313449F8860F309077C
:100E70009F802300DBB201FB03F111444A8860F339
:100E800009024A8000212000C0B215F0CAFDDFF837
:100E9000947701232000C0B200013844C2682000CA
:100EA000C0B20001384481682000C0B215F0C5FE10
:100EB00000232000C0B20001384442682000C0B2C4
:100EC000000139582000C0B215F0B7FE2000C0B2B2
:100ED00000F05FF8DFF8507700222000C0B207EB87
:100EE000C00041682000C0B237F930001BF06CFB35
:100EF0002000C0B207EBC00081782000C0B237F9F3
:100F000030001CF0D3F92000C0B237F930001BF0DC
:100F100066FB01202100C9B2685401202100C9B23A
:100F200006EBC101087100212000C0B200F0A8F951
:100F3000F1BD704710B504002000C0B215F0E6FD09
:100F40002000C0B2FFF7F5FF0020DFF8C81622002E
:100F5000D2B2885410BD10B504002000C0B20028E1
:100F600008D102F049F8002801D0012000E000205B
:100F7000C0B20DE02000C0B2012808D102F041F853
:100F8000002801D0012000E00020C0B200E00020D5
:100F900010BD38B50400012269462000C0B215F02A
:100FA0005BFF05002800C0B2012811D1DFF87406EC
:100FB00001232100C9B209010144CA682100C9B254
:100FC0000901084481682000C0B215F036FE0FE028
:100FD000DFF850062100C9B209010144CA682100A6
:100FE000C9B20901084481682000C0B215F0AEFE04
:100FF000FCF7CDFCDFF83416086031BD7CB5040089
:101000000025002269462000C0B215F025FF060029
:101010003000C0B2002802D00098002806D100217C
:101020002000C0B215F0D5FD012005002800C0B297
:1010300076BD2DE9F043040040F20645DFF8E06597
:101040002000C0B2684306EB00031F8840F2FF3067
:1010500007431F802000C0B26843305A8005800DCE
:101060002300DBB26B4333449B889B059B0D270019
:10107000FFB26F4337447F88BF05BF0DDB1B0340C2
:101080001000002B02D10025280028E0934200D256
:1010900018000027874222D2A4465FFA8CFC05FB89
:1010A0000CFCB444BCF802E05FEA8E5E5FEA9E5E30
:1010B0001EF10108BCF8029068F30909ACF802902F
:1010C000A4465FFA8CFC05FB0CFCB4441FFA8EFEB0
:1010D000F4449CF806C001F807C07F1CDAE7BDE8BD
:1010E000F08370B50400002540F20621DFF82C25BE
:1010F0002000C0B2484302EB00031E8840F2FF10FC
:1011000006431E802000C0B24843105A2300DBB2C1
:101110004B4313449B88DB05DB0D2600F6B201FB35
:1011200006F111444988C905C90D5B1A1840C0056C
:1011300007D12000C0B2FFF761FF012801D10120D3
:1011400000E00020C0B2002801D0012001E028000A
:10115000C0B270BDF0B4030040F20624DFF8BC5406
:101160001800C0B2604305EB0002168840F2FF1081
:10117000064316801800C0B26043285AC005C00D4F
:101180001A00D2B262432A445288D205D20D1E0000
:10119000F6B266432E44B688F605F60D921B521E33
:1011A0000240002A01D1002017E01800C0B26043BD
:1011B00028448688F605F60D771CB0F804C067F35E
:1011C000080CA0F804C01800C0B204FB00F405EB42
:1011D0000400B6B2304481710120F0BC70472DE9A3
:1011E000F041030040F20624DFF830541800C0B28A
:1011F000604305EB0006378840F2FF100743378055
:101200001800C0B26043285AC005C00D1E00F6B2D7
:1012100066432E447688F605F60D1F00FFB267433D
:101220002F44BF88FF05FF0DF61B761E0640964231
:1012300001D2002022E0002797421ED21800C0B23F
:1012400060432844B0F804C05FEACC5C5FEADC5C31
:101250001CF1010EB0F804806EF30808A0F80480B9
:101260001800C0B2604328441FFA8CFC604411F897
:1012700007C080F806C07F1CDEE71000BDE8F081E3
:1012800010B40A00D2B2002A06D00122DFF8A0333F
:101290000400E4B21A5505E00022DFF8943304009C
:1012A000E4B21A5510BC70472DE9FC410500D9483D
:1012B0002900C9B2405C002800F024812800C0B297
:1012C000FFF79CFE01287CD10027D6492800C0B238
:1012D000000108444668761E40F20622CF4B2800E3
:1012E000C0B2504303EB0004B4F800C040F2FF105A
:1012F00050EA0C0CA4F800C02800C0B250431C5A9D
:10130000E405E40D2800C0B2504318448088C005AD
:10131000C00DAC465FFA8CFC02FB0CFC9C44BCF894
:1013200002C05FEACC5C5FEADC5CB0EB0C0004401E
:10133000002C46D0B44200D226000020B04224D275
:101340002F00FFB2574303EB070CBCF80270FF05F8
:10135000FF0D17F1010EBCF802806EF30808ACF81F
:101360000280AC465FFA8CFC5FEA0C1C51F80CC0A2
:10137000AE465FFA8EFE02FB0EFE9E44BFB277447D
:10138000BF790CF80070401CD8E7A9482A00D2B2F7
:10139000805C002809D132002800C0B20001095841
:1013A0002800C0B215F015FD0BE0642303FB06F323
:1013B00032002800C0B2000109582800C0B215F060
:1013C0007FFC954C2800C0B204EBC00000790028D7
:1013D00011D12800C0B254F830008047012809D14B
:1013E00001202900C9B204EBC10108712800C0B274
:1013F000FFF7CFFD86E0FCF7CAFA8C4C2168401A53
:101400000B28C0F27F800027FCF7C1FA2060012280
:1014100069462800C0B215F01FFD06003000C0B2BA
:1014200001286BD17F492800C0B200010844C4687C
:101430000098241A002C65D00022A24259D240F212
:101440000643774F2800C0B2584307EB000CBCF8A6
:1014500000E040F2FF3050EA0E0EACF800E0280049
:10146000C0B2584337F800C02800C0B258433844CF
:1014700040888005800DAE465FFA8EFE03FB0EFEAF
:10148000BE44BEF804E05FEA8E5E5FEA9E5EB0EBAB
:101490000E00401E10EA0C0C5FEA8C5001D10120B6
:1014A00000E00020C0B2002823D12800C0B2584379
:1014B0003844B0F804C05FEA8C5C5FEA9C5C1CF1C5
:1014C000010EB0F804806EF30908A0F8048028002B
:1014D000C0B203FB00F307EB03001FFA8CFC60446F
:1014E0002B00DBB21B010B449B689B5C8371521C7D
:1014F000A3E72800C0B2FFF74CFD03E02800C0B20C
:10150000FFF747FDBDE8F381F8B504000D002800A2
:10151000C0B2002805D0022865D063D3032863D069
:1015200075E000213F4A2000C0B200011044C068AD
:10153000814252D240F20643394E2000C0B2584395
:1015400006EB0007B7F800C040F2FF3050EA0C0C81
:10155000A7F800C02000C0B25843375A2000C0B2DC
:101560005843304440888005800DA4465FFA8CFCC7
:1015700003FB0CFCB444BCF804C05FEA8C5C5FEA7B
:101580009C5CB0EB0C00401E0740B80501D1012067
:1015900000E00020C0B200281FD12000C0B2584394
:1015A00030448788BF05BF0D17F1010CB0F804E087
:1015B0006CF3090EA0F804E02000C0B203FB00F3B6
:1015C00006EB0300BFB238442300DBB21B011A4410
:1015D0009268525C8271491CA4E72000C0B2FFF7F8
:1015E000D8FC14E013E012E00B4E2000C0B256F815
:1015F00030008047012804D12000C0B2FFF7C9FCA9
:1016000005E000202100C9B206EBC1010871F1BD5F
:10161000000000004A274020FC334020E461002005
:10162000F0650020140A4400340A440038224020A7
:101630004C27402070B50D462C7834B970BD11F898
:10164000013F1678B34206D0401C214601F006FD4A
:1016500028B101462A4612F8013F002BEFD170BD98
:10166000D2B2203A22BF21FA02F000217047203284
:10167000D141D04048409140D1404840704700009F
:1016800000F10103810704D010F8011B820781B12A
:10169000FAD10268A2F10131914311F0803104BF07
:1016A00050F8042FF6E709BAB1FA81F100EBD10046
:1016B000401CC01A704738B504000D00992229005B
:1016C000200080B201F03AFF32BD000010B50400E6
:1016D0002000C0B2012804D00DD303280AD008D3BB
:1016E00009E002F01AFD4D48002101760121417602
:1016F00001E000E0FFE710BD2DE9FF4104000D000F
:1017000000262800C0B2012804D06ED303285FD081
:1017100010D36AE0002041490877FCF7E7F9200080
:10172000C0B2022803D1FCF732F900F090FB00F0C0
:101730007FF85CE02000C0B2012802D10120060041
:1017400055E02000C0B202283FD0344F387F002837
:1017500018D0334890F84010022903D090F8400088
:1017600004280FD102F0A6FF54280BD302F0A2FFE9
:10177000A32807D201F04AFC002803D12000C0B200
:1017800003281FD001F042FC002802D15FF00108BD
:1017900001E05FF0000802F08DFF2100C9B2039163
:1017A0005FFA88F8CDF8088001901D4890F8400055
:1017B00000903B7F1B4A1C490820FCF7A3FC5720E4
:1017C000060004E00020060001E0002006000EE014
:1017D0000020124908772000C0B2022802D101205F
:1017E000060004E000F024F801E0002006003000CC
:1017F000C0B204B0BDE8F08180B50848002101778F
:10180000002101760121417602F0DFFF00F010F89F
:10181000064A05490820FCF775FC01BD0C00402074
:10182000C032002020E3430018E3430088E3430074
:1018300080B503F0A5F8002801D103F09CF803F06F
:10184000B2F8002801D103F0A9F801BD70B5060077
:101850000C00150003F0A7F8012812D103F00EFACE
:1018600000280ED13000C0B204280ADA2000C0B22D
:10187000002806D02000C0B2042802DA22202870F6
:10188000B1E0002028703000C0B2002805D0022846
:1018900055D02BD303287BD0A3E02000C0B2012871
:1018A0000CD103F06DF8002801D103F064F803F0C7
:1018B0007AF8002819D103F071F816E02000C0B2C0
:1018C000022812D02000C0B203280CD103F058F82F
:1018D000002801D103F04FF803F065F8002804D187
:1018E00003F05CF801E0312028707CE02000C0B2F9
:1018F00001280CD103F044F8012801D103F036F897
:1019000003F051F8002819D103F048F816E0200040
:10191000C0B2022812D02000C0B203280CD103F0BC
:101920002FF8012801D103F021F803F03CF800283A
:1019300004D103F033F801E03120287053E0200097
:10194000C0B201280CD103F02EF8012801D103F018
:1019500020F803F015F8002819D103F00CF816E070
:101960002000C0B2022812D02000C0B203280CD13F
:1019700003F019F8012801D103F00BF803F000F887
:10198000002804D102F0F7FF01E0312028702AE09E
:101990002000C0B201280CD103F005F8012801D1C4
:1019A00002F0F7FF02F0ECFF012819D102F0DEFF90
:1019B00016E02000C0B2022812D02000C0B20328D6
:1019C0000CD102F0F0FF012801D102F0E2FF02F099
:1019D000D7FF012804D102F0C9FF01E031202870AF
:1019E00001E01220287070BD70B50024DFF8845427
:1019F000FE21280003F0DEFA0600DFF87C04310047
:101A0000B0F8402089B2914204D0FE22290003F0B0
:101A1000C3FD0400E4B2002C01D1012000E000204D
:101A2000C0B270BD2DE9F84F4FF480750026DFF885
:101A300044743C00320029002000FBF7F9FE00202E
:101A400087F83C00012087F83D00012087F83E0020
:101A5000002087F83900012087F83A00012087F834
:101A60003B000F2217F16001DFF81004FCF7E4FDE2
:101A70005FF01108FF24A14617F1280A4A464146A3
:101A80005046FBF7D5FE5FF00E0A17F11A0B220045
:101A900051465846FBF7CCFE01234FF6FF72FE215C
:101AA0003800FCF774F9A7F8FE00DFF8D423DFF85C
:101AB000D4130820FCF726FBBDE8F18F2DE9F84F81
:101AC000C2B0DFF8B443DFF8AC53FE222900200097
:101AD00003F081FDFE21280003F06CFAADF8000050
:101AE000BDF80000B4F84010884200F0818000206A
:101AF000ADF80200002001905FF0000ADFF8846377
:101B0000DFF8842331000820FCF7FCFADFF87C734F
:101B1000DFF87C832A004FF48071380003F096FFD1
:101B200002AA4FF48071404603F090FF4FF6FF7B0E
:101B300001235A46FE212800FCF729F98146484630
:101B4000B5F8FE1080B2884226D0DFF84823310075
:101B50000820FCF7D7FA01235A46FE2102A8FCF719
:101B600016F982465046BDF8061180B2884208D068
:101B7000DFF8242331000820FCF7C4FAFFF752FFF6
:101B800024E04FF480760DF10809AB463200494657
:101B90005846FCF74DF819E001235A46FE2102A8E9
:101BA000FCF7F5F882465046BDF8061180B288422F
:101BB00006D0DFF8E42231000820FCF7A3FA05E0A4
:101BC0004FF4807202A9280003F096FFDFF8CC6280
:101BD0005FF48031300003F003FE4FF48072310077
:101BE000200003F05DFBFE222900200003F0D4FC5E
:101BF00043B0BDE8F08F80B54FF48072DFF89C12DF
:101C0000DFF8740203F04CFB002806D0DFF89022C6
:101C1000DFF870120820FCF775FA01BD80B5FFF7F8
:101C2000EAFFFFF74BFF01BDF8B5040015252600BC
:101C3000DFF840722A0031003800FBF7F9FFFFF7A8
:101C4000D3FEF2BDF8B504001525DFF828622700A1
:101C50002A0031003800FBF7EBFFF1BD80B5DFF85B
:101C60001402C18A4FF6FF72914202D0C18A491C08
:101C7000C182FFF7B9FE02BDDFF8F801C08A7047E4
:101C800080B5DFF8F001018B4FF6FF72914202D070
:101C9000018B491C0183FFF7A7FE02BDDFF8D401C9
:101CA000008B7047F8B504000F252600DFF8F471AB
:101CB0002A0031003800FBF7BBFFFFF795FEF2BDAD
:101CC000F8B504000F25DFF8DC6127002A00310099
:101CD0003800FBF7ADFFF1BDF8B504000E25260076
:101CE000DFF8C4712A0031003800FBF7A1FFFFF7CD
:101CF0007BFEF2BDF8B504000E25DFF8AC612700CD
:101D00002A0031003800FBF793FFF1BDF8B504005D
:101D100011252600DFF894712A0031003800FBF706
:101D200087FFFFF761FEF2BDF8B504001125DFF86B
:101D30007C6127002A0031003800FBF779FFF1BDF4
:101D4000F8B5040003252600DFF864712A0031008D
:101D50003800FBF76DFFFFF747FEF2BDF8B5040052
:101D60000325DFF84C6127002A0031003800FBF71B
:101D70005FFFF1BDF8B5040003252600DFF83471DC
:101D80002A0031003800FBF753FFFFF72DFEF2BDAC
:101D9000F8B504000325DFF81C6127002A00310094
:101DA0003800FBF745FFF1BDF8B50400112526000A
:101DB000DFF804712A0031003800FBF739FFFFF724
:101DC00013FEF2BDF8B504001125DFF8EC60270022
:101DD0002A0031003800FBF72BFFF1BDF8B50400F5
:101DE00010252600DFF8D4702A0031003800FBF7F8
:101DF0001FFFFFF7F9FDF2BDF8B504001025DFF86D
:101E0000BC6027002A0031003800FBF711FFF1BD4C
:101E100038B504000D002000C0B2022801DB00200C
:101E200008E0DFF850002100C9B2084480F86F5084
:101E3000FFF7DAFD32BD0200D2B2022A06DA0D4AFD
:101E40000300DBB21A4492F86F200A70704710B595
:101E500004000848416F61184167FFF7C5FD10BDD8
:101E60000449496F0160704702494A6F82184A6706
:101E700070470000BC1F4020BC2040207009440077
:101E80008809440080094400AC09440000C04B00AC
:101E900000E04B00C4094400E009440000404C004D
:101EA000FC0944001C204020D61F4020E41F402095
:101EB000F51F4020F81F4020FB1F40200C20402031
:101EC00010B5040000200E49087602F0D7FE002865
:101ED00001D1012002E0FBF709FE002010BD10B582
:101EE0000400074801214176002101762000C0B29C
:101EF00002F02CF9034A04490820FCF703F910BD4D
:101F00000C004020A8E34300A0E34300F0B402002B
:101F10000020002300242500EDB2022D23DADFF893
:101F2000E0542600F6B215F826601700FFB2BE4254
:101F300017D1012633000E00F6B2042E0EDA260069
:101F4000F6B205EB86050E00F6B2AD5D012D02D1AD
:101F50000025280004E07E25280001E02225280035
:101F600001E0641CD7E71C00E4B2002C01D112246C
:101F70002000C0B2F0BC70472DE9F14F84B00C00D6
:101F8000049E042100226F463800FBF751FC01211A
:101F900000222000000E8DF80000684623001B0C74
:101FA000437023001B0A8370C470C378877853EA98
:101FB0000723407853EA00439DF8000053EA00638A
:101FC000A1463000C01310F00200C6F3803707436B
:101FD000002F05D0022F0ED007D3032F12D014E00C
:101FE00013F0FF0000B205000FE01800C0F3072057
:101FF00000B2050009E01800000C00F0FF0000B27C
:10200000050002E01800000E0500C6F3C7000390AB
:10201000C6F3C75C9CF0A50CC6F3873E9EF05A0E33
:10202000DDF80C8098EA05081CEA08081EEB080891
:102030005FF0000AC2451DD24846000E90EA597072
:1020400090EA593090EAD90010F00100050002959D
:102050005FEA490948465FEA500B5FEA4B0BCDF84F
:1020600004B0DDF804B0DDF8089059EA0B091AF164
:10207000010ADFE7B0070AD5C9F30F4B5BEA096B2A
:102080005FEA092010F47F0050EA0B0B00E0CB461A
:1020900096EA0B0005B0BDE8F08F2DE9F04FF5B0E2
:1020A00006000F00102100220DF11C084046FBF72E
:1020B000BFFB3800000E07900DF11C08C7F3074066
:1020C000C8F80400C7F30720C8F8080007F0FF00AD
:1020D000C8F80C0000200C9000200B90002000900D
:1020E0005FF008095FF0000A082100220DF1040BDF
:1020F0005846FBF79DFB002109220798D8F804C039
:102100005FEA0C4C1CEB006CD8F808001CEB002CB0
:10211000D8F80C3013EB0C035FF0000EBEF1280F63
:1021200008DA002B02D55B00734000E05B001EF173
:10213000010EF3E71800000E0D900DA8C3F3074C35
:10214000C0F804C0C3F3072CC0F808C003F0FF0CAC
:10215000C0F80CC05FF0040CBCF1010FC0F28F801E
:102160005FF0010819F1FF0018FA00F8444600205A
:10217000484514DA0DF1340E0EEB8C0E5EF804ECCB
:102180001EEA040F02D15FF0300E01E05FF0310E65
:102190000DF1040808F800E06410401CE8E75FF067
:1021A000000EBEF1040F14DA01A810F80E804546A7
:1021B0000DF10408DEF1000BD84498F8078000F810
:1021C0000E8001A8DEF100084044C5711EF1010E29
:1021D000E7E701A89DF804B090F801805FEA88184D
:1021E00018EBCB1890F802B018EB4B1890F803B02E
:1021F00018EB0B1890F804B018EBCB0890F805B06A
:1022000018EB8B0890F806B018EB4B08C07918EB68
:1022100000087C4810EB0808C2465FF010089AFBE3
:10222000F8F008FB10A8CDF8448011A85FF0100862
:102230009AFBF8F8C0F80480DDF84480CDF80080FF
:102240000DF10C0BDCF100080BEB8808DDF800B099
:10225000C8F810B00DF10C08DCF1000B08EB8B088E
:10226000D8F81080406858EA001803A8DCF1000B89
:1022700000EB8B00C0F81080BCF1010C6CE70DF195
:102280000C08D8F80C00D8F808B050EA0B20D8F8A1
:10229000048050EA0840DDF80C8050EA086075B010
:1022A000BDE8F08F70B504000D001600012C04D1BC
:1022B00031002800FFF760FE03E031002800FFF73F
:1022C000ECFE70BD2DE9F14F8CB00C001500002024
:1022D0000B90002007905FF000095FF0000A5FF0AC
:1022E000000BFBF754FBFFF7BFFD07A8FFF7B8FD96
:1022F000FBF74DFB0600012003F070FC070016FA07
:1023000087F1079841180891089803F0CAFC5FF01C
:1023100000084046C0B204280DDA03F07FFCFF211C
:1023200090FBF1F201FB120037494246D2B28854C9
:1023300018F10108EDE75FF00408DFF8CC90CDF864
:102340002890A24642460A995046FBF771FC5FF07E
:10235000040ACDF82490DFF8B4B0524609995846E3
:10236000FBF766FC079806900596380080B204904B
:102370000898039099F80300029099F802000190E0
:1023800099F80100009099F80030214A214908206D
:10239000FBF7B8FE0020287000200DB0BDE8F08FDC
:1023A0002DE9F04704000D00002600275FF000082B
:1023B000164801784278120452EA0162817852EAA2
:1023C000012290F8039059EA0209287869780904F3
:1023D00051EA0061A87851EA002195F803A05AEA71
:1023E000010A4A460C492000C0B2FFF75BFF01001A
:1023F0008A4501D0012000E00020BDE8F087000000
:10240000E42D402030D0FFFF4C0040204800402009
:1024100044E443003CE443000818002070B5040085
:102420000D001600320029002000FFF74BFFC0B25C
:1024300070BD10B5040021000120FFF7B1FFC0B24C
:1024400010BD70B504000D001600320029002000F8
:10245000FFF738FFC0B270BD10B5040021000220A4
:10246000FFF79EFFC0B210BD2DE9F84F84B0040005
:102470000D0016005FF0000900275FF0000A2068D9
:1024800000788DF8000020684078002803D120688B
:10249000807844280AD0312030703378DFF80C2B54
:1024A000DFF80C1B0820FBF72DFE14E12068C11C8F
:1024B0000420FCF7ABF880462068C11D0420FCF71F
:1024C000A5F8019000210800C0B2052824DA2420D4
:1024D000DFF8E02A13698C465FFA8CFC00FB0CFCE9
:1024E00053F80C30984515D113698C465FFA8CFC73
:1024F00000FB0CF018448068019B98420AD31170CD
:102500001078002805D10120136918750020126980
:10251000507501E0491CD6E75FF02409DFF894AA62
:10252000DAF810009AF8001009FB01F10844007D68
:1025300000280AD1222030703378DFF8802ADFF8B3
:10254000701A0820FBF7DEFDC5E0DAF810009AF8F3
:10255000001009FB01F14058804526D3DAF810003D
:102560009AF8001009FB01F14158DAF810009AF8C6
:10257000002009FB02F2104480684118884514D2FB
:10258000DAF810009AF8001009FB01F14158DAF866
:1025900010009AF8002009FB02F2104480684118EC
:1025A000019810EB080081420AD231203070337854
:1025B000DFF80C2ADFF8F8190820FBF7A3FD8AE002
:1025C000DAF810009AF8001009FB01F10844D0F87D
:1025D00004B0DAF810009AF8001009FB01F1405835
:1025E00010EB0B0BBBEB080BDAF810009AF800109D
